:100000000C94DE020C9406030C9406030C94060375
:100010000C9406030C9406030C9406030C9406033C
:100020000C9406030C9406030C9406030C9406032C
:100030000C9406030C94E8100C9406030C9406032D
:100040000C94230F0C9406030C948B0F0C94650FE7
:100050000C9406030C9406030C9406030C940603FC
:100060000C94BD0F0C94060328756E757365642996
:10007000005363616E31362F3631000000000000FE
:100080000046617461725363616E312D3631000038
:100090000046617461725363616E320000000000BB
:1000A00000437573746F6D000000000000000000D5
:1000B0000053656E642043432056616C00000000CD
:1000C0000053656E642043432045767400000000B1
:1000D0000053656E64205072672043680000000082
:1000E0000053656E64204E6F7465000000000000D0
:1000F0000045786974200053657474696E677320D5
:10010000005570706572204368616E6E656C00000A
:10011000004C6F776572204368616E6E656C0000FD
:1001200000506564616C204368616E6E656C000010
:10013000005069746368776865656C20506F74005F
:10014000004D6F64756C6174696F6E20506F740040
:10015000004B6579626F617264000000000000006E
:1001600000506F742041737369676E0000000000D7
:1001700000427574746F6E2041737369676E00007E
:1001800000427574746F6E204D6F6465000000004E
:100190000028656E642900000000000000000000D7
:1001A00000506F7420312043430000000000000025
:1001B00000506F7420322043430000000000000014
:1001C00000506F7420332043430000000000000003
:1001D00000506F74203420434300000000000000F2
:1001E00000506F74203520434300000000000000E1
:1001F00000506F74203620434300000000000000D0
:1002000000506F74203720434300000000000000BE
:1002100000506F74203820434300000000000000AD
:1002200000506F742039204343000000000000009C
:1002300000506F7420313020434300000000000064
:1002400000506F7420313120434300000000000053
:1002500000506F7420313220434300000000000042
:1002600000506F7420313320434300000000000031
:1002700000506F7420313420434300000000000020
:1002800000506F742031352043430000000000000F
:1002900000506F74203136204343000000000000FE
:1002A00000506F742041737369676E000000000096
:1002B0000042746E20312043432F507267000000CB
:1002C0000042746E20322043432F507267000000BA
:1002D0000042746E20332043432F507267000000A9
:1002E0000042746E20342043432F50726700000098
:1002F0000042746E20352043432F50726700000087
:100300000042746E20362043432F50726700000075
:100310000042746E20372043432F50726700000064
:100320000042746E20382043432F50726700000053
:100330000042746E20392043432F50726700000042
:100340000042746E2031302043432F50726700000A
:100350000042746E2031312043432F5072670000F9
:100360000042746E2031322043432F5072670000E8
:100370000042746E2031332043432F5072670000D7
:100380000042746E2031342043432F5072670000C6
:100390000042746E2031352043432F5072670000B5
:1003A0000042746E2031362043432F5072670000A4
:1003B00000427574746F6E2041737369676E00003C
:1003C0000042746E2031204D6F6465000000000013
:1003D0000042746E2032204D6F6465000000000002
:1003E0000042746E2033204D6F64650000000000F1
:1003F0000042746E2034204D6F64650000000000E0
:100400000042746E2035204D6F64650000000000CE
:100410000042746E2036204D6F64650000000000BD
:100420000042746E2037204D6F64650000000000AC
:100430000042746E2038204D6F646500000000009B
:100440000042746E2039204D6F646500000000008A
:100450000042746E203130204D6F64650000000052
:100460000042746E203131204D6F64650000000041
:100470000042746E203132204D6F64650000000030
:100480000042746E203133204D6F6465000000001F
:100490000042746E203134204D6F6465000000000E
:1004A0000042746E203135204D6F646500000000FD
:1004B0000042746E203136204D6F646500000000EC
:1004C00000427574746F6E204D6F6465000000000B
:1004D000004B62642044726976657200000000007F
:1004E0000056656C6F63697479204D696E00000079
:1004F0000056656C6F63697479204D617841646A58
:100500000056656C6F6369747920536C6F70650079
:100510000055707065722042617365000000000034
:10052000004C6F7765722042617365000000000027
:1005300000506564616C204261736500000000003A
:10054000004B6579626F617264000000000000007A
:100550000000000000240027002A00432E4D65798A
:10056000657220323032360000000000250028007D
:100570002B00040404040404040402020202020224
:1005800003030303030302020301020408102040D3
:10059000800102040810200102040810204080405D
:1005A000000000090003020000040508000000002C
:1005B00000000000000000005811D81611241FBED2
:1005C000CFEFD8E0DEBFCDBF26E0A4EBB2E001C0A4
:1005D0001D92AD3CB207E1F712E0A0E0B1E0E4E625
:1005E000F7E302C005900D92A43BB107D9F712E0E2
:1005F000CDEDD2E004C02197FE010E949F18CC3DB2
:10060000D107C9F70E9474120C94A51B0C9400002A
:100610000895282F9091790581E0913208F042C029
:10062000809155058111FCCF8091780532E030939F
:100630005505209354052FEF2093530528E535E009
:1006400030935205209351051092500590934F0519
:1006500010924E0590914E05880F892B80934E0580
:1006600080914D05813029F510924D0580914E0500
:100670008093BB008091BC0083FDF8CF85EC809314
:10068000BC00809155058230E1F3809153058F3F86
:1006900091F080915305803281F080915305803331
:1006A00071F084E01092570510927905109256056A
:1006B000089585EEE4CF80E0F5CF82E0F3CF83E0CC
:1006C000F1CF81E00C94090391E09093560580935B
:1006D00078051092570510927905089587E6809362
:1006E0007C0083E880937A0080917A008064809314
:1006F0007A00409880E090913506891728F4419A55
:10070000000041988F5FF7CF80917A0086FDFCCF83
:10071000409A419A000041984098000000001092D1
:1007200039060895982F809155058111FCCF81E0FD
:1007300080935505809354052FEF209353052DE2A8
:1007400035E03093520520935105109250052FEF5C
:10075000260F20934F0580934E0580914E05990FEB
:10076000982B90934E0580914D058130C9F41092DD
:100770004D0580914E058093BB008091BC0083FDA8
:10078000F8CF85EC8093BC00809155058130E1F372
:1007900080915005861710F460915005862F0895BA
:1007A00085EEF0CF90E0FC01E056FA4F2491FC0179
:1007B000E757FA4F3491FC01EE58FA4FE491EE23DB
:1007C000C9F0222339F0243001F1A8F4223069F174
:1007D000233079F1F0E0EE0FFF1FE859FA4FA591B1
:1007E000B4918FB7F894EC91611126C030953E23F7
:1007F0003C938FBF0895283071F0293091F0253057
:1008000049F7809180008F7D03C0809180008F77B1
:1008100080938000DFCF8091B0008F778093B0000D
:10082000D9CF8091B0008F7DF9CF84B58F7784BD0B
:10083000D1CF84B58F7DFBCF3E2BDACF00000000F7
:100840000000000000008130910551F09C01220F52
:10085000331F220F331F0797820F931F0197F1F762
:100860000895CF92DF92EF92FF926FB7F894809144
:10087000270590912805A0912905B0912A0550914E
:10088000260526B535B3432F417030FF04C041E043
:100890002F3F09F440E06FBF6C017D0137E0CC0CC5
:1008A000DD1CEE1CFF1C3A95D1F7C50ED11CE11CD6
:1008B000F11CC81AD90AEA0AFB0A880F991FAA1F55
:1008C000BB1FC81AD90AEA0AFB0A63E0CC0CDD1C7C
:1008D000EE1CFF1C6A95D1F730E0A3E3B3E00E9461
:1008E0003A18672F782F892F99276C0D7D1D8E1D43
:1008F0009F1D442321F06D5C7C4F8F4F9F4FFF90D5
:10090000EF90DF90CF9008958F929F92AF92BF9219
:10091000CF92DF92EF92FF924B015C010E94310473
:100920006B017C010E9431046C197D098E099F09BD
:10093000683E734081059105A8F321E0821A910871
:10094000A108B10888EEC80E83E0D81EE11CF11C96
:1009500081149104A104B10429F7FF90EF90DF9076
:10096000CF90BF90AF909F908F9008952FB7F8943D
:1009700060912705709128058091290590912A059D
:100980002FBF0895809124058F5F80932405809167
:1009900022058F5F80932205809122058F708093BE
:1009A000220508956AE070E080E090E00C948404F1
:1009B00008950895AF92BF92CF92DF92EF92FF9287
:1009C0000F931F93CF93DF936C017B018B01040F77
:1009D000151FEB015E01AE18BF08C017D10759F013
:1009E0006991D601ED91FC910190F081E02DC60155
:1009F0000995892B79F7C501DF91CF911F910F914F
:100A0000FF90EF90DF90CF90BF90AF900895FC01E2
:100A1000538D448D252F30E0842F90E0821B930B63
:100A2000541710F0CF96089501970895FC01918D09
:100A3000828D981761F0A28DAE0FBF2FB11D5D960C
:100A40008C91928D9F5F9F73928F90E008958FEFAE
:100A50009FEF0895FC01918D828D981731F0828D62
:100A6000E80FF11D858D90E008958FEF9FEF0895B9
:100A7000FC01918D228D892F90E0805C9F4F821B1D
:100A800091098F73992708958AE795E00E943805A8
:100A900021E0892B09F420E0822F089580E090E086
:100AA000892B29F00E94440581110C9400000895BF
:100AB000FC01A48DA80FB92FB11DA35ABF4F2C91D3
:100AC000848D90E001968F739927848FA689B789CA
:100AD0002C93A089B1898C91837080648C93938DC1
:100AE000848D981306C00288F389E02D80818F7D64
:100AF00080830895EF92FF920F931F93CF93DF931C
:100B0000EC0181E0888F9B8D8C8D98131AC0E88949
:100B1000F989808185FF15C09FB7F894EE89FF8918
:100B20006083E889F98980818370806480839FBFB6
:100B300081E090E0DF91CF911F910F91FF90EF90B6
:100B40000895F62E0B8D10E00F5F1F4F0F731127C6
:100B5000E02E8C8D8E110CC00FB607FCFACFE88901
:100B6000F989808185FFF5CFCE010E945805F1CF2C
:100B7000EB8DEC0FFD2FF11DE35AFF4FF0829FB775
:100B8000F8940B8FEA89FB8980818062CFCF682F30
:100B90008AE795E00C947A05CF93DF93EC01888D7A
:100BA0008823B9F0AA89BB89E889F9898C9185FDE8
:100BB00003C0808186FD0DC00FB607FCF7CF8C9176
:100BC00085FFF2CF808185FFEDCFCE010E945805D1
:100BD000E9CFDF91CF910895089585ED8093BC0012
:100BE0008091BC0084FDFCCF1092550508952091A2
:100BF000F604260F3327331F21323105ECF4209100
:100C00005505FC0190E080E0243069F082E0089511
:100C1000A091F6042191AC014A525B4FA40FB52F6D
:100C2000B11D2C930196861798F38091F604680FF6
:100C30006093F60480E0089581E008950895E091BE
:100C40002C0580912B05E81730F4F0E0E35DFA4FB6
:100C5000808190E008958FEF9FEF089590912C058B
:100C600080912B052FEF3FEF981748F4E92FF0E024
:100C7000E35DFA4F208130E09F5F90932C05C9011E
:100C8000089580912B0590912C05891B990B08954F
:100C9000CF92DF92EF92FF920F931F93CF93DF9348
:100CA0007C01CB018A0120915605222389F0EB01BA
:100CB0006B01C40ED51ECC15DD0569F06991D70115
:100CC000ED91FC910190F081E02DC7010995F3CFE2
:100CD000642F0E94F705C801DF91CF911F910F91FA
:100CE000FF90EF90DF90CF9008950F931F93CF93D5
:100CF000DF93E82FF0E0E65CF94F62A3782F76955A
:100D0000769576958770982F990FC62FD0E09E0123
:100D100035952795359527952370472F50E0E3E0CB
:100D2000F0E0092E02C0EE0FFF1F0A94E2F7E095F3
:100D3000F095440F551FDA01A65CB94F59960D91F5
:100D40001C915A97E023F1235A96FC93EE935997FE
:100D5000862F807467FF38C0882381F18091570601
:100D6000882361F130E0092E02C0220F331F0A945C
:100D7000E2F72E2B3F2B5A963C932E935997FA016C
:100D8000E65CF94F318D228D80915206983068F5DE
:100D90007D5F770F70934A0630934B060E94640381
:100DA00042E050E06AE476E087E196E00E9448067F
:100DB000DF91CF911F910F910C946103DA01A65C32
:100DC000B94F6370262FCECF882321F0809157062C
:100DD0008111C8CFDA01A65CB94F84E0D595C795DB
:100DE0008A95E1F7C3702C2FBDCF770F795F709391
:100DF0004A0620934B06D2CFCF92DF92EF92FF921A
:100E00000F931F93CF930E94B60400915806109140
:100E1000590620915A0630915B066B017C01C01A7D
:100E2000D10AE20AF30A970186010E351140210525
:100E30003105F8F0609358067093590680935A066E
:100E400090935B0681E090915706911180E080932A
:100E500057060CE516E0C0E0F80161918F01809122
:100E60004706862319F08C2F0E947506CF5FC0318C
:100E700099F7CF911F910F91FF90EF90DF90CF9056
:100E80000895EAE3F6E0855F880F808B618B728BB3
:100E9000808D0E94640343E050E06AE476E087E1DD
:100EA00096E00E9448060C946103EF92FF921F9314
:100EB000CF93DF9300D000D0CDB7DEB7142F22E060
:100EC00029836A834B838C5B9F4F7C01FC0180816B
:100ED0000E94640343E050E0BE016F5F7F4F87E1F3
:100EE00096E00E9448060E94610383E08983812F77
:100EF000896F8A83F70180810E94640342E050E099
:100F0000BE016F5F7F4F87E196E00E9448060E9416
:100F1000610385E090E00E941E04186F1A83F701B8
:100F200080810E94640342E050E0BE016F5F7F4F0A
:100F300087E196E00E9448060E94610382E390E008
:100F40000E941E040F900F900F900F90DF91CF9191
:100F50001F91FF90EF9008951F93CF93DF93CDB72C
:100F6000DEB728970FB6F894DEBF0FBECDBF182F9F
:100F700088E0EFE4F1E0DE01119601900D928A9590
:100F8000E1F78091B406861708F46FEF70E0660F02
:100F9000771F81E090E08C0F9D1F680F791FFB0188
:100FA0006081610F606840E08CE696E00E94550722
:100FB0001093B70628960FB6F894DEBF0FBECDBFCC
:100FC000DF91CF911F910895CF93DF93EC0144E01F
:100FD0000E945507C55BDF4F88818F5F888381E062
:100FE00090E0DF91CF9108950F931F93CF93DF93FC
:100FF0008C01D0E0C0E0F801EC0FFD1F6491662386
:1010000041F08CE696E00E94E407892B11F02196CE
:10101000F2CFCE01DF91CF911F910F9108950F93E1
:101020001F93CF93DF938B0198E0899FB001112428
:10103000606440E08CE696E00E945507E801085F96
:101040001F4F69918CE696E00E94E407C017D10714
:10105000C1F7DF91CF911F910F910895CF93C09168
:10106000B7068091B506C81738F460E28CE696E0C2
:101070000E94E407CF5FF5CF8093B706CF91089524
:10108000CF93DF931F92CDB7DEB7698320915605CA
:101090002223F9F020917905203258F021E030E048
:1010A000FC013383228390E080E00F90DF91CF91A9
:1010B000089580915705E82FF0E0E85AFA4F99819A
:1010C00090838F5F809357058093790581E090E04E
:1010D000ECCF61E0CE0101960E94F705F7CF90E0DA
:1010E00080E008950895CF93DF93D82FC0E060E0AB
:1010F00082E00E94D20366E970E080E090E00E9406
:10110000840461E082E00E94D20366E970E080E03E
:1011100090E00E948404CF5FDC13E9CFDF91CF9190
:10112000089593E097B92CE028B98130B1F082306E
:10113000E1F194B988E385B986E08AB98EEF8BB97D
:10114000E6E9F4E0A6E5B4E098E080E191938D93C0
:1011500024E0E63DF207D1F712C087E084B988E3C6
:1011600085B98EE38AB986E18BB9E6E9F4E0A6E5B4
:10117000B4E011921D9224E0E63DF207D1F7E6E1DA
:10118000F4E0A6EDB3E026E534E08FEF81938D9394
:101190002E173F07D9F7EDEBF3E086ED93E020E261
:1011A00021938E179F07E1F7089594B988E385B9D5
:1011B00086E38AB986E08BB9E6E9F4E0A6E5B4E017
:1011C00011921D9284E0E63DF807D1F7D8CF1F9326
:1011D000CF93DF93162FC42FDFEAD80F8091010140
:1011E0008D1739F06D2F8AE795E00E947A05D0932C
:1011F0000101612F8AE795E00E947A05CF778C2F55
:1012000090E0DF91CF911F910C94C7051F93CF936E
:10121000DF93462F90E020910701022E000C330B44
:101220008217930731F580E8689FE001112410913F
:101230000401115280910101181739F0612F8AE7DA
:1012400095E00E947A051093010160E08AE795E03D
:101250000E947A05BE01660F672F661F770B719596
:101260006F7777278AE795E0DF91CF911F910C94F4
:101270007A0520910801022E000C330B61E08217E1
:10128000930731F08C5F9E4FFC01628567FD07C0BC
:1012900080910401DF91CF911F910C94E708DF91B9
:1012A000CF911F910895CF93DF93D62FCFE7C80F2B
:1012B000809101018C1739F06C2F8AE795E00E942C
:1012C0007A05C09301016D2F8AE795E00E947A05A7
:1012D00080E490E0DF91CF910C94C705CF93DF932A
:1012E000D62FCFE8C80F809101018C1739F06C2FF1
:1012F0008AE795E00E947A05C09301016D2F8AE785
:1013000095E00E947A0580E490E0DF91CF910C9403
:10131000C7051F93CF93DF93162FD42FCFE8C80FA5
:10132000809101018C1739F06C2F8AE795E00E94BB
:101330007A05C0930101612F8AE795E00E947A0542
:101340006D2F8AE795E0DF91CF911F910C947A057C
:10135000282F30E0D901AA5ABB4F9C919130A9F0B7
:1013600038F0923009F445C0933009F446C008952E
:10137000411103C0662309F44CC02A523C4F8FEF41
:10138000F901808381E08C9308956623F9F092E05F
:101390009C932A523C4FF901208140914301042E35
:1013A000000C550B240F352F311D2F3F310519F03F
:1013B00010F02FEF30E026543D4F60914601680F4A
:1013C000F9014081809105010C948909442399F029
:1013D000F901EA52FC4F9081992319F091509083C2
:1013E000089592E09C9360914601680F40914201FC
:1013F000E9CF61110EC083E0C6CF61110AC041116F
:1014000008C01C9260914601680F809105010C9400
:1014100053090895282F30E0D901AA56BB4F9C915B
:101420009130A9F038F0923009F445C0933009F4B6
:1014300046C00895411103C0662309F44CC02A5EDA
:101440003B4F8FEFF901808381E08C9308956623F1
:10145000F9F092E09C932A5E3B4FF9012081409184
:101460004301042E000C550B240F352F311D2F3F47
:10147000310519F010F02FEF30E026543D4F609108
:101480004501680FF9014081809104010C9489099C
:10149000442399F0F901EA5EFB4F9081992319F0FA
:1014A00091509083089592E09C9360914501680F5C
:1014B00040914201E9CF61110EC083E0C6CF6111B6
:1014C0000AC0411108C01C9260914501680F8091CB
:1014D00004010C94530908958F929F92AF92BF928A
:1014E000CF92DF92EF92FF92CF93DF93EC016A01EC
:1014F0007B010E94B6044B015C018AE795E00E94E3
:101500003805892B69F40E94B604681979098A099B
:101510009B096C157D058E059F0578F380E006C05C
:101520008AE795E00E941605888381E0DF91CF91DC
:10153000FF90EF90DF90CF90BF90AF909F908F90F3
:101540000895AF92BF92DF92EF92FF920F931F9395
:10155000CF93DF9300D0CDB7DEB7299A000000000B
:10156000289A00000000289829983DEBA32E33E02C
:10157000B32E10E093B19072F50181915F0198173D
:1015800059F03197908360914701610F8091060176
:10159000911151C00E946E09289A000000002898FD
:1015A0001F5F193139F780914101813009F446C03C
:1015B000823009F4A8C081117DC01092BA03299A23
:1015C00000000000289A000000002898299806E9E9
:1015D00014E086E5E82E84E0F82ED12C93B19870C3
:1015E000F80181918F01981759F03197908360919C
:1015F00045016D0D809104019111C3C00E946E09D7
:1016000093B19071F70181917F01981759F031974B
:101610009083609146016D0D809105019111B4C0D8
:101620000E946E09289A000000002898D394FDE3D8
:10163000DF12D4CF3FC00E945309AECF1092BA033D
:101640000BB1077E00610BB910E0E12C85B1887FFA
:101650008E2985B981E090E00E941E045C985B9A17
:101660000BB9B12C103408F0105469B1A9B05B9AD1
:101670005B98FD288091BA03F82AF092BA0389B1E9
:101680008074F82E89B18078D82E60744F2D812F08
:101690000E940A0A6A2D60784D2D812F0E94A809A8
:1016A00088E0810FB394F8E0BF1229C0175FE3947C
:1016B000EF12CCCF8AE795E00E943805892B09F418
:1016C00098C042E350E060E070E0CE0102960E94D4
:1016D0006C0A6A8167FF9DC0609300011092BC0391
:1016E000603D08F054C0603C08F056C0603B28F4F0
:1016F000603A18F4603808F464C082E04EC05B9A27
:101700005B98182FAFCF1092BA035D9A299A000008
:1017100000005D98299828E0F22E10E081E090E02A
:101720000E941E0498E0E92E00EC010F103408F42A
:10173000012F69B1D9B043B1447019B11074289A1E
:10174000942F912B8091BA03892B8093BA03289808
:101750006870802F0E940A0A6D2D6078412F802FBB
:101760000E94A80918E0100FEA94E110DDCF5C9AFE
:10177000000000005C9819E0100FFA94F110CECF31
:1017800099CF0E9453093CCF0E9453094BCF603F31
:1017900070F4603E08F0B1CF81E08093BB038AE72C
:1017A00095E00E947A058A818093010122C0613F01
:1017B00061F11FEF613F40F082E0623F39F1633F2A
:1017C00021F11092BB0315C0198349E150E060E09C
:1017D00070E0CE0101960E946C0A9981973F11F04A
:1017E0008111F2CF1092BB031092010187EF809319
:1017F00000010F900F90DF91CF911F910F91FF90FB
:10180000EF90DF90BF90AF90089581E08093BB038D
:10181000F0CFF090BB03FF2061F31091BC031F5F7A
:101820001093BC030091000180910101801739F0F1
:10183000602F8AE795E00E947A05009301016A8192
:101840008AE795E00E947A05812F6F2D0E94491842
:101850009111CFCF1092BC03CCCF0C94A10A3F9230
:101860004F925F926F927F928F929F92AF92BF92B0
:10187000CF92DF92EF92FF920F931F93CF93DF935C
:1018800000D000D000D0CDB7DEB7382E611101C036
:1018900061E070E090E080E00E94F2169B01AC01F4
:1018A00060E070E080E89FE30E9412194B015C0148
:1018B0000AEB12E01E821D828FE790E083199109E6
:1018C0009C01990F440B550B29833A834B835C830E
:1018D0004D815E81BA0190E080E00E94F21620E026
:1018E00030E04FE753E40E9412196B017C01AC0118
:1018F0009B01C501B4010E942F172B013C0120E080
:1019000030E040E85FE3C501B4010E94A618A701DA
:1019100096010E94A5189B01AC01C301B2010E946F
:1019200012196B017C0169817A818B819C810E94F3
:10193000F416A70196010E942F170E948419630DC7
:10194000F80161938F012D813E812F5F3F4F3E83D0
:101950002D832115314009F0BBCF26960FB6F894A0
:10196000DEBF0FBECDBFDF91CF911F910F91FF90D2
:10197000EF90DF90CF90BF90AF909F908F907F902F
:101980006F905F904F903F900895CF93DF93C82F53
:1019900070E060E00E944107809152060E9464035B
:1019A0006C2F87E196E00E9440080E94610361E08D
:1019B000809152060E94920310922C0580932B0571
:1019C00087E196E00E942E06D82FEC2FF0E0EE0F74
:1019D000FF1FE65CF94F618D728D8C2F0E944107CD
:1019E0008D2F8095D9F050E040E0282F30E0842FF3
:1019F000B901042E02C0759567950A94E2F760FF5D
:101A000007C0CC0FCC0FCC0F8C0FDF91CF91089576
:101A10004F5F5F4F4830510551F7F7CF8FEFF5CF4C
:101A2000CF93DF93DFEF80E00E94C50CC82F8F3F7C
:101A300009F0D82F0E94FC06E0914806F091490673
:101A40008C2F0995CF3F79F78D2FDF91CF91089596
:101A5000CF93DF93C0EBD6E088810E94640361E0FE
:101A600087E196E00E9440080E94610361E088815E
:101A70000E94920310922C0580932B0587E196E03B
:101A80000E942E0623E0959587952A95E1F780958B
:101A90008770DF91CF910895CF92DF92EF92FF92FE
:101AA0001F93CF93DF93EC010E94B6046B017C017E
:101AB000CC0EDD1EE11CF11C0E94280D182F88237E
:101AC00049F00E94B6046C157D058E059F05A0F3B4
:101AD000209791F3812FDF91CF911F91FF90EF908D
:101AE000DF90CF9008958F929F92AF92BF920F9305
:101AF0001F93CF93DF93CDB7DEB7A1970FB6F894BE
:101B0000DEBF0FBECDBF19A2423008F44AE08E01FD
:101B10000F5D1F4F842E912CB12CA12CA501940197
:101B20000E946918E62FB901CA01EA3044F5E05D68
:101B3000D801EE938D01232B242B252B79F790E0F0
:101B400080E0109769F0FD0101900020E9F73197DE
:101B5000AF014A1B5B0BBD018CE696E00E94DA04E4
:101B6000A1960FB6F894DEBF0FBECDBFDF91CF9127
:101B70001F910F91BF90AF909F908F900895E95C57
:101B8000D7CF0F931F93CF93DF93CDB7DEB7609777
:101B90000FB6F894DEBF0FBECDBF40E150E0BC01F0
:101BA0008E010F5F1F4FC8010E94E916F8010190D6
:101BB0000020E9F73197AF01401B510BB8018CE6CB
:101BC00096E00E94DA0460960FB6F894DEBF0FBE6E
:101BD000CDBFDF91CF911F910F910895CF92DF92EA
:101BE000EF92FF920F931F93CF93DF93D82F61E073
:101BF00080E00E94AC070D2F10E0F801EC5FFE4F73
:101C0000C081DC3228F0DC3310F1DD3309F455C03B
:101C1000CC2E0C2E000CDD08EE08FF084AE0C701B0
:101C2000B601F7FE0DC06DE28CE696E00E94E40777
:101C300066277727CB016C197D098E099F094AE039
:101C40000E94730D0E942E0861E083E00EC0C43034
:101C500074F420E1C202C00111248F549F4F0E94EE
:101C6000C10D0E942E0861E08DE00E94AC0762E089
:101C70008CE696E00E94E407C80140960E94ED17AA
:101C80008C1749F061E08FE00E94AC076AE28CE6B5
:101C900096E00E94E407C7FF19C061E085E00E945A
:101CA000AC0788E690E0DF91CF911F910F91FF90F4
:101CB000EF90DF90CF900C94F407C430C4F620E18D
:101CC000C202C00111248F589F4FC9CFDF91CF911D
:101CD0001F910F91FF90EF90DF90CF900895CF93D9
:101CE000C82F60E080E00E94AC0720E1C29FC001E5
:101CF00011248F5F9E4F0E94C10D0E942E0860E04C
:101D00008FE00E94AC0764E08CE696E00E94E40756
:101D1000E09120050E2E000CFF0BEF5DFD4F808142
:101D200087FF10C061E080E00E94AC0781EF90E087
:101D30000E94F40762E08CE696E00E94E407CF91EF
:101D40000C942E08882351F061E080E00E94AC07DB
:101D500087EF90E00E94F40766E0EDCF8C2FCF91E3
:101D60000C94EE0D0F931F93CF93DF930E94C50C3D
:101D7000C82F8F3F09F462C090E08C01065C194FB8
:101D8000F80122A14FE727FD40E0FC01EC5FFE4F88
:101D900024A52130B9F18CF4222319F10E94100DF1
:101DA00080912305882309F449C080912005DF91A3
:101DB000CF911F910F910C946F0E223051F123306F
:101DC00069F7EC01C15EDE4F6881809104010E94D9
:101DD0006E090E94100D6881809104010E945309D0
:101DE000DDCF638D809104010E94E708F80182A194
:101DF000682F6F7787FF04C08C2F0E947506CECFA7
:101E00006068FACF4FE7638D809104010E94E70874
:101E1000C5CFD38DC0910401C15480910101C81771
:101E200039F06C2F8AE795E00E947A05C093010192
:101E3000DF778D2F90E00E94C705B0CFDF91CF9163
:101E40001F910F9108951F920F920FB60F921124B8
:101E50004F935F936F937F938F939F934091270549
:101E6000509128056091290570912A0580912605D9
:101E700090912505943019F510922505909125052E
:101E800090FD21C08A598D3728F08D574F5F5F4FE5
:101E90006F4F7F4F80932605409327055093280569
:101EA0006093290570932A059F918F917F916F917F
:101EB0005F914F910F900FBE0F901F9018959F5FED
:101EC00090932505DBCF8959DECF1F920F920FB675
:101ED0000F9211242F933F934F935F936F937F93B0
:101EE0008F939F93AF93BF93EF93FF938AE795E010
:101EF0000E945805FF91EF91BF91AF919F918F91F3
:101F00007F916F915F914F913F912F910F900FBEF5
:101F10000F901F9018951F920F920FB60F921124D9
:101F20002F938F939F93EF93FF93E0918A05F09106
:101F30008B058081E0919005F091910582FD1BC099
:101F40009081809193058F5F8F7320919405821704
:101F500041F0E0919305F0E0E658FA4F958F8093B9
:101F60009305FF91EF919F918F912F910F900FBE4D
:101F70000F901F9018958081F4CF1F920F920FB68B
:101F80000F9211242F933F934F935F936F937F93FF
:101F90008F939F93AF93BF93EF93FF938091B9007B
:101FA000887F803609F44AC0F0F5883209F4A7C06A
:101FB00018F5803109F49BC0B8F4882309F405C1F1
:101FC000883009F494C0FF91EF91BF91AF919F9138
:101FD0008F917F916F915F914F913F912F910F90D2
:101FE0000FBE0F901F901895883109F488C0803279
:101FF00051F78093530514C0803409F4A5C040F410
:102000008033B9F38833F9F68093530585ECBCC06F
:10201000803509F489C0883509F49EC0883499F662
:102020000E94ED05D0CF883909F494C038F588377F
:1020300029F050F4883611F0803729F683E0809338
:1020400055051092180557C0883809F483C08039A7
:1020500019F0803809F0B7CF80911805803208F068
:1020600079C0E091180581E08E0F8093180580916A
:10207000BB00F0E0E850FB4F80833DC0803B39F06F
:10208000E0F4803A09F485C0883A09F09CCF84E0F6
:10209000809355051092F7041092F604E0911B0509
:1020A000F0911C0509958091F60481110FC081E023
:1020B0008093F6041092D60409C0803C09F4A6CFA0
:1020C000883C09F4A3CF883B09F07DCFE091F70469
:1020D00081E08E0F8093F704F0E0EA52FB4F80819D
:1020E0008093BB009091F7048091F60431C08091F9
:1020F0004E058093BB0085EC8093BC0064CF90912B
:10210000500580914F059817B8F580915105909131
:102110005205E091500521E02E0F20935005E80F65
:10212000F92FF11D8081E5CF2091510530915205A5
:10213000E091500581E08E0F809350058091BB00A7
:10214000E20FF32FF11D80839091500580914F0590
:10215000981788F285E8D0CF20915105309152052B
:10216000E091500581E08E0F809350058091BB0077
:10217000E20FF32FF11D808380915405811150CF20
:1021800081E080934D0584EA8093BC001092550550
:102190001ACF85EC8093BC001092550580911805EC
:1021A000803230F4E0911805F0E0E850FB4F1082E7
:1021B0006091180570E0E0911905F0911A0588EF1B
:1021C00094E0099510921805FECE1092530528CF81
:1021D0001F920F920FB60F9211242F933F934F939C
:1021E0005F936F937F938F939F93AF93BF93EF937F
:1021F000FF93E0910201F09103010995FF91EF91A6
:10220000BF91AF919F918F917F916F915F914F910E
:102210003F912F910F900FBE0F901F901895EF9246
:10222000FF920F931F93CF93DF93EC017B011982F1
:1022300018821B821A821D821C82FB0101900020E1
:10224000E9F731978F01061B170BB8016F5F7F4FBE
:1022500090E080E00E94D81A0097B9F099838883B3
:102260001B830A832C813D81232B11F4FC011082F6
:102270001D830C83B70188819981DF91CF911F91D4
:102280000F91FF90EF900C949E1B8881998100978D
:1022900011F00E944F1A198218821D821C821B8223
:1022A0001A82DF91CF911F910F91FF90EF900895C7
:1022B00010927D0510927C0588EE93E0A0E0B0E0DE
:1022C00080937E0590937F05A0938005B093810550
:1022D0002AE632E030937B0520937A0525EC30E046
:1022E000309387052093860524EC30E030938905F0
:1022F0002093880520EC30E030938B0520938A05ED
:1023000021EC30E030938D0520938C0522EC30E0F9
:1023100030938F0520938E0526EC30E030939105A5
:1023200020939005109293051092940510929505B4
:102330001092960510921A061092190680931B06A9
:1023400090931C06A0931D06B0931E068CE792E0A6
:10235000909318068093170666E972E08DEB96E07D
:102360000E940F116FE972E083EC96E00E940F115A
:1023700010926F0610926E068EE892E090936D06B2
:1023800080936C0688E0E7E5F1E0A0E7B6E0019015
:102390000D928A95E1F788E0EFE5F1E0A8E7B6E075
:1023A00001900D928A95E1F788E0E7E6F1E0A0E878
:1023B000B6E001900D928A95E1F788E0EFE6F1E052
:1023C000A8E8B6E001900D928A95E1F788E0E7E78A
:1023D000F1E0A0E9B6E001900D928A95E1F788E07E
:1023E000EFE7F1E0A8E9B6E001900D928A95E1F7F8
:1023F00088E0E7E8F1E0A0EAB6E001900D928A9566
:10240000E1F788E0EFE8F1E0A8EAB6E001900D928C
:102410008A95E1F783E08093B8061092BA0610928D
:10242000B9061092BC061092BB0690E29093B006DB
:1024300020E12093B50632E03093B60610923A06BA
:1024400041E040933B0630933C0680933D0610925A
:102450003E0684E080933F0638E0309340063CE03F
:10246000309341061092420620934306909344060F
:1024700090E39093450690E89093460690E49093FD
:102480004706109254061092530610925606109268
:10249000550610925706109258061092590610923F
:1024A0005A0610925B0692E6909352068093350688
:1024B0008AE08093360684E090E09093380680931B
:1024C00037061092390688E093E0909324068093B3
:1024D0002306E5E2F6E011921382178286E0E932E4
:1024E000F807C9F70C946E03CF93DF9300D000D0A8
:1024F000CDB7DEB7789484B5836084BD85B583603D
:1025000085BD80916E00816080936E0092E0909313
:1025100081008091810081608093810080918000A2
:102520008160809380008091B10084608093B100CD
:102530008091B00081608093B00087E880937A003A
:102540001092C100E0918A05F0918B059083E09193
:102550008605F09187051082E0918805F091890544
:102560008FE4808310929205E0918E05F0918F05A3
:1025700086E08083E0918C05F0918D0580818869EB
:102580008083E0918C05F0918D0580818F7D808323
:10259000EBE8F5E02491E4E7F5E08491882399F0F5
:1025A00090E0880F991FFC01EF5AFA4FA591B49162
:1025B000FC01E859FA4F859194918FB7F894EC910A
:1025C000E22BEC938FBFACED8A2EA1E09A2EB4E003
:1025D000CB2EB1E0DB2E00E110E0C8010E94ED1728
:1025E000F82E282F30E0D4018D914D01082E000CDB
:1025F000990B2817390754F0F801E957FE4F8081ED
:10260000082E000C990B821793075CF4F601F080FA
:10261000C8010E94ED17F81621F06F2DC8010E9425
:10262000F517D601FD926D010F5F1F4F053511059E
:10263000A1F6809141010E9491086091440180912E
:1026400042010E942F0C82EC94E09093030180934E
:10265000020181E080936F008091410118160CF017
:10266000D0C288E893E1909387008093860081E14F
:102670008093810080E1809381001092800088E83F
:1026800093E1909387008093860011E1109381007D
:1026900040E06BE7809104010E94E70840E06BE7AF
:1026A000809105010E94E70840E06BE780910601F8
:1026B0000E94E70810922C0510922B0510925705E6
:1026C000109279051092550501E00093540510927F
:1026D0004D0561E082E10E94D20361E083E10E9446
:1026E000D2038091B9008E7F8093B9008091B900A8
:1026F0008D7F8093B9008CE58093B80085E480934A
:10270000BC0088ED94E090931C0580931B0589ED37
:1027100094E090931A05809319051093B80062E332
:1027200070E080E090E00E9484048091B0060E94F6
:10273000640381E00E9409038111C4C088E1809391
:10274000B10612E01093B40686E089831A82809164
:10275000B0060E94640342E050E0BE016F5F7F4F0D
:1027600087E196E00E9448060E94610387E0898322
:10277000F8EFFF2EFA828091B0060E94640342E0D7
:1027800050E0BE016F5F7F4F87E196E00E944806F0
:102790000E94610319831A82FB828091B0060E9415
:1027A000640343E050E0BE016F5F7F4F87E196E036
:1027B0000E9448060E94610361E070E080E090E0C2
:1027C0000E94840460E776E080E00E940F0868E7DA
:1027D00076E081E00E940F0860E876E082E00E94E7
:1027E0000F0868E876E083E00E940F0860E976E071
:1027F00084E00E940F0868E976E085E00E940F08F7
:1028000060EA76E086E00E940F0868EA76E087E0FA
:102810000E940F086091B106606240E08CE696E08D
:102820000E94550784E08093B20640E06CE08CE69D
:1028300096E00E9455071093B30640E066E08CE6F0
:1028400096E00E94550740E061E08CE696E00E9429
:10285000550762E070E080E090E00E9484041092EE
:10286000B70640E062E08CE696E00E94550762E021
:1028700070E080E090E00E9484041092B70610920D
:102880001F0588E080931E051092200510921D05FB
:1028900060E080E00E94AC074CE050E067EA72E044
:1028A0008CE696E00E94DA0461E080E00E94AC07CA
:1028B0008BE595E00E94F4070093230580912005A5
:1028C0000E946F0E83E00E94730882E60E946403F8
:1028D00081E00E94090381116EC081E0809321058F
:1028E00082ED94E0909349068093480682E18093BC
:1028F0004A0610924B0680E180934C0610924D06DA
:1029000088E280934E06809152060E94640345E05F
:1029100050E06AE476E087E196E00E9448060E9473
:10292000610370E060E080E00E94410770E060E0D9
:1029300081E00E94410720913D06ECE5F6E08CE63F
:1029400096E021938E179F07E1F760913B068091F7
:102950004006682B80914706682B82E00E9475062E
:1029600060913C0680914006682B80914606682B5A
:1029700083E00E94750669E884E00E947506609114
:102980003B0680914106682B80914406682B80911C
:102990004706682B88E00E94750660913C0680918E
:1029A0004606682B8DE00E9475068DE29CE09093B0
:1029B00049068093480686E099E090932406809328
:1029C00023060E946E0360E1E62E67E2F62E78E8A9
:1029D000C72E73E1D72EE8E0BE2E01E180912405D9
:1029E000882309F4D8C1809124058150809324055F
:1029F0000E94A10A80912305882309F4BEC086B1F4
:102A000090E0959587959595879583709091B806F8
:102A100030E020E0891789F030E020E091110BC010
:102A200021E030E0823039F0813011F030E020E0F8
:102A30003195219531098093B80680912005482F62
:102A4000082E000C550BFA01EF5DFD4F908191119E
:102A500039C021153105B1F1FA01EC5FFE4F9081CB
:102A6000B901690F711D97FD7A95DA01A452BE4F25
:102A70001C91A12F012E000CBB0B6A177B070CF0D9
:102A8000C3C010830E94EE0D809120058D3371F438
:102A900010914101812F0E94910811160CF0C4C0C1
:102AA000D0928700C092860000938100809120051B
:102AB0008E3311F0803431F46091440180914201F1
:102AC0000E942F0C80912205811157C00E94280D71
:102AD000882309F452C0E09120050E2E000CFF0B54
:102AE000EF5DFD4F108181FF1AC04EEE842E42E053
:102AF000942E8091200590911F0598170CF099C095
:102B0000815080932005809120050E946F0EC401A2
:102B10000E944C0D3AEF832E912C8111EACF82FF57
:102B20001AC02EEE822E22E0922E809120059091E6
:102B30001E0589170CF080C08F5F8093200580915F
:102B400020050E946F0EC4010E944C0D9AEF892E41
:102B5000912C8111EACF80FF10C017FF70C08091C7
:102B60001D058093200510921F05B0921E050E943E
:102B70006F0E90E080E00E944C0D8091210588232B
:102B8000A1F080912205843011F40E94FC0680910E
:102B90002205883019F480E00E94B20E809122054F
:102BA0008C3019F481E00E94B20E809122058430AD
:102BB00009F014CF80917A00806480937A00E091CC
:102BC0003906F0E080913706909138060197ED5D67
:102BD000F94F2281289F8001299F100D1124928591
:102BE000911168C080913506EDE2F6E0912C8917CD
:102BF00009F4AFC02191222311F0992493949F5F8F
:102C0000F6CF80E197E22FCD49565E4FDA014C9125
:102C1000A42F042E000CBB0BA617B70714F4408397
:102C200031CF290F20832ECFF0928700E0928600CB
:102C30003BCF80911E0565CF80911F057ECF809090
:102C400020051123E1F080921D0510932005812FAE
:102C50000E946F0E10931F05E12F012E000CFF0B39
:102C6000EF5DFD4F812F153418F010931E0581CFB5
:102C700091911F5F97FFF6CF80931E057ACF082CA6
:102C8000000C9908F401EC5FFE4F1081B0E18B0E4F
:102C9000911CC4010E94ED17181721F0612FC40187
:102CA0000E94F517809120050E946F0E81E00E941E
:102CB00073085FCF9150928760E082E00E94D20358
:102CC0009924939480917A0086FDFCCF80917900BD
:102CD000800F912F911D60913706709138060E94E8
:102CE000551820913906E22FF0E0ED5DF94F62832F
:102CF0008681AB01481B5109CA0157FF03C091955A
:102D000081959109029774F18091360682876683D6
:102D10003DE4369FC001379F900D112464E670E0BA
:102D20000E9455188B016038710514F00FE710E010
:102D300086858017C9F0E0912306F0912406602F64
:102D4000822F0995E0913906F0E0ED5DF94F068795
:102D50000BC0911005C061E082E00E94D203B2CFA7
:102D6000912CB0CF9110D3CF419A0000419880911F
:102D700039068F5F8093390690913506891708F4DC
:102D80002CCE10923906409A419A00004198409802
:102D90000000000022CE80E090E0892B09F41DCED7
:102DA0000E944405882309F418CE0E94000015CE25
:102DB0008091C3069091C406009711F00E944F1AAB
:102DC0008091BD069091BE06009711F00C944F1AA9
:102DD0000895FB01DC0102C005900D924150504066
:102DE000D8F70895E89409C097FB3EF49095809534
:102DF000709561957F4F8F4F9F4F9923A9F0F92FC1
:102E000096E9BB279395F695879577956795B7953E
:102E1000F111F8CFFAF4BB0F11F460FF1BC06F5F24
:102E20007F4F8F4F9F4F16C0882311F096E911C036
:102E3000772321F09EE8872F762F05C0662371F057
:102E400096E8862F70E060E02AF09A95660F771F6B
:102E5000881FDAF7880F9695879597F908950E944D
:102E600042170C94B3170E94A51738F00E94AC17B4
:102E700020F0952311F00C949C170C94A2171124A8
:102E80000C94E7170E94C41770F3959FC1F3950F38
:102E900050E0551F629FF001729FBB27F00DB11DDE
:102EA000639FAA27F00DB11DAA1F649F6627B00D6E
:102EB000A11D661F829F2227B00DA11D621F739F57
:102EC000B00DA11D621F839FA00D611D221F749F65
:102ED0003327A00D611D231F849F600D211D822FAC
:102EE000762F6A2F11249F5750409AF0F1F08823D3
:102EF0004AF0EE0FFF1FBB1F661F771F881F915000
:102F00005040A9F79E3F510580F00C949C170C94FB
:102F1000E7175F3FE4F3983ED4F38695779567957E
:102F2000B795F795E7959F5FC1F7FE2B880F911D29
:102F30009695879597F9089597F99F6780E870E0CF
:102F400060E008959FEF80EC089500240A9416161F
:102F5000170618060906089500240A941216130687
:102F6000140605060895092E0394000C11F4882315
:102F700052F0BB0F40F4BF2B11F460FF04C06F5F31
:102F80007F4F8F4F9F4F089557FD9058440F551F07
:102F900059F05F3F71F04795880F97FB991F61F0DB
:102FA0009F3F79F087950895121613061406551F52
:102FB000F2CF4695F1DF08C0161617061806991FBE
:102FC000F1CF86957105610508940895E894BB27B3
:102FD00066277727CB0197F90895F999FECF92BD1F
:102FE00081BDF89A992780B50895262FF999FECFCB
:102FF0001FBA92BD81BD20BD0FB6F894FA9AF99A16
:103000000FBE019608952F923F924F925F926F925A
:103010007F928F929F92AF92BF92CF92DF92EF9268
:10302000FF920F931F93CF93DF93CDB7DEB7CA1BE9
:10303000DB0B0FB6F894DEBF0FBECDBF09942A8814
:10304000398848885F846E847D848C849B84AA84BC
:10305000B984C884DF80EE80FD800C811B81AA8149
:10306000B981CE0FD11D0FB6F894DEBF0FBECDBF14
:10307000ED010895A29FB001B39FC001A39F700D01
:10308000811D1124911DB29F700D811D1124911D70
:103090000895991B79E004C0991F961708F0961BB4
:1030A000881F7A95C9F78095089597FB072E16F427
:1030B000009407D077FD09D00E948B1807FC05D03B
:1030C0003EF4909581959F4F0895709561957F4F3F
:1030D0000895A1E21A2EAA1BBB1BFD010DC0AA1F59
:1030E000BB1FEE1FFF1FA217B307E407F50720F071
:1030F000A21BB30BE40BF50B661F771F881F991FEC
:103100001A9469F760957095809590959B01AC0134
:10311000BD01CF010895AA1BBB1B51E107C0AA1F27
:10312000BB1FA617B70710F0A61BB70B881F991F68
:103130005A95A9F780959095BC01CD010895EE0FA1
:10314000FF1F0590F491E02D09945058BB27AA2742
:103150000E94BD180C94B3170E94A51738F00E9466
:10316000AC1720F039F49F3F19F426F40C94A21701
:103170000EF4E095E7FB0C949C17E92F0E94C4170E
:1031800058F3BA17620773078407950720F079F49C
:10319000A6F50C94E6170EF4E0950B2EBA2FA02D91
:1031A0000B01B90190010C01CA01A0011124FF27F4
:1031B000591B99F0593F50F4503E68F11A16F040EF
:1031C000A22F232F342F4427585FF3CF46953795EE
:1031D0002795A795F0405395C9F77EF41F16BA0BB3
:1031E000620B730B840BBAF09150A1F0FF0FBB1F61
:1031F000661F771F881FC2F70EC0BA0F621F731FAA
:10320000841F48F4879577956795B795F7959E3F06
:1032100008F0B0CF9395880F08F09927EE0F979597
:10322000879508950E9426190C94B3170E94AC1735
:1032300058F00E94A51740F029F45F3F29F00C9444
:103240009C1751110C94E7170C94A2170E94C417F5
:1032500068F39923B1F3552391F3951B550BBB27C5
:10326000AA2762177307840738F09F5F5F4F220F0A
:10327000331F441FAA1FA9F335D00E2E3AF0E0E801
:1032800032D091505040E695001CCAF72BD0FE2F4B
:1032900029D0660F771F881FBB1F261737074807DF
:1032A000AB07B0E809F0BB0B802DBF01FF27935897
:1032B0005F4F3AF09E3F510578F00C949C170C94A8
:1032C000E7175F3FE4F3983ED4F3869577956795CB
:1032D000B795F7959F5FC9F7880F911D96958795CC
:1032E00097F90895E1E0660F771F881FBB1F6217EB
:1032F00073078407BA0720F0621B730B840BBA0BA9
:10330000EE1F88F7E09508950E94CC1788F09F572C
:1033100098F0B92F9927B751B0F0E1F0660F771FF9
:10332000881F991F1AF0BA95C9F714C0B13091F0EF
:103330000E94E617B1E008950C94E617672F782FE6
:103340008827B85F39F0B93FCCF3869577956795B4
:10335000B395D9F73EF490958095709561957F4F20
:103360008F4F9F4F08950F931F93CF93DF9382301A
:10337000910510F482E090E0E091CB06F091CC064C
:1033800030E020E0B0E0A0E0309799F4211531055D
:1033900009F44AC0281B390B24303105D8F58A813D
:1033A0009B816115710589F1FB0193838283FE0185
:1033B00011C0408151810281138148175907E0F003
:1033C0004817590799F4109761F012960C931297C9
:1033D00013961C933296CF01DF91CF911F910F91DD
:1033E00008950093CB061093CC06F4CF2115310538
:1033F00051F04217530738F0A901DB019A01BD01D2
:10340000DF01F801C1CFEF01F9CF9093CC06809393
:10341000CB06CDCFFE01E20FF31F81939193225093
:10342000310939832883D7CF2091C9063091CA0644
:10343000232B41F420914B0130914C013093CA066B
:103440002093C9062091490130914A012115310587
:1034500041F42DB73EB740914D0150914E01241BD0
:10346000350BE091C906F091CA06E217F307A0F404
:103470002E1B3F0B2817390778F0AC014E5F5F4FCA
:103480002417350748F04E0F5F1F5093CA0640932C
:10349000C906819391939FCFF0E0E0E09CCFCF935A
:1034A000DF930097E9F0FC01329713821282A0911A
:1034B000CB06B091CC06ED0130E020E01097A1F4EE
:1034C00020813181820F931F2091C9063091CA0655
:1034D0002817390709F061C0F093CA06E093C906BE
:1034E000DF91CF910895EA01CE17DF07E8F54A8111
:1034F0005B819E0141155105B1F7E901FB83EA8328
:1035000049915991C40FD51FEC17FD0761F48081D3
:1035100091810296840F951FE901998388838281A6
:1035200093819B838A83F0E0E0E012968D919C91D9
:1035300013970097B9F52D913C911197CD01029603
:10354000820F931F2091C9063091CA0628173907A8
:1035500039F6309751F51092CC061092CB06B09305
:10356000CA06A093C906BCCFD383C28340815181D0
:10357000840F951FC817D90761F44E5F5F4F88818C
:103580009981480F591F518340838A819B8193837E
:1035900082832115310509F0B0CFF093CC06E0937A
:1035A000CB069ECFFD01DC01C0CF13821282D7CFA4
:1035B000B0E0A0E0EEEDFAE10C9405188C01009764
:1035C00051F4CB010E94B3198C01C801CDB7DEB70D
:1035D000E0E10C942118FC01E60FF71F9C0122503A
:1035E0003109E217F30708F49DC0D901CD91DC91B0
:1035F0001197C617D70798F0C530D10530F3CE0123
:1036000004978617970708F3C61BD70B2297C19319
:10361000D1936D937C93CF010E944F1AD6CF5B015B
:10362000AC1ABD0A4C018C0E9D1EA091CB06B09128
:10363000CC06512C412CF12CE12C109731F58091C6
:10364000C9069091CA068815990509F05CC046160E
:10365000570608F058C08091490190914A0100979F
:1036600041F48DB79EB740914D0150914E01841B9E
:10367000950BE817F90708F055C0F093CA06E093D8
:10368000C906F90171836083A0CF8D919C91119738
:1036900012966C90129713967C901397A815B90503
:1036A00059F56C0142E0C40ED11CCA14DB0420F1B0
:1036B000AC014A195B09DA011296159780F0628213
:1036C000738251834083D9016D937C93E114F1049B
:1036D00071F0D7011396FC93EE93129776CF229652
:1036E0008C0F9D1FF90191838083F301EFCFF0933D
:1036F000CC06E093CB0669CF4816590608F42C0196
:103700007D01D3019ACFCB010E94B3197C010097B0
:1037100049F0AE01B8010E94951BC8010E944F1AE2
:10372000870153CF10E000E050CFFB01DC0102C065
:1037300001900D9241505040D8F70895FB01DC01F3
:1037400001900D920020E1F7089512E0CDEDD2E056
:1037500004C0FE010E949F182196CE3DD107C9F7F3
:04376000F894FFCF0B
:10376400FFFF7208010203FFFF0000000000070AC8
:103774000B5BFFFFFFFFFFFFFFFFFFFFFFFF0014D7
:1037840015161718191A1B1C1D1E1F202122230091
:103794000000000000000000000000000000000025
:1037A40000010A050C242424000000CD068000003A
:1037B40000400014005400040E1504040404000422
:1037C400040404150E040002060E1E0E0602000276
:1037D400040A140A040200040E1F001F0E0400044D
:1037E4000A1500150A0400080C0E0F0E0C08000838
:1037F400040A040A0408001010101F1F000000002F
:10380400007F7F7F7F7F7F7F7F7F7F7F7F7F7F7F43
:103814007F007F7F7F7F7F7F7F7F7F7F7F7F7F7F33
:103824007F7F00030303030303030303030303036F
:10383400030303000328281E3C3C3C00010101FF54
:10384400FF0000000000FFFFFFFFFFFFFFFFFFFF7F
:10385400FFFFFFFFFFFF00FFFFFFFFFFFFFFFFFF73
:10386400FFFFFFFFFFFFFF0000000000000000005B
:10387400000000000000000000000101010C0C0C1D
:103884000000000000003D081B2C000000000000A8
:103894000000000000000000000000FF0000000025
:1038A400000000000000000000000000FF00000015
:1038B40000000000000000000000000000FF000005
:1038C4000000000000FF000000007A05DA0407058C
:1038D400CC05380516052A050000000040084806F6
:1038E4006F081E0641062E061F0600000000E407AE
:1038F400DA046F08EC0546434B2054524D50004601
:10390400434B20414644005363616E4374726C2000
:04391400302E390018
:00000001FF
