:100000000C9479030C94A1030C94A1030C94A10308
:100010000C94A1030C94A1030C94A1030C94A103D0
:100020000C94A1030C94A1030C94A1030C94A103C0
:100030000C94A1030C94EB140C94A1030C94A10355
:100040000C9426130C94A1030C948E130C94681337
:100050000C94A1030C94A1030C94A1030C94A10390
:100060000C94C0130C94A10328756E7573656429F4
:1000700000286E6F6E6529003C454E5445523E0087
:100080003C53455454494E47533E003C455849540F
:100090003E0028696E76616C696429005363616E65
:1000A00031362F36310000000000000046617461D7
:1000B000725363616E312D36310000004661746108
:1000C000725363616E3200000000000050756C7363
:1000D0006520363130355746000000004E6F6E65A2
:1000E00000000000000000000000000028696E769B
:1000F000616C6964290053656E6420434320566136
:100100006C000000000053656E6420434320457678
:1001100074000000000053656E6420507267204335
:1001200068000000000053656E64204E6F74650027
:100130000000000000005570706572204368616E19
:100140006E656C000000009204000001104C6F7797
:100150006572204368616E6E656C00000001930457
:1001600000000110506564616C204368616E6E652B
:100170006C00000002940400000110506974636870
:10018000776865656C20506F74000003950400006B
:10019000FF7F4D6F64756C6174696F6E20506F7472
:1001A00000000496040000FF7F4B6579626F617266
:1001B0006400000000000000000500000000FFFFD8
:1001C000506F742041737369676E00000000000077
:1001D0000600000000FFFF427574746F6E204173CB
:1001E0007369676E0000000700000000FFFF4275A2
:1001F00074746F6E204D6F6465000000000008008D
:10020000000000FFFF456E640000000000000000D9
:1002100000000000000900000000FFFF506F742084
:10022000312043430000000000000000069C040051
:1002300000FF7F506F742032204343000000000015
:10024000000000069D040000FF7F506F74203320E3
:1002500043430000000000000000069E040000FF71
:100260007F506F74203420434300000000000000E2
:1002700000069F040000FF7F506F7420434300007E
:1002800000000000000000000600000000FFFF4228
:10029000746E20312043432F507267000000000726
:1002A000A1040000FF7F42746E20322043432F5090
:1002B00072670000000007A2040000FF7F42746E16
:1002C00020332043432F5072670000000007A3042F
:1002D0000000FF7F42746E20342043432F5072672A
:1002E0000000000007A4040000FF7F42746E203568
:1002F0002043432F5072670000000007A504000050
:10030000FF7F42746E20362043432F5072670000F7
:10031000000007A6040000FF7F42746E20372043D0
:10032000432F5072670000000007A7040000FF7F02
:1003300042746E20382043432F5072670000000043
:1003400007A8040000FF7F42746E20392043432F2A
:100350005072670000000007A9040000FF7F42748C
:100360006E2031302043432F50726700000007AAEF
:10037000040000FF7F42746E2031312043432F5030
:10038000726700000007AB040000FF7F42746E201C
:1003900031322043432F50726700000007AC040045
:1003A00000FF7F42746E2031332043432F50726729
:1003B00000000007AD040000FF7F42746E2031345E
:1003C0002043432F50726700000007AE040000FF77
:1003D0007F42746E2031352043432F5072670000F6
:1003E0000007AF040000FF7F42746E2031362043C7
:1003F000432F50726700000007B0040000FF7F42E7
:10040000746E20434300000000000000000000075D
:1004100000000000FFFF42746E2031204D6F6465C4
:1004200000000000000008B2048911000342746E4D
:100430002032204D6F646500000000000008B30406
:100440008911000342746E2033204D6F64650000F3
:100450000000000008B4048911000342746E2034C7
:10046000204D6F646500000000000008B50489118C
:10047000000342746E2035204D6F6465000000005B
:10048000000008B6048911000342746E2036204D26
:100490006F646500000000000008B70489110003C4
:1004A00042746E2037204D6F64650000000000002C
:1004B00008B8048911000342746E2038204D6F641F
:1004C0006500000000000008B904891100034274AF
:1004D0006E2039204D6F646500000000000008BAEE
:1004E000048911000342746E203130204D6F646521
:1004F000000000000008BB048911000342746E2054
:100500003131204D6F6465000000000008BC048993
:1005100011000342746E203132204D6F646500007B
:1005200000000008BD048911000342746E203133BD
:10053000204D6F6465000000000008BE04891100B2
:100540000342746E203134204D6F6465000000005A
:100550000008BF048911000342746E203135204D1C
:100560006F6465000000000008C0048911000342A8
:10057000746E203136204D6F646500000000000865
:10058000C1048911000342746E204D6F6465000040
:100590000000000000000800000000FFFF4B626444
:1005A0002044726976657200000000000005C304F3
:1005B000E511000456656C6F63697479204D696EAE
:1005C0000000000005C404F20F011E56656C6F6345
:1005D000697479204D617841646A0005C5040000A2
:1005E000001456656C6F6369747920536C6F706585
:1005F000000005C604F20F01285570706572204294
:1006000061736500000000000005C70400000C3C99
:100610004C6F776572204261736500000000000036
:1006200005C80400000C3C506564616C2042617395
:100630006500000000000005C90400000C3C4B658B
:1006400079626F617264000000000000000005CA5A
:10065000040000FFFF00000000240027002A0043E0
:100660002E4D6579657220322F3230323600536359
:10067000616E4374726C2076302E31300072657377
:10068000657420746F2064656661756C74730045D1
:100690004550524F4D20696E76616C69642C0000A4
:1006A000000000250028002B0004040404040404B6
:1006B0000402020202020203030303030302020311
:1006C00001020408102040800102040810200102E9
:1006D00004081020408040000000090003020000D0
:1006E00004050800000000000000000000005B1589
:1006F000741A11241FBECFEFD8E0DEBFCDBF26E0B5
:10070000A0EDB1E001C01D92AA38B207E1F711E0F7
:10071000A0E0B1E0ECE9FEE302C005900D92A03D3F
:10072000B107D9F713E0C8E7D3E004C02197FE0171
:100730000E943B1CC737D107C9F70E9498160C943A
:10074000411F0C9400000895282F9091230581E00B
:10075000913208F042C08091FF048111FCCF80915A
:10076000220532E03093FF042093FE042FEF209304
:10077000FD0422E035E03093FC042093FB0410924A
:10078000FA049093F9041092F8049091F804880FF9
:10079000892B8093F8048091F704813029F5109219
:1007A000F7048091F8048093BB008091BC0083FD26
:1007B000F8CF85EC8093BC008091FF048230E1F398
:1007C0008091FD048F3F91F08091FD04803281F093
:1007D0008091FD04803371F084E010920105109245
:1007E000230510920005089585EEE4CF80E0F5CF53
:1007F00082E0F3CF83E0F1CF81E00C94A40391E099
:100800009093000580932205109201051092230514
:10081000089587E680937C0083E880937A00809136
:100820007A00806480937A00409880E09091EB0594
:10083000891728F4419A000041988F5FF7CF809183
:100840007A0086FDFCCF409A419A0000419840987A
:10085000000000001092EF050895982F8091FF048A
:100860008111FCCF81E08093FF048093FE042FEF81
:100870002093FD0427ED34E03093FC042093FB0427
:100880001092FA042FEF260F2093F9048093F804B6
:100890008091F804990F982B9093F8048091F704B5
:1008A0008130C9F41092F7048091F8048093BB0062
:1008B0008091BC0083FDF8CF85EC8093BC008091D3
:1008C000FF048130E1F38091FA04861710F46091FF
:1008D000FA04862F089585EEF0CF90E0FC01E952EE
:1008E000F94F2491FC01E054F94F3491FC01E75594
:1008F000F94FE491EE23C9F0222339F0243001F1BD
:10090000A8F4223069F1233079F1F0E0EE0FFF1FF7
:10091000E156F94FA591B4918FB7F894EC9161111C
:1009200026C030953E233C938FBF0895283071F048
:10093000293091F0253049F7809180008F7D03C0E8
:10094000809180008F7780938000DFCF8091B0000E
:100950008F778093B000D9CF8091B0008F7DF9CF91
:1009600084B58F7784BDD1CF84B58F7DFBCF3E2BEF
:10097000DACF000000000000000000008130910587
:1009800051F09C01220F331F220F331F0797820F54
:10099000931F0197F1F70895CF92DF92EF92FF92A4
:1009A0006FB7F8948091D1049091D204A091D304B0
:1009B000B091D4045091D00426B535B3432F417083
:1009C00030FF04C041E02F3F09F440E06FBF6C01ED
:1009D0007D0137E0CC0CDD1CEE1CFF1C3A95D1F7F5
:1009E000C50ED11CE11CF11CC81AD90AEA0AFB0A7F
:1009F000880F991FAA1FBB1FC81AD90AEA0AFB0A47
:100A000063E0CC0CDD1CEE1CFF1C6A95D1F730E0D6
:100A1000A3E3B3E00E94D61B672F782F892F992775
:100A20006C0D7D1D8E1D9F1D442321F06D5C7C4F40
:100A30008F4F9F4FFF90EF90DF90CF9008958F9250
:100A40009F92AF92BF92CF92DF92EF92FF924B01B3
:100A50005C010E94CC046B017C010E94CC046C19E7
:100A60007D098E099F09683E734081059105A8F3B1
:100A700021E0821A9108A108B10888EEC80E83E02F
:100A8000D81EE11CF11C81149104A104B10429F7C2
:100A9000FF90EF90DF90CF90BF90AF909F908F909E
:100AA00008952FB7F8946091D1047091D204809189
:100AB000D3049091D4042FBF08956AE070E080E0E1
:100AC00090E00C941F0562E070E080E090E00C94F0
:100AD0001F0508956AE070E080E090E00C941F0527
:100AE00008950895AF92BF92CF92DF92EF92FF9256
:100AF0000F931F93CF93DF936C017B018B01040F46
:100B0000151FEB015E01AE18BF08C017D10759F0E1
:100B10006991D601ED91FC910190F081E02DC60123
:100B20000995892B79F7C501DF91CF911F910F911D
:100B3000FF90EF90DF90CF90BF90AF900895FC01B1
:100B4000538D448D252F30E0842F90E0821B930B32
:100B5000541710F0CF96089501970895FC01918DD8
:100B6000828D981761F0A28DAE0FBF2FB11D5D96DB
:100B70008C91928D9F5F9F73928F90E008958FEF7D
:100B80009FEF0895FC01918D828D981731F0828D31
:100B9000E80FF11D858D90E008958FEF9FEF089588
:100BA000FC01918D228D892F90E0805C9F4F821BEC
:100BB00091098F739927089584E295E00E94D005EA
:100BC00021E0892B09F420E0822F089580E090E055
:100BD000892B29F00E94DC0581110C9400000895F6
:100BE000FC01A48DA80FB92FB11DA35ABF4F2C91A2
:100BF000848D90E001968F739927848FA689B78999
:100C00002C93A089B1898C91837080648C93938D8F
:100C1000848D981306C00288F389E02D80818F7D32
:100C200080830895EF92FF920F931F93CF93DF93EA
:100C3000EC0181E0888F9B8D8C8D98131AC0E88918
:100C4000F989808185FF15C09FB7F894EE89FF89E7
:100C50006083E889F98980818370806480839FBF85
:100C600081E090E0DF91CF911F910F91FF90EF9085
:100C70000895F62E0B8D10E00F5F1F4F0F73112795
:100C8000E02E8C8D8E110CC00FB607FCFACFE889D0
:100C9000F989808185FFF5CFCE010E94F005F1CF63
:100CA000EB8DEC0FFD2FF11DE35AFF4FF0829FB744
:100CB000F8940B8FEA89FB8980818062CFCF682FFF
:100CC00084E295E00C941206CF93DF93EC01888DBB
:100CD0008823B9F0AA89BB89E889F9898C9185FDB7
:100CE00003C0808186FD0DC00FB607FCF7CF8C9145
:100CF00085FFF2CF808185FFEDCFCE010E94F00508
:100D0000E9CFDF91CF910895089585ED8093BC00E0
:100D10008091BC0084FDFCCF1092FF0408952091C7
:100D20006904260F3327331F21323105ECF420915B
:100D3000FF04FC0190E080E0243069F082E0089537
:100D4000A09169042191AC01475B5B4FA40FB52FC3
:100D5000B11D2C930196861798F380916904680F52
:100D60006093690480E0089581E008950895E0911A
:100D7000D6048091D504E81730F4F0E0E952FB4F37
:100D8000808190E008958FEF9FEF08959091D604B1
:100D90008091D5042FEF3FEF981748F4E92FF0E04A
:100DA000E952FB4F208130E09F5F9093D604C90148
:100DB00008958091D5049091D604891B990B0895CC
:100DC000CF92DF92EF92FF920F931F93CF93DF9317
:100DD0007C01CB018A0120910005222389F0EB01DF
:100DE0006B01C40ED51ECC15DD0569F06991D701E4
:100DF000ED91FC910190F081E02DC7010995F3CFB1
:100E0000642F0E948F06C801DF91CF911F910F912F
:100E1000FF90EF90DF90CF900895E0EFF5E0855FD1
:100E2000880F868B678B708F868D0E94FF0343E04F
:100E300050E066E076E081EC95E00E94E0060C94DC
:100E4000FC030F931F93CF93DF93E82FF0E0E05163
:100E5000FA4F64A7782F7695769576958770982FB8
:100E6000990FC62FD0E09E0135952795359527958A
:100E70002370472F50E0E3E0F0E0092E02C0EE0FB0
:100E8000FF1F0A94E2F7E095F095440F551FDA0131
:100E9000A051BA4F5F960D911C919097E023F123DA
:100EA0009096FC93EE935F97862F807467FF38C00F
:100EB000882381F180911306882361F130E0092EA7
:100EC00002C0220F331F0A94E2F72E2B3F2B90967D
:100ED0003C932E935F97FA01E051FA4F378D20A192
:100EE00080910E06983068F57D5F770F7093060647
:100EF000309307060E94FF0342E050E066E076E090
:100F000081EC95E00E94E006DF91CF911F910F9157
:100F10000C94FC03DA01A051BA4F6370262FCECF98
:100F2000882321F0809113068111C8CFDA01A051E6
:100F3000BA4F84E0D595C7958A95E1F7C3702C2FF9
:100F4000BDCF770F795F7093060620930706D2CF47
:100F5000CF92DF92EF92FF920F931F93CF930E9455
:100F60005105009114061091150620911606309136
:100F700017066B017C01C01AD10AE20AF30A970135
:100F800086010E35114021053105F8F060931406F5
:100F900070931506809316069093170681E0909142
:100FA0001306911180E0809313060CE116E0C0E077
:100FB000F80161918F018091FD05862319F08C2F36
:100FC0000E942107CF5FC03199F7CF911F910F91F8
:100FD000FF90EF90DF90CF900895EF92FF921F93D4
:100FE000CF93DF9300D000D0CDB7DEB7142F22E02F
:100FF00029836A834B83875B9F4F7C01FC0180813F
:101000000E94FF0343E050E0BE016F5F7F4F81EC21
:1010100095E00E94E0060E94FC0383E08983812F13
:10102000896F8A83F70180810E94FF0342E050E0CC
:10103000BE016F5F7F4F81EC95E00E94E0060E9449
:10104000FC0385E090E00E94B904186F1A83F70151
:1010500080810E94FF0342E050E0BE016F5F7F4F3E
:1010600081EC95E00E94E0060E94FC0382E390E0A0
:101070000E94B9040F900F900F900F90DF91CF91C5
:101080001F91FF90EF9008951F93CF93DF93CDB7FB
:10109000DEB728970FB6F894DEBF0FBECDBF182F6E
:1010A00088E0EEE0F1E0DE01119601900D928A9564
:1010B000E1F780917906861708F46FEF70E0660F0C
:1010C000771F81E090E08C0F9D1F680F791FFB0157
:1010D0006081610F606840E08CE296E00E94ED075D
:1010E00010937C0628960FB6F894DEBF0FBECDBFD6
:1010F000DF91CF911F91089540E061E08CE296E08E
:101100000E94ED0762E070E080E090E00E941F0521
:1011100010927C060895CF93DF93EC0144E00E9487
:10112000ED07C05BDF4F88818F5F888381E090E0AF
:10113000DF91CF9108950F931F93CF93DF938C018D
:10114000D0E0C0E0F801EC0FFD1F6491662341F090
:101150008CE296E00E948B08892B11F02196F2CF49
:10116000CE01DF91CF911F910F910895CF93C09140
:101170007C0680917A06C81738F460E28CE296E02B
:101180000E948B08CF5FF5CF80937C06CF910895A6
:101190000F931F93CF93DF938B0198E0899FB0014A
:1011A0001124606440E08CE296E00E94ED07E801C3
:1011B000085F1F4F69918CE296E00E948B08C01770
:1011C000D107C1F7DF91CF911F910F910895CF9370
:1011D000DF931F92CDB7DEB76983209100052223EC
:1011E000F9F020912305203258F021E030E0FC0195
:1011F0003383228390E080E00F90DF91CF910895B8
:1012000080910105E82FF0E0EE5FFA4F998190831D
:101210008F5F809301058093230581E090E0ECCF00
:1012200061E0CE0101960E948F06F7CF682F81EC16
:1012300095E00C94E70890E080E0089508951F93EE
:10124000CF93DF93162FC42FDFEAD80F80910501CB
:10125000D81739F06D2F84E295E00E941206D093E2
:101260000501812F110F990B0E945F06CF778C2FFC
:1012700090E0DF91CF911F910C945F06CF93DF93A5
:10128000D62FCFE8C80F80910501C81739F06C2F11
:1012900084E295E00E941206C09305018D2FDD0FB8
:1012A000990B0E945F0680E490E0DF91CF910C944F
:1012B0005F06CF92DF92EF92FF920F931F93CF932F
:1012C000DF938091CE048F5F8093CE048091CC0415
:1012D0008F5F8093CC048091CC048F708093CC047A
:1012E0008091CD048823D9F086B190E095958795BB
:1012F00095958795837090917D06891781F09091DF
:101300007D06911102C0823099F090917D06809304
:101310007D06911104C0CFEFDFEF813069F0DF91DE
:10132000CF911F910F91FF90EF90DF90CF90089594
:1013300080937D06C1E0D0E00E94510500918006B7
:101340001091810620918206309183066B017C0109
:10135000C01AD10AE20AF30A970186010035110585
:101360002105310560F40832110521053105D0F45D
:1013700025E07E012E9DE0012F9DD00D11242091AE
:101380007E0630917F06C20FD31FD0937F06C09395
:101390007E06609380067093810680938206909308
:1013A0008306BDCFCC0FDD1FEACFCF93DF93D82FBD
:1013B000C0E060E082E00E946D0466E970E080E0D9
:1013C00090E00E941F0561E082E00E946D0466E9E2
:1013D00070E080E090E00E941F05CF5FDC13E9CF52
:1013E000DF91CF9108951F93CF93DF93462F90E025
:1013F00020919504022E000C330B8217930731F5D0
:1014000080E8689FE00111241091920411528091AC
:101410000501181739F0612F84E295E00E94120649
:101420001093050160E084E295E00E941206BE017F
:10143000660F672F661F770B71956F77772784E2AA
:1014400095E0DF91CF911F910C94120620919604A4
:10145000022E000C330B61E08217930731F08E5699
:101460009B4FFC01628567FD07C080919204DF916C
:10147000CF911F910C941F09DF91CF911F91089577
:10148000CF93DF9393E097B92CE028B98230B1F184
:10149000833009F445C0813009F05BC087E084B92E
:1014A00088E385B98EE38AB986E18BB9E2EFF3E090
:1014B000A2EBB3E011921D9224E0E233F207D1F7E0
:1014C0001092020110920101E2E7F3E0C2E3D3E0DF
:1014D000A2EFB2E022EB33E08FEF819389931D926C
:1014E0002E173F07D1F7E9EDF2E080E2819392E019
:1014F000E23FF907D9F7DF91CF91089594B988E3D6
:1015000085B986E38AB986E08BB9E2EFF3E0A2EB16
:10151000B3E011921D9284E0E233F807D1F7D0CF07
:1015200087E084B988E385B98EE38AB986E18BB90F
:10153000E2EFF3E0A2EBB3E011921D9294E0E2330C
:10154000F907D1F786E08093020183E080930101DF
:10155000BBCF94B988E385B986E08AB98EEF8BB9A1
:10156000E2EFF3E0A2EBB3E098E080E191938D939A
:1015700024E0E233F207D1F7A3CFCF93DF9367FDE7
:1015800019C0D62FCFE7C80F80910501C81739F0D1
:101590006C2F84E295E00E941206C09305018D2F06
:1015A000DD0F990B0E945F0680E490E0DF91CF9100
:1015B0000C945F06DF91CF9108951F93CF93DF9333
:1015C00067FD1CC0D42F162FCFE8C80F80910501EE
:1015D000C81739F06C2F84E295E00E941206C09380
:1015E0000501812F110F990B0E945F06DF778D2F68
:1015F00090E0DF91CF911F910C945F06DF91CF9126
:101600001F910895282F30E0D901AE54BC4F9C9112
:101610009130E1F078F0943008F04EC061114CC088
:1016200041114AC01C926091C804680F80919304D4
:101630000C94BD0A411102C06623F1F12E5C3C4FAF
:101640008FEFF901808381E08C9308956623F9F090
:1016500092E09C932E5C3C4FF90120814091C5049F
:10166000042E000C550B240F352F311D2F3F310553
:1016700019F010F02FEF30E02A523E4F6091C8046D
:10168000680FF9014081809193040C94DD0A442392
:1016900089F0F901EE5CFC4F9081992319F091508B
:1016A0009083089592E09C936091C804680F4091E4
:1016B000C404E9CF83E0C8CF0895282F30E0D901D2
:1016C000AE50BC4F9C919130E1F078F0943008F02E
:1016D0004EC061114CC041114AC01C926091C704B8
:1016E000680F809192040C94BD0A411102C06623D8
:1016F000F1F12E583C4F8FEFF901808381E08C93FC
:1017000008956623F9F092E09C932E583C4FF9011E
:1017100020814091C504042E000C550B240F352F59
:10172000311D2F3F310519F010F02FEF30E02A5214
:101730003E4F6091C704680FF90140818091920487
:101740000C94DD0A442389F0F901EE58FC4F908196
:10175000992319F091509083089592E09C936091A1
:10176000C704680F4091C404E9CF83E0C8CF08954F
:10177000AF92BF92CF92DF92EF92FF920F931F939F
:10178000CF93DF931092D6025D9A81E090E00E94A1
:10179000B9045D98DBB1D77ED061DBB9C09101019E
:1017A000CC2319F080E48C1BC82FC12C85B1887F15
:1017B0008C2985B981E090E00E94B904B12CB11068
:1017C0000CC05C985B9ADBB980E0909102018917AC
:1017D00034F45B9ADBB98F5FF8CF5B9ADBB9C03426
:1017E0000CF0C054F9B05B9ADBB99F2D907C8091CE
:1017F000D602892B8093D602D9B08F2D8D29807C7B
:10180000E82EAC2E0C2F0C2E000C110B0E501D4F81
:1018100081E090E0F80120812E1102C090E080E08C
:101820008E29892B81F04D2D40746F2D60748C2F83
:101830000E945D0B4D2D40786F2D60788C2F0E949B
:10184000020BF801E082C85FB394F8E0BF12B7CF93
:10185000C9E0CA0DC394CF12A9CFDF91CF911F91D8
:101860000F91FF90EF90DF90CF90BF90AF900895D1
:101870008F929F92AF92BF92CF92DF92EF92FF92A0
:10188000CF93DF93EC016A017B010E9451054B016C
:101890005C0184E295E00E94D005892B69F40E94E6
:1018A0005105681979098A099B096C157D058E0512
:1018B0009F0578F380E006C084E295E00E94AE05C3
:1018C000888381E0DF91CF91FF90EF90DF90CF9000
:1018D000BF90AF909F908F900895CF92DF92EF923C
:1018E000FF920F931F93CF93DF9300D0CDB7DEB756
:1018F000299A00000000289A0000000028982998E2
:1019000039EDE32E32E0F32E10E093B19072F7013F
:1019100081917F01981761F0319790836091C9049C
:10192000610F80919404911137C067FF0E943E09B6
:10193000289A0000000028981F5F193131F7809124
:10194000C304813081F15CF5882309F487C084E207
:1019500095E00E94D005892B09F4FEC042E350E0D7
:1019600060E070E0CE0102960E94380C6A8167FF49
:1019700002C1609300011092D802603D08F0BAC025
:10198000603C08F0BCC0603B28F4603A18F4603852
:1019900008F4CAC082E0B4C00E94BD0AC9CF823038
:1019A00029F08330A1F60E94B80BD1CF5D9A81E077
:1019B00090E00E94B9045D981092D6025D9A299A2F
:1019C000000000005D98299828E0D22E10E081E008
:1019D00090E00E94B90498E0C92E00EC010F103489
:1019E00008F4012F19B183B1187C8470182B289A40
:1019F0008091D602812B8093D6022898802F90E088
:101A00009C012E503D4F790181E090E0F901208149
:101A1000211302C090E080E0812B892B81F0412FBF
:101A20004470612F6870802F0E945D0B412F4074BD
:101A3000612F6078802F0E94020BF701108318E05D
:101A4000100FCA94C110C9CF5C9A000000005C98C6
:101A500019E0100FDA94D110BACF79CF5D9A81E0F6
:101A600090E00E94B9045D981092D602299A000075
:101A70000000289A000000002898299882EFE82E9C
:101A800083E0F82E02EB13E0D12C93B19870F701AC
:101A900081917F01981761F0319790836091C7041D
:101AA0006D0D8091920491111FC067FF0E943E0945
:101AB00093B19071F8018081981759F090836091EB
:101AC000C8046D0D80919304911111C067FF0E94AD
:101AD0003E09289A000000002898D3940F5F1F4FFA
:101AE000FDE3DF12D2CF33CF0E94BD0AE1CF0E94C7
:101AF000BD0AEFCF603F70F4603E08F04BCF81E04D
:101B00008093D70284E295E00E9412068A81809336
:101B1000050122C0613F59F11FEF613F40F082E0B3
:101B2000623F31F1633F19F11092D70215C019835A
:101B300049E150E060E070E0CE0101960E94380C6F
:101B40009981973F11F08111F2CF1092D702109234
:101B5000050187EF809300010F900F90DF91CF91E7
:101B60001F910F91FF90EF90DF90CF90089581E04B
:101B70008093D702F1CFF090D702FF2069F3109144
:101B8000D8021F5F1093D8020091000180910501D7
:101B9000801739F0602F84E295E00E9412060093CE
:101BA00005016A8184E295E00E941206812F6F2D63
:101BB0000E94E51B9111D0CF1092D802CDCF0C948A
:101BC0006D0C3F924F925F926F927F928F929F9295
:101BD000AF92BF92CF92DF92EF92FF920F931F933B
:101BE000CF93DF9300D000D000D0CDB7DEB7382E32
:101BF000611101C061E070E090E080E00E948E1A07
:101C00009B01AC0160E070E080E89FE30E94AE1CA5
:101C10004B015C0106ED11E01E821D828FE790E012
:101C2000831991099C01990F440B550B29833A8321
:101C30004B835C834D815E81BA0190E080E00E941D
:101C40008E1A20E030E04FE753E40E94AE1C6B0197
:101C50007C01AC019B01C501B4010E94CB1A2B0190
:101C60003C0120E030E040E85FE3C501B4010E94A0
:101C7000421CA70196010E94411C9B01AC01C301BB
:101C8000B2010E94AE1C6B017C0169817A818B815B
:101C90009C810E94901AA70196010E94CB1A0E9473
:101CA000201D630DF80161938F012D813E812F5F0F
:101CB0003F4F3E832D832115314009F0BBCF26963F
:101CC0000FB6F894DEBF0FBECDBFDF91CF911F914D
:101CD0000F91FF90EF90DF90CF90BF90AF909F90CB
:101CE0008F907F906F905F904F903F90089561E04C
:101CF0000E942D041092D6048093D50408950F936A
:101D00001F93CF93DF93C0E0D0E00E94A807E0913B
:101D10000206F091030609950E94510500911806EC
:101D20001091190620911A0630911B06601B710B49
:101D3000820B930B643171058105910508F44AC04B
:101D40000E945105609318067093190680931A0635
:101D500090931B0670E060E080E00E940D07809188
:101D60000E060E94FF0390E080E00E9416090E9488
:101D7000FC0380910E0690E00E94770E81EC95E0C6
:101D80000E94C606D82F70E060E081E00E940D0737
:101D900080910E060E94FF0381E090E00E941609E8
:101DA0000E94FC0380910E0690E00E94770E81EC69
:101DB00095E00E94C606C82F60910F06709110062C
:101DC00080E00E940D07609111067091120681E07B
:101DD0000E940D078D2F8C238F3F09F096CFDF9146
:101DE000CF911F910F910895CF92DF92EF92FF92C2
:101DF0000F931F93CF938C010E9451056B017C01BF
:101E0000C00ED11EE11CF11C809175060E94FF03DB
:101E100081E090E00E9416090E94FC0361E080913D
:101E200075060E942D041092D6048093D50481EC8F
:101E300095E00E94C60623E0959587952A95E1F7DF
:101E40008095C82FC77051F00E9451056C157D0513
:101E50008E059F05C8F201151105B1F28C2FCF91A7
:101E60001F910F91FF90EF90DF90CF9008958F9288
:101E70009F92AF92BF920F931F93CF93DF93CDB7F3
:101E8000DEB7A1970FB6F894DEBF0FBECDBF19A283
:101E9000423008F44AE08E010F5D1F4F842E912CD2
:101EA000B12CA12CA50194010E94051CE62FB901BB
:101EB000CA01EA3044F5E05DD801EE938D01232B91
:101EC000242B252B79F790E080E0109769F0FD0135
:101ED00001900020E9F73197AF014A1B5B0BBD0170
:101EE0008CE296E00E947205A1960FB6F894DEBFD0
:101EF0000FBECDBFDF91CF911F910F91BF90AF90DB
:101F00009F908F900895E95CD7CFFB01019000204E
:101F1000E9F73197AF01461B570B0C94720580917E
:101F20009104082E000C990B40960E94891BE091A9
:101F30004304F09144049081981749F061E08FE0E8
:101F40000E9444086AE28CE296E00C948B080895A3
:101F5000CF92DF92EF92FF92CF9361E080E00E94F8
:101F60004408E0914304F0914404C081CC2E0C2E2F
:101F7000000CDD08EE08FF084AE0C701B601F7FED5
:101F80000DC06DE28CE296E00E948B0866277727F1
:101F9000CB016C197D098E099F094AE00E94370F19
:101FA0000E94B6080E948F0F61E083E00E944408FF
:101FB00062E08CE296E00E948B08C7FF0DC061E0F2
:101FC00085E00E94440888E690E0CF91FF90EF9072
:101FD000DF90CF900C949B08CF91FF90EF90DF9013
:101FE000CF900895E2E9F4E064A982A90E94E10D8E
:101FF0000C94A80F8091430490914404892B51F4D0
:1020000061E080E00E94440881E790E00E949B0824
:102010000C94B608E0914504F0914604309711F411
:102020000C94A80F0994409148041416FCF40097EE
:10203000E9F0E0914304F09144042081820F911D66
:1020400027FD9A9520914704022E000C330B82172E
:1020500093073CF0242F440F330B821793070CF4A3
:102060009C01309719F020830C94FA0F089560E0DA
:1020700080E00E94440862E374E08CE296E00E94F3
:10208000850F0E94B60860E08FE00E94440864E07B
:102090008CE296E00E948B08909191048091480414
:1020A0009A3014F087FD09C087FF16C061E080E018
:1020B0000E94440880E890E006C061E080E00E9451
:1020C00044088BE890E00E949B0866E08CE296E072
:1020D0000E948B080C94B60881110C94FA0F61E0F1
:1020E00080E00E94440888E790E00E949B08F2CFBD
:1020F000AF92BF92CF92DF92EF92FF920F931F9316
:10210000CF93DF93C82F70E060E00E940D078091AD
:102110000E060E94FF036C2F81EC95E00E94E708F9
:102120000E94FC0380910E0690E00E94770E81ECE5
:1021300095E00E94C606D82FEC2FF0E0EE0FFF1FAF
:10214000E051FA4F678D70A18C2F0E940D078D2FE3
:10215000809509F444C030E020E090E0BC01022EFC
:1021600002C0759567950A94E2F760FF32C0CC0F04
:10217000CC0FCC0FC20FE0910406F09105068C2F16
:102180000995EC2FF0E0CF0180519A4F7C01DC01E2
:102190009C968C9140E087FF4FE7EE56FB4FD7852A
:1021A00080A1813009F44CC02CF58823B1F10E9444
:1021B0007F0E8091CD04882391F0DF91CF911F9104
:1021C0000F91FF90EF90DF90CF90BF90AF900C9465
:1021D00037102F5F3F4F2830310509F0BFCFDF9117
:1021E000CF911F910F91FF90EF90DF90CF90BF9014
:1021F000AF900895823069F18330C9F6D7FD05C0EC
:102200006D2F809192040E943E090E947F0E6D2FD7
:10221000809192040E94BD0ACACFD7FD05C06D2FE0
:10222000809192040E941F09F70184A5682F6F779F
:1022300087FF04C08C2F0E942107B9CF6068FACFB6
:10224000D7FDB5CF4FE76D2F809192040E941F09F3
:10225000AECF10919204115480910501181739F0F6
:10226000612F84E295E00E94120610930501DF774A
:102270008D2F90E00E945F0682EBC82E84E0D82E5E
:1022800010E000E0D6018D916D01823081F4F801FB
:10229000E051FA4F5F0164A56F77802F0E942107FC
:1022A000D5019C966C916F7B802F0E9421070F5F58
:1022B0001F4F0031110531F7F70164A560688C2FBD
:1022C0000E942107D7019C966C916064B3CF89333B
:1022D00060F497E1899FB00111246A5C7E4F47E169
:1022E00050E082E394E00C94851A0895CF93DF9335
:1022F000D82FC9E08C2F0E946711809142048D175E
:1023000021F0CF5FC933B1F7C0E08C2FDF91CF91BF
:102310000895FF920F931F93CF93DF93CDB7DEB74E
:1023200060970FB6F894DEBF0FBECDBFE091910469
:102330000E2E000CFF0BEE56FB4FF08061E080E0AC
:102340000E9444080F2D0F2C000C110B83E08F15F9
:10235000B8F1B80184E0660F771F8A95E1F76A50FB
:102360007F4F40E150E0CE0101960E94851ABE01E8
:102370006F5F7F4F8CE296E00E94850F0E94B60847
:102380000E948F0F61E08DE00E94440862E08CE2C1
:1023900096E00E948B08F801E051FA4F8091910479
:1023A000668580520E94210760960FB6F894DEBFC2
:1023B0000FBECDBFDF91CF911F910F91FF90089578
:1023C0008CEE90E00E949B08D9CF1F93CF93DF93B0
:1023D000CDB7DEB760970FB6F894DEBF0FBECDBFA6
:1023E0001091C30461E080E00E944408153070F54C
:1023F00080E11802B001112464567F4F40E150E0A3
:10240000CE0101960E94851ABE016F5F7F4F8CE25C
:1024100096E00E94850F0E94B6080E948F0F61E02F
:102420008DE00E94440862E08CE296E00E948B08F6
:102430008091C3040E94400A60960FB6F894DEBFF4
:102440000FBECDBFDF91CF911F91089582E990E03B
:102450000E949B08E0CFFF920F931F93CF93DF93CF
:10246000EC01F62E08811981C8010E94891BF8161B
:1024700021F06F2DC8010E94911BCE01DF91CF91F9
:102480001F910F91FF900895CF93DF9300D0CDB7A8
:10249000DEB7E0914304F0914404309779F0608115
:1024A00080919104082E000C990B40969A838983A1
:1024B000CE0101960E942B120E94FA0F0F900F90EE
:1024C000DF91CF910895EF92FF920F931F93CF93D7
:1024D000DF93982F882309F4B2C081FF33C00EEE3A
:1024E00012E0D8E0809191048A300CF440C08091D1
:1024F00042040E947611F82EE0904204C8E38C2F2B
:102500000E94671180914204E81621F0C150C93041
:10251000B1F7C0E080919104282F082E000C330BF6
:10252000F21613068CF1C09391048C2F0E94671150
:102530000E943710C8010E94F40E0AEF10E08111CA
:10254000D1CF90E092FF54C00EEE12E08091910442
:102550008A30F4F48830CCF11092910447E150E0D5
:1025600066E371E082E394E00E94851A37C0181692
:102570005CF0D093910447E150E06EEE71E082E3AD
:1025800094E00E94851AD4CF815080939104CECFDD
:10259000809142040E947611D82FF0904204C8E343
:1025A0008C2F0E94671180914204F81621F0C150CF
:1025B000C930B1F7C0E080919104282F082E000C9B
:1025C000330BC217130629F024F08F5F8093910418
:1025D00003C0D09391048D2F0E9467110E94371081
:1025E000C8010E94F40E0AEF10E08111AFCF90E015
:1025F00090FF25C080919104909148048A307CF42A
:1026000097FF11C080939004809142040E9476113C
:10261000809391040E9467110E94371006C0809138
:10262000900497FDF5CF0E94441290E080E0DF9186
:10263000CF911F910F91FF90EF900C94F40EDF91CA
:10264000CF911F910F91FF90EF9008951F920F92DD
:102650000FB60F9211244F935F936F937F938F93D5
:102660009F934091D1045091D2046091D304709112
:10267000D4048091D0049091CF04943019F5109235
:10268000CF049091CF0490FD21C08A598D3728F056
:102690008D574F5F5F4F6F4F7F4F8093D0044093B4
:1026A000D1045093D2046093D3047093D4049F91C7
:1026B0008F917F916F915F914F910F900FBE0F900F
:1026C0001F9018959F5F9093CF04DBCF8959DECF81
:1026D0001F920F920FB60F9211242F933F934F9397
:1026E0005F936F937F938F939F93AF93BF93EF937A
:1026F000FF9384E295E00E94F005FF91EF91BF9176
:10270000AF919F918F917F916F915F914F913F9189
:102710002F910F900FBE0F901F9018951F920F9240
:102720000FB60F9211242F938F939F93EF93FF93E4
:10273000E0913405F09135058081E0913A05F09102
:102740003B0582FD1BC0908180913D058F5F8F739B
:1027500020913E05821741F0E0913D05F0E0EC5DEF
:10276000FA4F958F80933D05FF91EF919F918F9147
:102770002F910F900FBE0F901F9018958081F4CF6E
:102780001F920F920FB60F9211242F933F934F93E6
:102790005F936F937F938F939F93AF93BF93EF93C9
:1027A000FF938091B900887F803609F44AC0F0F524
:1027B000883209F4A7C018F5803109F49BC0B8F439
:1027C000882309F405C1883009F494C0FF91EF9182
:1027D000BF91AF919F918F917F916F915F914F9139
:1027E0003F912F910F900FBE0F901F901895883139
:1027F00009F488C0803251F78093FD0414C08034FE
:1028000009F4A5C040F48033B9F38833F9F6809316
:10281000FD0485ECBCC0803509F489C0883509F415
:102820009EC0883499F60E948506D0CF883909F475
:1028300094C038F5883729F050F4883611F0803785
:1028400029F683E08093FF0410928B0457C08838E8
:1028500009F483C0803919F0803809F0B7CF80912E
:102860008B04803208F079C0E0918B0481E08E0FF8
:1028700080938B048091BB00F0E0E559FB4F80838F
:102880003DC0803B39F0E0F4803A09F485C0883AD5
:1028900009F09CCF84E08093FF0410926A041092A8
:1028A0006904E0918E04F0918F0409958091690488
:1028B00081110FC081E0809369041092490409C01E
:1028C000803C09F4A6CF883C09F4A3CF883B09F0EB
:1028D0007DCFE0916A0481E08E0F80936A04F0E07E
:1028E000E75BFB4F80818093BB0090916A048091ED
:1028F000690431C08091F8048093BB0085EC80931B
:10290000BC0064CF9091FA048091F9049817B8F54F
:102910008091FB049091FC04E091FA0421E02E0FD9
:102920002093FA04E80FF92FF11D8081E5CF209163
:10293000FB043091FC04E091FA0481E08E0F809357
:10294000FA048091BB00E20FF32FF11D8083909178
:10295000FA048091F904981788F285E8D0CF209185
:10296000FB043091FC04E091FA0481E08E0F809327
:10297000FA048091BB00E20FF32FF11D8083809158
:10298000FE04811150CF81E08093F70484EA8093A4
:10299000BC001092FF041ACF85EC8093BC0010920B
:1029A000FF0480918B04803230F4E0918B04F0E0DE
:1029B000E559FB4F108260918B0470E0E0918C042C
:1029C000F0918D048BE694E0099510928B04FECE75
:1029D0001092FD0428CF1F920F920FB60F92112470
:1029E0002F933F934F935F936F937F938F939F9317
:1029F000AF93BF93EF93FF93E0910601F09107012E
:102A00000995FF91EF91BF91AF919F918F917F9128
:102A10006F915F914F913F912F910F900FBE0F904B
:102A20001F901895EF92FF920F931F93CF93DF9310
:102A3000EC017B01198218821B821A821D821C8282
:102A4000FB0101900020E9F731978F01061B170B5E
:102A5000B8016F5F7F4F90E080E00E94741E009786
:102A6000B9F0998388831B830A832C813D81232BB2
:102A700011F4FC0110821D830C83B70188819981B8
:102A8000DF91CF911F910F91FF90EF900C943A1F1F
:102A900088819981009711F00E94EB1D198218829C
:102AA0001D821C821B821A82DF91CF911F910F9190
:102AB000FF90EF900895CF9310922705109226056E
:102AC00088EE93E0A0E0B0E080932805909329057C
:102AD000A0932A05B0932B0523E931E03093250517
:102AE0002093240525EC30E0309331052093300508
:102AF00024EC30E0309333052093320520EC30E0B5
:102B0000309335052093340521EC30E030933705C0
:102B10002093360522EC30E03093390520933805B8
:102B200026EC30E030933B0520933A0510923D05AA
:102B300010923E0510923F05109240051092C40578
:102B40001092C3058093C5059093C605A093C70551
:102B5000B093C80585EA91E09093C2058093C105C2
:102B600010922F0610922E0687EB91E090932D067F
:102B700080932C0688E0E6E1F1E0A0E3B6E0019066
:102B80000D928A95E1F788E0EEE1F1E0A8E3B6E086
:102B900001900D928A95E1F788E0E6E2F1E0A0E489
:102BA000B6E001900D928A95E1F788E0EEE2F1E05F
:102BB000A8E4B6E001900D928A95E1F788E0E6E39B
:102BC000F1E0A0E5B6E001900D928A95E1F788E08A
:102BD000EEE3F1E0A8E5B6E001900D928A95E1F709
:102BE00088E0E6E4F1E0A0E6B6E001900D928A9577
:102BF000E1F788E0EEE4F1E0A8E6B6E001900D929E
:102C00008A95E1F710927406C3E0C0937D06109296
:102C10007F0610927E060E94510560938006709395
:102C20008106809382069093830610928506109207
:102C3000840690E29093750620E120937A0682E064
:102C400080937B061092F00531E03093F10580937C
:102C5000F205C093F3051092F40584E08093F50526
:102C600038E03093F6053CE03093F7051092F80514
:102C70002093F9059093FA0590E39093FB0590E873
:102C80009093FC0590E49093FD05C093FE059CE2B3
:102C90009093FF0597E2909300069BE090930106C6
:102CA0001092100610920F06109212061092110642
:102CB0001092130610921406109215061092160622
:102CC00010921706109218061092190610921A0602
:102CD00010921B0692E690930E068093EB058AE015
:102CE0008093EC0584E090E09093EE058093ED05F1
:102CF0001092EF0583EA93E09093DA058093D9056B
:102D0000EBEDF5E011921382178285E0EF3DF807B5
:102D1000C9F70E9409046FEB71E08DEC95E00E9409
:102D2000121568EC71E083ED95E0CF910C941215CB
:102D3000CF93DF9300D000D0CDB7DEB7789484B5C1
:102D4000836084BD85B5836085BD80916E008160A0
:102D500080936E0092E09093810080918100816069
:102D600080938100809180008160809380008091B9
:102D7000B10084608093B1008091B0008160809345
:102D8000B00087E880937A001092C100E09134058A
:102D9000F09135059083E0913005F0913105108276
:102DA000E0913205F09133058FE4808310923C0569
:102DB000E0913805F091390586E08083E091360591
:102DC000F0913705808188698083E0913605F09124
:102DD000370580818F7D8083E2ECF6E02491EBEA79
:102DE000F6E08491882399F090E0880F991FFC0108
:102DF000EB5AF94FA591B491FC01E156F94F859139
:102E000094918FB7F894EC91E22BEC938FBF89E506
:102E100099E0909307018093060181E080936F0011
:102E20008091C30418160CF0CEC288E893E1909309
:102E300087008093860081E18093810080E1809308
:102E400081001092800088E893E19093870080933E
:102E5000860011E11093810040E06BE780919204BD
:102E60000E941F0940E06BE7809193040E941F09B4
:102E700040E06BE7809194040E941F091092D604F1
:102E80001092D50410920105109223051092FF04B0
:102E900001E00093FE041092F70461E082E10E94D9
:102EA0006D0461E083E10E946D048091B9008E7F22
:102EB0008093B9008091B9008D7F8093B9008CE533
:102EC0008093B80085E48093BC0080E795E0909300
:102ED0008F0480938E0481E795E090938D04809316
:102EE0008C041093B80089E695E090937106809366
:102EF00070068AE695E0909373068093720662E30B
:102F000070E080E090E00E941F05809175060E94AD
:102F1000FF0381E00E94A4038111BFC088E1809378
:102F2000760612E01093790686E089831A828091F2
:102F300075060E94FF0342E050E0BE016F5F7F4FC5
:102F400081EC95E00E94E0060E94FC0387E0898303
:102F5000F8EFFF2EFA82809175060E94FF0342E08F
:102F600050E0BE016F5F7F4F81EC95E00E94E0066C
:102F70000E94FC0319831A82FB82809175060E94CD
:102F8000FF0343E050E0BE016F5F7F4F81EC95E0AF
:102F90000E94E0060E94FC0361E070E080E090E0A7
:102FA0000E941F0560E376E080E00E94C80868E3A5
:102FB00076E081E00E94C80860E476E082E00E944A
:102FC000C80868E476E083E00E94C80860E576E01F
:102FD00084E00E94C80868E576E085E00E94C808A1
:102FE00060E676E086E00E94C80868E676E087E062
:102FF0000E94C80860917606606240E08CE296E02C
:103000000E94ED0784E08093770640E06CE08CE25C
:1030100096E00E94ED071093780640E066E08CE2AF
:1030200096E00E94ED070E947C0840E062E08CE29E
:1030300096E00E94ED0762E070E080E090E00E9480
:103040001F0510927C06109291041092900460E08B
:1030500080E00E9444088EE696E00E949B0861E0B2
:1030600080E00E9444088FE596E00E949B0868EE8D
:1030700073E080E090E00E941F050093CD04109261
:10308000910483E692E1909373068093720683E144
:1030900090E1909371068093700683E00E94D509B9
:1030A00076E5C72E71E0D72EE2E9EE2EE4E0FE2EA3
:1030B000D701F60181918D9341E0EF38F407D1F704
:1030C00088E090E00E94891B9091CD04823009F441
:1030D0007DC19923D9F00E947C0860E080E00E94C5
:1030E00044088FE896E00E949B0861E080E00E941F
:1030F00044088DE796E00E949B086CED75E080E047
:1031000090E00E941F0582E00E94D50900E110E0D6
:10311000D6016D916D011A830983CE0101960E943B
:103120002B120F5F1F4F0934110591F788E090E0D3
:103130009A83898362E0CE0101960E942B128091CE
:10314000CD04882331F0809191040E9467110E9480
:1031500037108091C3040E94400A6091C604809198
:10316000C4040E94E10D82E60E94FF0381E00E94F8
:10317000A403182F81117DC081E08093CB048DE5DD
:1031800095E0909303068093020683E695E0909382
:1031900005068093040682E18093060610920706D6
:1031A0008CE0809308061092090680E380930A065B
:1031B00080910E060E94FF0345E050E066E076E055
:1031C00081EC95E00E94E0060E94FC0370E060E064
:1031D00080E00E940D0770E060E081E00E940D0732
:1031E0002091F305ECE1F6E060EFE62E65E0F62EC7
:1031F0008CE296E021938E179F07E1F78FED9DE01B
:10320000909303068093020652EBC52E54E0D52E10
:10321000560100E0D501ED915D010E2E000CFF0B73
:10322000E051FA4F6685802F0E9421070F5F003121
:1032300089F701E0F60181916F018230A1F4D70195
:103240009C966C916F7701116068812F0E94210715
:10325000F70164A56F7B002309F4C6C06064812F69
:103260000E94210700E01F5FFFEFEF1AFF0A1031F5
:1032700009F783EF99E09093DA058093D9050E94CE
:1032800009043DE4B32E04E610E040E0E42E40E003
:10329000F42E8091CE04882309F41AC18091CE04C3
:1032A00081508093CE040E946D0C8091CD048823C0
:1032B00009F445C0F89480917E0690917F06789439
:1032C00020918406309185068217930759F09093D8
:1032D000850680938406E0917006F0917106821B4A
:1032E000930B09958091CC04811129C080917506BA
:1032F0000E94FF0381E090E00E9416090E94FC03F7
:1033000061E0809175060E942D041092D60480938E
:10331000D50481EC95E00E94C60623E0959587953B
:103320002A95E1F78095877090917406891739F096
:1033300080937406E0917206F0917306099580916E
:10334000CB048823A1F08091CC04843011F40E9436
:10335000A8078091CC04883019F480E00E9478108E
:103360008091CC048C3019F481E00E947810809117
:10337000CC04843009F08DCF80917A0080648093F2
:103380007A00E091EF05F0E08091ED059091EE0577
:103390000197E752FA4F2281289F6001299FD00CA4
:1033A00011249285911124C08091EB05E3EEF5E0A4
:1033B000A12C891709F46AC02191222311F0AA24B3
:1033C000A3949F5FF6CF80E197E231CD00E110E05A
:1033D000C8010E94891BF70181937F010F5F1F4F76
:1033E00009341105A9F7ABCE812F0E9421073BCFED
:1033F0009150928760E082E00E946D04AA24A39419
:1034000080917A0086FDFCCF809179008C0D9D2DF6
:10341000911D6091ED057091EE050E94F11B2091C8
:10342000EF05E22FF0E0E752FA4F62838681AB01AD
:10343000481B5109CA0157FF03C091958195910915
:1034400002976CF18091EC0582876683B69EC0017D
:10345000B79E900D1124B8010E94F11B6B016038DA
:1034600071051CF08FE7C82ED12C86858C15C9F00C
:10347000E091D905F091DA056C2D822F0995E09144
:10348000EF05F0E0E752FA4FC6860BC0A11005C069
:1034900061E082E00E946D04B3CFA12CB1CFA110F6
:1034A000D4CF419A000041988091EF058F5F8093BF
:1034B000EF059091EB05891708F4EBCE1092EF051C
:1034C000409A419A00004198409800000000E1CEE7
:1034D000E114F10409F4DDCE0E94DC05882309F42F
:1034E000D8CE0E940000D5CE8091D3059091D4050E
:1034F000009711F00E94EB1D8091CD059091CE05B3
:10350000009711F00C94EB1D0895FB01DC0102C043
:1035100005900D9241505040D8F70895E89409C0A5
:1035200097FB3EF490958095709561957F4F8F4FF6
:103530009F4F9923A9F0F92F96E9BB279395F6950C
:10354000879577956795B795F111F8CFFAF4BB0F8A
:1035500011F460FF1BC06F5F7F4F8F4F9F4F16C0EE
:10356000882311F096E911C0772321F09EE8872F78
:10357000762F05C0662371F096E8862F70E060E034
:103580002AF09A95660F771F881FDAF7880F9695AD
:10359000879597F908950E94DE1A0C944F1B0E949C
:1035A000411B38F00E94481B20F0952311F00C9429
:1035B000381B0C943E1B11240C94831B0E94601B2F
:1035C00070F3959FC1F3950F50E0551F629FF00176
:1035D000729FBB27F00DB11D639FAA27F00DB11D8F
:1035E000AA1F649F6627B00DA11D661F829F222718
:1035F000B00DA11D621F739FB00DA11D621F839F9F
:10360000A00D611D221F749F3327A00D611D231F74
:10361000849F600D211D822F762F6A2F11249F57C2
:1036200050409AF0F1F088234AF0EE0FFF1FBB1FC5
:10363000661F771F881F91505040A9F79E3F510584
:1036400080F00C94381B0C94831B5F3FE4F3983E8E
:10365000D4F3869577956795B795F795E7959F5F2E
:10366000C1F7FE2B880F911D9695879597F90895C0
:1036700097F99F6780E870E060E008959FEF80EC25
:10368000089500240A9416161706180609060895C8
:1036900000240A9412161306140605060895092E2E
:1036A0000394000C11F4882352F0BB0F40F4BF2B9D
:1036B00011F460FF04C06F5F7F4F8F4F9F4F0895DD
:1036C00057FD9058440F551F59F05F3F71F04795D3
:1036D000880F97FB991F61F09F3F79F087950895B8
:1036E000121613061406551FF2CF4695F1DF08C0D7
:1036F000161617061806991FF1CF869571056105F4
:1037000008940895E894BB2766277727CB0197F99B
:103710000895F999FECF92BD81BDF89A992780B599
:103720000895262FF999FECF1FBA92BD81BD20BD05
:103730000FB6F894FA9AF99A0FBE019608952F924F
:103740003F924F925F926F927F928F929F92AF9231
:10375000BF92CF92DF92EF92FF920F931F93CF937E
:10376000DF93CDB7DEB7CA1BDB0B0FB6F894DEBF15
:103770000FBECDBF09942A88398848885F846E843B
:103780007D848C849B84AA84B984C884DF80EE8085
:10379000FD800C811B81AA81B981CE0FD11D0FB68E
:1037A000F894DEBF0FBECDBFED010895A29FB0011A
:1037B000B39FC001A39F700D811D1124911DB29F65
:1037C000700D811D1124911D0895991B79E004C08D
:1037D000991F961708F0961B881F7A95C9F7809550
:1037E000089597FB072E16F4009407D077FD09D0B3
:1037F0000E94271C07FC05D03EF4909581959F4FB1
:103800000895709561957F4F0895A1E21A2EAA1B25
:10381000BB1BFD010DC0AA1FBB1FEE1FFF1FA21780
:10382000B307E407F50720F0A21BB30BE40BF50B7D
:10383000661F771F881F991F1A9469F76095709506
:10384000809590959B01AC01BD01CF010895AA1B05
:10385000BB1B51E107C0AA1FBB1FA617B70710F07B
:10386000A61BB70B881F991F5A95A9F780959095AD
:10387000BC01CD010895EE0FFF1F0590F491E02DDE
:1038800009945058BB27AA270E94591C0C944F1B1F
:103890000E94411B38F00E94481B20F039F49F3FE2
:1038A00019F426F40C943E1B0EF4E095E7FB0C94FF
:1038B000381BE92F0E94601B58F3BA176207730781
:1038C0008407950720F079F4A6F50C94821B0EF47A
:1038D000E0950B2EBA2FA02D0B01B90190010C0120
:1038E000CA01A0011124FF27591B99F0593F50F438
:1038F000503E68F11A16F040A22F232F342F442790
:10390000585FF3CF469537952795A795F040539587
:10391000C9F77EF41F16BA0B620B730B840BBAF057
:103920009150A1F0FF0FBB1F661F771F881FC2F7C2
:103930000EC0BA0F621F731F841F48F487957795D6
:103940006795B795F7959E3F08F0B0CF9395880F90
:1039500008F09927EE0F9795879508950E94C21C4D
:103960000C944F1B0E94481B58F00E94411B40F0D2
:1039700029F45F3F29F00C94381B51110C94831BE0
:103980000C943E1B0E94601B68F39923B1F35523EE
:1039900091F3951B550BBB27AA2762177307840762
:1039A00038F09F5F5F4F220F331F441FAA1FA9F3F8
:1039B00035D00E2E3AF0E0E832D091505040E695E6
:1039C000001CCAF72BD0FE2F29D0660F771F881F47
:1039D000BB1F261737074807AB07B0E809F0BB0B3A
:1039E000802DBF01FF2793585F4F3AF09E3F51054E
:1039F00078F00C94381B0C94831B5F3FE4F3983EE3
:103A0000D4F3869577956795B795F7959F5FC9F736
:103A1000880F911D9695879597F90895E1E0660FB7
:103A2000771F881FBB1F621773078407BA0720F030
:103A3000621B730B840BBA0BEE1F88F7E095089599
:103A40000E94681B88F09F5798F0B92F9927B751AB
:103A5000B0F0E1F0660F771F881F991F1AF0BA9532
:103A6000C9F714C0B13091F00E94821BB1E00895F3
:103A70000C94821B672F782F8827B85F39F0B93FE5
:103A8000CCF3869577956795B395D9F73EF49095E5
:103A90008095709561957F4F8F4F9F4F08950F933D
:103AA0001F93CF93DF938230910510F482E090E072
:103AB000E0918806F091890630E020E0B0E0A0E0D7
:103AC000309799F42115310509F44AC0281B390BA8
:103AD00024303105D8F58A819B816115710589F102
:103AE000FB0193838283FE0111C0408151810281D9
:103AF000138148175907E0F04817590799F41097B0
:103B000061F012960C93129713961C933296CF0184
:103B1000DF91CF911F910F91089500938806109324
:103B20008906F4CF2115310551F04217530738F0BB
:103B3000A901DB019A01BD01DF01F801C1CFEF014D
:103B4000F9CF9093890680938806CDCFFE01E20FCE
:103B5000F31F819391932250310939832883D7CF62
:103B60002091860630918706232B41F420910A018B
:103B700030910B013093870620938606209108012F
:103B8000309109012115310541F42DB73EB740911F
:103B90000C0150910D01241B350BE0918606F0912C
:103BA0008706E217F307A0F42E1B3F0B28173907EF
:103BB00078F0AC014E5F5F4F2417350748F04E0F89
:103BC0005F1F5093870640938606819391939FCF02
:103BD000F0E0E0E09CCFCF93DF930097E9F0FC01A9
:103BE000329713821282A0918806B0918906ED0166
:103BF00030E020E01097A1F420813181820F931FE3
:103C000020918606309187062817390709F061C090
:103C1000F0938706E0938606DF91CF910895EA013D
:103C2000CE17DF07E8F54A815B819E0141155105FA
:103C3000B1F7E901FB83EA8349915991C40FD51F7C
:103C4000EC17FD0761F4808191810296840F951F26
:103C5000E90199838883828193819B838A83F0E041
:103C6000E0E012968D919C9113970097B9F52D91F4
:103C70003C911197CD010296820F931F20918606E9
:103C8000309187062817390739F6309751F5109289
:103C9000890610928806B0938706A0938606BCCF4B
:103CA000D383C28340815181840F951FC817D907E0
:103CB00061F44E5F5F4F88819981480F591F51838E
:103CC00040838A819B81938382832115310509F08A
:103CD000B0CFF0938906E09388069ECFFD01DC010A
:103CE000C0CF13821282D7CFB0E0A0E0EAE7FEE1B6
:103CF0000C94A11B8C01009751F4CB010E944F1D25
:103D00008C01C801CDB7DEB7E0E10C94BD1BFC010E
:103D1000E60FF71F9C0122503109E217F30708F460
:103D20009DC0D901CD91DC911197C617D70798F0A6
:103D3000C530D10530F3CE0104978617970708F3F5
:103D4000C61BD70B2297C193D1936D937C93CF0160
:103D50000E94EB1DD6CF5B01AC1ABD0A4C018C0E44
:103D60009D1EA0918806B0918906512C412CF12C02
:103D7000E12C109731F58091860690918706881581
:103D8000990509F05CC04616570608F058C08091A6
:103D9000080190910901009741F48DB79EB74091B9
:103DA0000C0150910D01841B950BE817F90708F0E1
:103DB00055C0F0938706E0938606F901718360830E
:103DC000A0CF8D919C91119712966C90129713969B
:103DD0007C901397A815B90559F56C0142E0C40E03
:103DE000D11CCA14DB0420F1AC014A195B09DA01C9
:103DF0001296159780F06282738251834083D901B5
:103E00006D937C93E114F10471F0D7011396FC9348
:103E1000EE93129776CF22968C0F9D1FF901918316
:103E20008083F301EFCFF0938906E093880669CF92
:103E30004816590608F42C017D01D3019ACFCB0115
:103E40000E944F1D7C01009749F0AE01B8010E940D
:103E5000311FC8010E94EB1D870153CF10E000E025
:103E600050CFFB01DC0102C001900D924150504047
:103E7000D8F70895FB01DC0101900D920020E1F7D5
:103E8000089513E0C8E7D3E004C0FE010E943B1C84
:0C3E90002196C937D107C9F7F894FFCF7D
:103E9C00FF00000840FF1E0900008A068000000099
:103EAC00400014005400040E15040404040004041F
:103EBC000404150E040002060E1E0E060200020477
:103ECC000A140A040200040E1F001F0E0400040A48
:103EDC001500150A0400080C0E0F0E0C080008043F
:103EEC000A040A040800010203FFFFFFFFFFFFFFA3
:103EFC00FFFFFFFFFFFFFFFFFFFFFFFFFFFFFFFFC6
:103F0C00FFFFFFFFFFFF00000000000000000000AB
:103F1C00000000000000FF010A0A14242424FF0002
:103F2C00000000120672059F056406D005AE05C29E
:103F3C000500000000E708E0061B09B606D906C616
:103F4C0006B706000000008B0872051B09840646A4
:103F5C00434B2054524D500046434B2041464400A5
:00000001FF
