:100000000C945E000C9486000C9486000C94860080
:100010000C9486000C9486000C9486000C94860048
:100020000C9486000C9486000C9486000C94860038
:100030000C9486000C94240A0C9486000C94860080
:100040000C945F080C9486000C94C7080C94A108CB
:100050000C9486000C9486000C9486000C94860008
:100060000C94F9080C94860000000000250028007C
:100070002B00040404040404040402020202020229
:1000800003030303030302020301020408102040D8
:100090008001020408102001020408102040804062
:1000A0000000000900030200000405080000000031
:1000B00000000000000000004B0A670F11241FBE63
:1000C000CFEFD8E0DEBFCDBF27E0A6E4B2E001C0AD
:1000D0001D92A734B207E1F712E0A0E0B1E0ECE333
:1000E000F8E202C005900D92A634B107D9F710E0EE
:1000F000CDE5D0E004C02197FE010E940B11CC3564
:10010000D107C9F70E94190B0C9411140C9400002C
:10011000282F90910F0681E0913208F042C0809123
:10012000EB058111FCCF80910E0632E03093EB0598
:100130002093EA052FEF2093E9052EEE35E030936A
:10014000E8052093E7051092E6059093E5051092E7
:10015000E4059091E405880F892B8093E405809154
:10016000E305813029F51092E3058091E405809341
:10017000BB008091BC0083FDF8CF85EC8093BC0070
:100180008091EB058230E1F38091E9058F3F91F09A
:100190008091E905803281F08091E905803371F02A
:1001A00084E01092ED0510920F061092EC05089570
:1001B00085EEE4CF80E0F5CF82E0F3CF83E0F1CFAE
:1001C00081E00C94880091E09093EC0580930E06FA
:1001D0001092ED0510920F06089590E0FC01E05694
:1001E000FF4F2491FC01E757FF4F3491FC01EE587B
:1001F000FF4FE491EE23C9F0222339F0243001F1BE
:10020000A8F4223069F1233079F1F0E0EE0FFF1FFE
:10021000E859FF4FA591B4918FB7F894EC91611113
:1002200026C030953E233C938FBF0895283071F04F
:10023000293091F0253049F7809180008F7D03C0EF
:10024000809180008F7780938000DFCF8091B00015
:100250008F778093B000D9CF8091B0008F7DF9CF98
:1002600084B58F7784BDD1CF84B58F7DFBCF3E2BF6
:10027000DACF00000000000000000000813091058E
:1002800051F09C01220F331F220F331F0797820F5B
:10029000931F0197F1F70895CF92DF92EF92FF92AB
:1002A0006FB7F8948091BD059091BE05A091BF05F0
:1002B000B091C0055091BC0526B535B3432F4170B0
:1002C00030FF04C041E02F3F09F440E06FBF6C01F4
:1002D0007D0137E0CC0CDD1CEE1CFF1C3A95D1F7FC
:1002E000C50ED11CE11CF11CC81AD90AEA0AFB0A86
:1002F000880F991FAA1FBB1FC81AD90AEA0AFB0A4E
:1003000063E0CC0CDD1CEE1CFF1C6A95D1F730E0DD
:10031000A3E3B3E00E94CE10672F782F892F99278F
:100320006C0D7D1D8E1D9F1D442321F06D5C7C4F47
:100330008F4F9F4FFF90EF90DF90CF9008958F9257
:100340009F92AF92BF92CF92DF92EF92FF924B01BA
:100350005C010E944C016B017C010E944C016C19F4
:100360007D098E099F09683E734081059105A8F3B8
:1003700021E0821A9108A108B10888EEC80E83E036
:10038000D81EE11CF11C81149104A104B10429F7C9
:10039000FF90EF90DF90CF90BF90AF909F908F90A5
:1003A00008958091BA058F5F8093BA058091B0055A
:1003B0008F5F8093B005089508950895AF92BF921E
:1003C000CF92DF92EF92FF920F931F93CF93DF9321
:1003D0006C017B018B01040F151FEB015E01AE1850
:1003E000BF08C017D10759F06991D601ED91FC9172
:1003F0000190F081E02DC6010995892B79F7C5019F
:10040000DF91CF911F910F91FF90EF90DF90CF90F0
:10041000BF90AF900895FC01538D448D252F30E09F
:10042000842F90E0821B930B541710F0CF96089501
:1004300001970895FC01918D828D981761F0A28D2E
:10044000AE0FBF2FB11D5D968C91928D9F5F9F73F4
:10045000928F90E008958FEF9FEF0895FC01918DAA
:10046000828D981731F0828DE80FF11D858D90E017
:1004700008958FEF9FEF0895FC01918D228D892FB4
:1004800090E0805C9F4F821B91098F73992708959C
:1004900080E196E00E943C0221E0892B09F420E0F3
:1004A000822F089580E090E0892B29F00E94480275
:1004B00081110C9400000895FC01A48DA80FB92FA0
:1004C000B11DA35ABF4F2C91848D90E001968F737C
:1004D0009927848FA689B7892C93A089B1898C919B
:1004E000837080648C93938D848D981306C00288EA
:1004F000F389E02D80818F7D80830895EF92FF92B4
:100500000F931F93CF93DF93EC0181E0888F9B8D36
:100510008C8D98131AC0E889F989808185FF15C0F0
:100520009FB7F894EE89FF896083E889F989808113
:100530008370806480839FBF81E090E0DF91CF91E2
:100540001F910F91FF90EF900895F62E0B8D10E004
:100550000F5F1F4F0F731127E02E8C8D8E110CC073
:100560000FB607FCFACFE889F989808185FFF5CFBE
:10057000CE010E945C02F1CFEB8DEC0FFD2FF11D3F
:10058000E35AFF4FF0829FB7F8940B8FEA89FB89FB
:1005900080818062CFCFCF93CFEAC80F80910401D2
:1005A000C81739F06C2F80E196E00E947E02C0935C
:1005B00004016BE780E196E00E947E0260E080E14A
:1005C00096E0CF910C947E02CF93DF93EC01888D5F
:1005D0008823B9F0AA89BB89E889F9898C9185FDBE
:1005E00003C0808186FD0DC00FB607FCF7CF8C914C
:1005F00085FFF2CF808185FFEDCFCE010E945C02A6
:10060000E9CFDF91CF910895089585ED8093BC00E7
:100610008091BC0084FDFCCF1092EB0508952091E1
:100620006C04260F3327331F21323105ECF420915F
:10063000EB05FC0190E080E0243069F082E0089551
:10064000A0916C042191AC01445B5B4FA40FB52FCA
:10065000B11D2C930196861798F380916C04680F56
:1006600060936C0480E0089581E008950895E0911E
:10067000C2058091C105E81730F4F0E0ED53FA4F60
:10068000808190E008958FEF9FEF08959091C205CB
:100690008091C1052FEF3FEF981748F4E92FF0E064
:1006A000ED53FA4F208130E09F5F9093C205C9015E
:1006B00008958091C1059091C205891B990B0895F9
:1006C000CF92DF92EF92FF920F931F93CF93DF931E
:1006D0007C01CB018A012091EC05222389F0EB01FA
:1006E0006B01C40ED51ECC15DD0569F06991D701EB
:1006F000ED91FC910190F081E02DC7010995F3CFB8
:10070000642F0E940F03C801DF91CF911F910F91B9
:10071000FF90EF90DF90CF900895EF92FF921F939C
:10072000CF93DF9300D000D0CDB7DEB77C01142F7C
:1007300082E089836A834B83F70184A90E94E300E6
:1007400043E050E0BE016F5F7F4F8DEA96E00E946C
:1007500060030E94E00083E08983812F896F8A8390
:10076000F70184A90E94E30042E050E0BE016F5F00
:100770007F4F8DEA96E00E9460030E94E00085E0D2
:1007800090E00E943901186F1A83F70184A90E9432
:10079000E30042E050E0BE016F5F7F4F8DEA96E0DC
:1007A0000E9460030E94E00082E390E00E94390111
:1007B0000F900F900F900F90DF91CF911F91FF90AE
:1007C000EF9008951F93CF93DF93CDB7DEB72897AF
:1007D0000FB6F894DEBF0FBECDBF182F88E0EBE058
:1007E000F1E0DE01119601900D928A95E1F780917A
:1007F0003F07861708F46FEF70E0660F771F81E000
:1008000090E08C0F9D1F680F791FFB016081610FC5
:10081000606840E087E097E00E948D0310934207F4
:1008200028960FB6F894DEBF0FBECDBFDF91CF91F3
:100830001F910895CF93DF93EC0144E00E948D0354
:100840008BAD8F5F8BAF81E090E0DF91CF9108950A
:10085000682F87E097E00C941A04CF93C091420769
:1008600080914007C81738F460E287E097E00E9463
:100870001A04CF5FF5CF80934207CF9108950F936D
:100880001F93CF93DF938B0198E0899FB0011124D0
:10089000606440E087E097E00E948D03E801085F14
:1008A0001F4F699187E097E00E941A04C017D10793
:1008B000C1F7DF91CF911F910F910895CF93DF93EF
:1008C0001F92CDB7DEB769832091EC052223F9F0A2
:1008D00020910F06203258F021E030E0FC013383F4
:1008E000228390E080E00F90DF91CF910895809176
:1008F000ED05E82FF0E0E251FA4F998190838F5F88
:100900008093ED0580930F0681E090E0ECCF61E0ED
:10091000CE0101960E940F03F7CF90E080E008958A
:10092000089517B89CE098B98130B9F08230E9F1A8
:1009300083E084B988E385B986E08AB98EEF8BB904
:10094000ECE2F5E0ACEAB4E098E080E191938D93BD
:1009500025E0EC36F207D1F712C087E084B988E3CE
:1009600085B98EE38AB986E18BB9ECE2F5E0ACEAB1
:10097000B4E011921D9225E0E936F207D1F7ECECD4
:10098000F3E0ACE4B3E029E034E08FEF81938D93A2
:100990002E173F07D9F7E3E9F4E08CEA94E020E270
:1009A00021938E179F07E1F7089583E084B988E3C8
:1009B00085B986E38AB986E08BB9ECE2F5E0ACEA6A
:1009C000B4E011921D9285E0E936F807D1F7D7CF50
:1009D0003F924F925F926F927F928F929F92AF92CF
:1009E000BF92CF92DF92EF92FF920F931F93CF931C
:1009F000DF9300D000D000D0CDB7DEB7382E6983AA
:100A000060E082E00E94ED002981211102C031E006
:100A100039834981642F70E090E080E00E94860F66
:100A20009B01AC0160E070E080E89FE30E947E11D2
:100A30004B015C010CE412E01E821D828FE790E006
:100A4000831991099C01990F440B550B29833A8313
:100A50004B835C834D815E81BA0190E080E00E940F
:100A6000860F20E030E04FE753E40E947E116B01D7
:100A70007C01AC019B01C501B4010E94C30F2B0195
:100A80003C0120E030E040E85FE3C501B4010E9492
:100A90001211A70196010E9411119B01AC01C30123
:100AA000B2010E947E116B017C0169817A818B8188
:100AB0009C810E94880FA70196010E94C30F0E948B
:100AC000F011630DF80161938F012D813E812F5F3D
:100AD0003F4F3E832D832115314009F0BBCF61E0AC
:100AE00082E026960FB6F894DEBF0FBECDBFDF9131
:100AF000CF911F910F91FF90EF90DF90CF90BF901B
:100B0000AF909F908F907F906F905F904F903F90AD
:100B10000C94ED00CF93DF93D82FC0E060E082E02B
:100B20000E94ED0066E970E080E090E00E949F0185
:100B300061E082E00E94ED0066E970E080E090E014
:100B40000E949F01CF5FDC13E9CFDF91CF91089521
:100B5000CF93DF93D62FCFE7C80F809104018C1776
:100B600039F06C2F80E196E00E947E02C093040170
:100B70006D2F80E196E00E947E0260E480E196E0C5
:100B8000DF91CF910C947E02CF93DF93D62FCFE8E5
:100B9000C80F809104018C1739F06C2F80E196E02A
:100BA0000E947E02C09304016D2F80E196E00E94B6
:100BB0007E0260E480E196E0DF91CF910C947E02AA
:100BC0001F93CF93DF93162FCFE8C80FE42FF0E0E9
:100BD000E45BFD4FD081809104018C1739F06C2FBC
:100BE00080E196E00E947E02C0930401612F80E1C3
:100BF00096E00E947E026D2F80E196E0DF91CF911A
:100C00001F910C947E02282F30E0D901A455BB4FD0
:100C10009C91913091F028F0923081F1933091F1D4
:100C20000895411102C06623C9F1245B3C4F8FEF48
:100C3000F901808381E08C930895662369F092E046
:100C40009C93245B3C4F6091B605680FF90140818D
:100C50008091B2050C94E005442391F0F901E45B26
:100C6000FC4F9081992319F091509083089592E060
:100C70009C936091B605680F41E0EACF61110EC008
:100C800083E0D9CF61110AC0411108C01C92609164
:100C9000B605680F8091B2050C94A8050895282F19
:100CA00030E0D901A45DBA4F9C91913091F028F0C9
:100CB000923081F1933091F10895411102C0662381
:100CC000C9F124533C4F8FEFF901808381E08C936D
:100CD0000895662369F092E09C9324533C4F609101
:100CE000B505680FF90140818091B1050C94E005CC
:100CF000442391F0F901E453FC4F9081992319F0BA
:100D000091509083089592E09C936091B505680F8F
:100D100041E0EACF61110EC083E0D9CF61110AC072
:100D2000411108C01C926091B505680F8091B10512
:100D30000C94A80508958F929F92AF92BF92CF9284
:100D4000DF92EF92FF92CF93DF93EC016A017B0178
:100D50008FB7F8948090BD059090BE05A090BF0518
:100D6000B090C0058FBF80E196E00E943C02892BC5
:100D7000B1F42FB7F8948091BD059091BE05A09174
:100D8000BF05B091C0052FBF88199909AA09BB09F1
:100D90008C159D05AE05BF0530F380E006C080E1EF
:100DA00096E00E941A02888381E0DF91CF91FF9044
:100DB000EF90DF90CF90BF90AF909F908F9008956D
:100DC00080913B070E94E30061E08DEA96E00E947B
:100DD0005E040E94E00080913B079091EB05911129
:100DE000FCCF91E09093EB059093EA052FEF2093D1
:100DF000E90523EC35E03093E8052093E7051092F0
:100E0000E6051092E5059093E4059091E405880FBE
:100E1000892B8093E4058091E305813039F51092A8
:100E2000E3058091E4058093BB008091BC0083FDC5
:100E3000F8CF85EC8093BC008091EB058130E1F325
:100E40008091E605811114C08091E6051092C205DB
:100E50008093C1058DEA96E00E94460323E09595B4
:100E600087952A95E1F780958770089585EEE2CF02
:100E700081E0ECCF8F929F92AF92BF920F931F931E
:100E8000CF93DF93CDB7DEB7A1970FB6F894DEBF4F
:100E90000FBECDBF19A2423008F44AE08E010F5DAB
:100EA0001F4F842E912CB12CA12CA50194010E94DE
:100EB000E910E62FB901CA01EA3044F5E05DD80136
:100EC000EE938D01232B242B252B79F790E080E0E6
:100ED000109769F0FD0101900020E9F73197AF010B
:100EE0004A1B5B0BBD0187E097E00E94DE01A196E3
:100EF0000FB6F894DEBF0FBECDBFDF91CF911F912B
:100F00000F91BF90AF909F908F900895E95CD7CFDD
:100F1000CF92DF92EF92FF920F931F93CF93DF93C5
:100F2000F82EC82FD0E0FE01EF54FA4FC08061E0E8
:100F300080E00E94E2030C2D0C2C000C110B83E0CE
:100F4000F8122EC09C2D86E09802F0011124E15188
:100F5000F94F448155816081718187E097E00E945B
:100F6000DE010E942D0461E08DE00E94E20382E038
:100F70000E942804CE0140960E948110801711061D
:100F800059F161E08FE00E94E2038AE2DF91CF91A4
:100F90001F910F91FF90EF90DF90CF900C94280459
:100FA0000C2C000CDD08EE08FF084AE0C701B60172
:100FB000F7FE0BC08DE20E94280466277727CB013D
:100FC0006C197D098E099F094AE00E943A070E9428
:100FD0002D0461E083E0C9CFDF91CF911F910F9184
:100FE000FF90EF90DF90CF900895CF93C82F60E0EF
:100FF00080E00E94E20386E0C89FF0011124E754DC
:10100000F94F448155816081718187E097E00E94AA
:10101000DE010E942D0460E08FE00E94E20384E084
:101020000E9428048C2FCF910C948807EF92FF9296
:101030000F931F93CF93DF93EC017B0119821882EA
:101040001B821A821D821C82FB0101900020E9F79D
:1010500031978F01061B170BB8016F5F7F4F90E030
:1010600080E00E9444130097B9F0998388831B8322
:101070000A832C813D81232B11F4FC0110821D83F6
:101080000C83B70188819981DF91CF911F910F91D6
:10109000FF90EF900C940A1488819981009711F0C9
:1010A0000E94BB12198218821D821C821B821A8226
:1010B000DF91CF911F910F91FF90EF9008951F92B4
:1010C0000F920FB60F9211244F935F936F937F93FC
:1010D0008F939F934091BD055091BE056091BF05D0
:1010E0007091C0058091BC059091BB05943019F5B5
:1010F0001092BB059091BB0590FD21C08A598D3798
:1011000028F08D574F5F5F4F6F4F7F4F8093BC0527
:101110004093BD055093BE056093BF057093C00515
:101120009F918F917F916F915F914F910F900FBE23
:101130000F901F9018959F5F9093BB05DBCF895947
:10114000DECF1F920F920FB60F9211242F933F9371
:101150004F935F936F937F938F939F93AF93BF93BF
:10116000EF93FF9380E196E00E945C02FF91EF9184
:10117000BF91AF919F918F917F916F915F914F91AF
:101180003F912F910F900FBE0F901F9018951F92B7
:101190000F920FB60F9211242F938F939F93EF937B
:1011A000FF93E0912006F09121068081E0912606D0
:1011B000F091270682FD1BC09081809129068F5FE8
:1011C0008F7320912A06821741F0E0912906F0E002
:1011D000E05FF94F958F80932906FF91EF919F91E2
:1011E0008F912F910F900FBE0F901F9018958081B7
:1011F000F4CF1F920F920FB60F9211242F933F93AB
:101200004F935F936F937F938F939F93AF93BF930E
:10121000EF93FF938091B900887F803609F44AC02C
:10122000F0F5883209F4A7C018F5803109F49BC0A5
:10123000B8F4882309F405C1883009F494C0FF91FB
:10124000EF91BF91AF919F918F917F916F915F913E
:101250004F913F912F910F900FBE0F901F901895B7
:10126000883109F488C0803251F78093E90514C0B1
:10127000803409F4A5C040F48033B9F38833F9F61B
:101280008093E90585ECBCC0803509F489C08835B8
:1012900009F49EC0883499F60E940503D0CF88399E
:1012A00009F494C038F5883729F050F4883611F0E5
:1012B000803729F683E08093EB0510928E0457C0A7
:1012C000883809F483C0803919F0803809F0B7CF25
:1012D00080918E04803208F079C0E0918E0481E024
:1012E0008E0F80938E048091BB00F0E0E259FB4F9B
:1012F00080833DC0803B39F0E0F4803A09F485C03A
:10130000883A09F09CCF84E08093EB0510926D043D
:1013100010926C04E0919104F091920409958091EF
:101320006C0481110FC081E080936C0410924C0416
:1013300009C0803C09F4A6CF883C09F4A3CF883BC0
:1013400009F07DCFE0916D0481E08E0F80936D04F4
:10135000F0E0E45BFB4F80818093BB0090916D04D3
:1013600080916C0431C08091E4058093BB0085ECD2
:101370008093BC0064CF9091E6058091E5059817B5
:10138000B8F58091E7059091E805E091E60521E048
:101390002E0F2093E605E80FF92FF11D8081E5CF90
:1013A0002091E7053091E805E091E60581E08E0F98
:1013B0008093E6058091BB00E20FF32FF11D80833F
:1013C0009091E6058091E505981788F285E8D0CFE1
:1013D0002091E7053091E805E091E60581E08E0F68
:1013E0008093E6058091BB00E20FF32FF11D80830F
:1013F0008091EA05811150CF81E08093E30584EA72
:101400008093BC001092EB051ACF85EC8093BC0052
:101410001092EB0580918E04803230F4E0918E04BE
:10142000F0E0E259FB4F108260918E0470E0E09191
:101430008F04F09190048EE694E0099510928E044A
:10144000FECE1092E90528CF1F920F920FB60F9291
:1014500011242F933F934F935F936F937F938F93B9
:101460009F93AF93BF93EF93FF93E0910001F091AF
:1014700001010995FF91EF91BF91AF919F918F91DC
:101480007F916F915F914F913F912F910F900FBE80
:101490000F901F901895CF93DF93E0E1F6E0138251
:1014A000128288EE93E0A0E0B0E084839583A68367
:1014B000B78322E631E03183208325EC30E03587A5
:1014C000248724EC30E03787268720EC30E0318B0E
:1014D000208B21EC30E0338B228B22EC30E0358BFB
:1014E000248B26EC30E0378B268B118E128E138ED8
:1014F000148EEDEAF6E01382128284839583A6832C
:10150000B78384E791E091838083C7E0D7E01B82B3
:101510001A8286E891E09983888388E0E3E1F1E02C
:10152000ABE0B7E001900D928A95E1F788E0EBE13E
:10153000F1E0A3E1B7E001900D928A95E1F788E030
:10154000E3E2F1E0ABE1B7E001900D928A95E1F7BB
:1015500088E0EBE2F1E0A3E2B7E001900D928A951A
:10156000E1F788E0E3E3F1E0ABE2B7E001900D9250
:101570008A95E1F788E0EBE3F1E0A3E3B7E00190BF
:101580000D928A95E1F780E28CAB80E189AF82E031
:101590008AAF6EE871E08FEE96E00E94160868E967
:1015A00071E085EF96E00E94160866EA71E08BEF25
:1015B00096E00E94160861EB71E081E097E00E94DE
:1015C000160868EB71E089EB96E00E94160866EC5D
:1015D00071E08FEB96E00E94160864ED71E085ECF7
:1015E00096E00E94160862EE71E08BEC96E00E9495
:1015F00016086DEE71E081ED96E00E94160868EF26
:1016000071E087ED96E00E94160863E072E08DEDD0
:1016100096E00E9416086EE072E083EE96E00E946B
:1016200016086CE172E089EE96E0DF91CF910C94A0
:101630001608CF93DF9300D000D000D01F92CDB713
:10164000DEB7789484B5836084BD85B5836085BD3D
:1016500080916E00816080936E0092E09093810093
:101660008091810081608093810080918000816001
:10167000809380008091B10084608093B10080915C
:10168000B00081608093B00087E880937A00109268
:10169000C100E0912006F09121069083E0911C06A4
:1016A000F0911D061082E0911E06F0911F068FE456
:1016B000808310922806E0912406F091250686E0AA
:1016C0008083E0912206F0912306808188698083DF
:1016D000E0912206F091230680818F7D808395E53D
:1016E000892E91E0992E21EBA22E25E0B22E3CE42A
:1016F000C32E31E0D32E43E4E42E41E0F42E00E18A
:1017000010E0C8010E948110782E282F30E0D4010B
:101710008D914D01082E000C990B2817390744F0C4
:10172000F6018081082E000C990B821793075CF458
:10173000D7017C90C8010E948110781621F0672D96
:10174000C8010E948910F50171925F010F5F1F4F60
:10175000FFEFCF1ADF0A8FEFE81AF80A09311105F7
:1017600081F68091B4050E94910480E1809381000C
:101770001092800028E833E13093870020938600A0
:1017800081E18093810041ED51E05093010140934C
:10179000000191E090936F009091B40519160CF040
:1017A000B0C13093870020938600809381006091C0
:1017B000B9058091B8050E94E8041092C205109204
:1017C000C1051092ED0510920F061092EB0511E085
:1017D0001093EA051092E30561E082E10E94ED00BA
:1017E00061E083E10E94ED008091B9008E7F8093DB
:1017F000B9008091B9008D7F8093B9008CE580930A
:10180000B80085E48093BC008CED91E09093920445
:10181000809391048DED91E09093900480938F04D8
:1018200081E18093B80080E20E94E30081E00E94A1
:101830008800811169C11093AF0562E370E080E018
:1018400090E00E949F0188E180933C0712E0109392
:101850003F0786E089831A8280913B070E94E3005C
:1018600042E050E0BE016F5F7F4F8DEA96E00E943C
:1018700060030E94E00087E0898308EF0A8380917B
:101880003B070E94E30042E050E0BE016F5F7F4FE4
:101890008DEA96E00E9460030E94E00019831A829C
:1018A0000B8380913B070E94E30043E050E0BE01C0
:1018B0006F5F7F4F8DEA96E00E9460030E94E00018
:1018C00061E070E080E090E00E949F0160913C0741
:1018D000606240E087E097E00E948D0384E080939F
:1018E0003D0740E06CE087E097E00E948D03109395
:1018F0003E0740E066E087E097E00E948D0340E00D
:1019000061E087E097E00E948D0362E070E080E094
:1019100090E00E949F011092420740E062E087E061
:1019200097E00E948D0362E070E080E090E00E940A
:101930009F011092420760E080E00E94E2034DE0C8
:1019400050E06BE272E087E097E00E94DE0161E028
:1019500080E00E94E2034CE050E069E372E087E03F
:1019600097E00E94DE016BE077E080E00E943F0498
:1019700063E177E081E00E943F046BE177E082E081
:101980000E943F0463E277E083E00E943F046BE241
:1019900077E084E00E943F0463E377E085E00E9403
:1019A0003F0483E00E948A058091AE050E94F507FE
:1019B0008091B1050E94CB028091B2050E94CB02BA
:1019C0008091B3050E94CB0210E1E12E17E2F12EC7
:1019D00008E8C02E03E1D02E80E0A82E80E0B82ECB
:1019E00066246394A2E07A2EB1E15B2E8091BA0561
:1019F000882309F47AC11092BA0585B18C7F982F9B
:101A00009863492E282F2A63982F9B638963982E09
:101A100025B900000000000095B90000000000009A
:101A200045B803E914E0812C93B19072D8018D91EF
:101A30008D01981761F0FD01319790836091B70592
:101A4000680D8091B305911163C00E94C40595B8DB
:101A500000000000000045B88394B9E18B12E4CF88
:101A60008091B405813009F456C0823009F4BAC0BF
:101A700081118EC085B18C7F982F9863292E282FD5
:101A80002A63982F9B638963482E25B900000000C4
:101A9000000095B900000000000025B83CE2832E4C
:101AA00035E0932E0CEA14E044E2342E93B19870A2
:101AB000D4018D914D01981751F0FD01319790831C
:101AC0008091B105632D9111D8C00E94C40593B1D6
:101AD0009071F80181918F01981749F031979083A7
:101AE0008091B205632D9111CBC00E94C40545B809
:101AF00000000000000025B83394F1E63F12D6CF75
:101B000047C020E137E24DCE85E00E948A0550CFE4
:101B10000E94A8059CCF0BB1077E902E689494F884
:101B2000292CE89424F8E22DE860EE8308619BB844
:101B300010E0812C85B1887F882985B981E090E00B
:101B40000E9439012BB8FE81FBB99BB8412C10349F
:101B500008F0105469B189B18F830BB99BB80000AC
:101B600049B139B040746074812F0E944F06432DF3
:101B700040786F816078812F0E94030688E0810F92
:101B8000439498E049122AC0175F83948912D2CFF8
:101B900080E196E00E943C02892B09F4A6C042E352
:101BA00050E060E070E0CE0105960E949B066D81DA
:101BB00067FF13C1609302011092AD05603D08F00C
:101BC00062C0603C08F064C0603B28F4603A18F4DE
:101BD000603808F471C07092AC055CC00BB99BB85A
:101BE000182FB5CF1BB11770A12FA061AE83912F15
:101BF000906205B1087FB02FB160BF83802F8260F3
:101C00009BB985B9000000001BB905B9F8E08F2E1B
:101C1000312C81E090E00E943901E8E04E2EEFE3A4
:101C200070EC972E930CE31508F0932C69B139B042
:101C300043B129B0FF81F5B90000000005B9447037
:101C40006870892D0E944F06422D4074632D607884
:101C5000892D0E94030668E0362E390C4A94411003
:101C6000DECF8E818BB9000000001BB959E0352E04
:101C7000390C8A948110CDCF8BCF0E94A80527CF35
:101C80000E94A80534CF603F68F4603E08F0A3CFFF
:101C90006092AC0580E196E00E947E028D81809387
:101CA000040123C0613F09F495C048F0623F09F484
:101CB0008EC0633F09F48EC01092AC0516C08FEF42
:101CC000898349E150E060E070E0CE0101960E9416
:101CD0009B069981973F11F08111F1CF1092AC05CD
:101CE0001092040197EF909302018091B0058770E4
:101CF00009F061C08091AF05882309F45CC086B10A
:101D000090E09595879595958795837090910301BF
:101D1000891761F080930301911108C0823009F4A2
:101D200081C04FEF5FEF813009F47EC00E94E00672
:101D3000182F882309F43FC08091AE050E94F50753
:101D400011FF0CC08091AE05882309F4B9C0815001
:101D50008093AE058091AE050E94F50712FF0CC07E
:101D60008091AE05883008F0AFC08F5F8093AE05DC
:101D70008091AE050E94F50710FF19C00091AE05D5
:101D800010E0F801EF54FA4F9080005F1F4FC80138
:101D90000E948110981621F0692DC8010E948910B7
:101DA0008091AE050E94F50781E00E948A050E949D
:101DB000E0068111FCCFA114B10409F417CE0E94F2
:101DC0004802882309F40ECE0E9400000BCE7092C8
:101DD000AC058BCF6092AC0588CF9090AC05992074
:101DE00009F483CF1091AD051F5F1093AD050091ED
:101DF000020180910401801739F0602F80E196E0A4
:101E00000E947E02009304016D8180E196E00E94B1
:101E10007E02812F692D0E94DD10911166CF1092F4
:101E2000AD0563CF41E050E08091AE05282F30E052
:101E3000F901EF54FA4F9081BA01690F711D97FDB6
:101E40007A95D901AB5ABE4F1C91A12F012E000CDF
:101E5000BB0B6A177B070CF510830E9488078091E3
:101E6000AE05833069F41091B405812F0E9491046E
:101E700011160CF5D0928700C09286005092810016
:101E80008091AE058750823008F050CF6091B9053F
:101E90008091B8050E94E80449CF245B3E4FD901E8
:101EA0001C91212F012E000C330B26173707A4F2AB
:101EB000490F4083D2CFF0928700E0928600DECFB8
:101EC000B8E0B093AE0546CF1092AE0551CFCF9398
:101ED000DF93CFEED6E0269788819981009711F0A5
:101EE0000E94BB1286E0C93BD807A9F7C7E0D7E03C
:101EF000269788819981009711F00E94BB1286E095
:101F0000CF3ED807A9F7DF91CF910895E89409C093
:101F100097FB3EF490958095709561957F4F8F4F1C
:101F20009F4F9923A9F0F92F96E9BB279395F69532
:101F3000879577956795B795F111F8CFFAF4BB0FB0
:101F400011F460FF1BC06F5F7F4F8F4F9F4F16C014
:101F5000882311F096E911C0772321F09EE8872F9E
:101F6000762F05C0662371F096E8862F70E060E05A
:101F70002AF09A95660F771F881FDAF7880F9695D3
:101F8000879597F908950E94D60F0C9447100E94E8
:101F9000391038F00E94401020F0952311F00C9475
:101FA00030100C94361011240C947B100E945810A1
:101FB00070F3959FC1F3950F50E0551F629FF0019C
:101FC000729FBB27F00DB11D639FAA27F00DB11DB5
:101FD000AA1F649F6627B00DA11D661F829F22273E
:101FE000B00DA11D621F739FB00DA11D621F839FC5
:101FF000A00D611D221F749F3327A00D611D231F9B
:10200000849F600D211D822F762F6A2F11249F57E8
:1020100050409AF0F1F088234AF0EE0FFF1FBB1FEB
:10202000661F771F881F91505040A9F79E3F5105AA
:1020300080F00C9430100C947B105F3FE4F3983EDA
:10204000D4F3869577956795B795F795E7959F5F54
:10205000C1F7FE2B880F911D9695879597F90895E6
:1020600097F99F6780E870E060E008959FEF80EC4B
:10207000089500240A9416161706180609060895EE
:1020800000240A9412161306140605060895092E54
:102090000394000C11F4882352F0BB0F40F4BF2BC3
:1020A00011F460FF04C06F5F7F4F8F4F9F4F089503
:1020B00057FD9058440F551F59F05F3F71F04795F9
:1020C000880F97FB991F61F09F3F79F087950895DE
:1020D000121613061406551FF2CF4695F1DF08C0FD
:1020E000161617061806991FF1CF8695710561051A
:1020F00008940895E894BB2766277727CB0197F9C2
:102100000895F999FECF92BD81BDF89A992780B5BF
:102110000895262FF999FECF1FBA92BD81BD20BD2B
:102120000FB6F894FA9AF99A0FBE019608952F9275
:102130003F924F925F926F927F928F929F92AF9257
:10214000BF92CF92DF92EF92FF920F931F93CF93A4
:10215000DF93CDB7DEB7CA1BDB0B0FB6F894DEBF3B
:102160000FBECDBF09942A88398848885F846E8461
:102170007D848C849B84AA84B984C884DF80EE80AB
:10218000FD800C811B81AA81B981CE0FD11D0FB6B4
:10219000F894DEBF0FBECDBFED010895A29FB00140
:1021A000B39FC001A39F700D811D1124911DB29F8B
:1021B000700D811D1124911D0895991B79E004C0B3
:1021C000991F961708F0961B881F7A95C9F7809576
:1021D0000895A1E21A2EAA1BBB1BFD010DC0AA1F68
:1021E000BB1FEE1FFF1FA217B307E407F50720F080
:1021F000A21BB30BE40BF50B661F771F881F991FFB
:102200001A9469F760957095809590959B01AC0143
:10221000BD01CF010895EE0FFF1F0590F491E02D51
:1022200009945058BB27AA270E9429110C944710E3
:102230000E94391038F00E94401020F039F49F3F7E
:1022400019F426F40C9436100EF4E095E7FB0C9488
:102250003010E92F0E94581058F3BA17620773071D
:102260008407950720F079F4A6F50C947A100EF403
:10227000E0950B2EBA2FA02D0B01B90190010C0196
:10228000CA01A0011124FF27591B99F0593F50F4AE
:10229000503E68F11A16F040A22F232F342F442706
:1022A000585FF3CF469537952795A795F0405395FE
:1022B000C9F77EF41F16BA0B620B730B840BBAF0CE
:1022C0009150A1F0FF0FBB1F661F771F881FC2F739
:1022D0000EC0BA0F621F731F841F48F4879577954D
:1022E0006795B795F7959E3F08F0B0CF9395880F07
:1022F00008F09927EE0F9795879508950E949211FF
:102300000C9447100E94401058F00E94391040F081
:1023100029F45F3F29F00C94301051110C947B107C
:102320000C9436100E94581068F39923B1F355238A
:1023300091F3951B550BBB27AA27621773078407D8
:1023400038F09F5F5F4F220F331F441FAA1FA9F36E
:1023500035D00E2E3AF0E0E832D091505040E6955C
:10236000001CCAF72BD0FE2F29D0660F771F881FBD
:10237000BB1F261737074807AB07B0E809F0BB0BB0
:10238000802DBF01FF2793585F4F3AF09E3F5105C4
:1023900078F00C9430100C947B105F3FE4F3983E7F
:1023A000D4F3869577956795B795F7959F5FC9F7AD
:1023B000880F911D9695879597F90895E1E0660F2E
:1023C000771F881FBB1F621773078407BA0720F0A7
:1023D000621B730B840BBA0BEE1F88F7E095089510
:1023E0000E94601088F09F5798F0B92F9927B75135
:1023F000B0F0E1F0660F771F881F991F1AF0BA95A9
:10240000C9F714C0B13091F00E947A10B1E008957C
:102410000C947A10672F782F8827B85F39F0B93F6E
:10242000CCF3869577956795B395D9F73EF490955B
:102430008095709561957F4F8F4F9F4F08950F93B3
:102440001F93CF93DF938230910510F482E090E0E8
:10245000E0914507F091460730E020E0B0E0A0E0D1
:10246000309799F42115310509F44AC0281B390B1E
:1024700024303105D8F58A819B816115710589F178
:10248000FB0193838283FE0111C04081518102814F
:10249000138148175907E0F04817590799F4109726
:1024A00061F012960C93129713961C933296CF01FB
:1024B000DF91CF911F910F910895009345071093DD
:1024C0004607F4CF2115310551F04217530738F074
:1024D000A901DB019A01BD01DF01F801C1CFEF01C4
:1024E000F9CF9093460780934507CDCFFE01E20FC9
:1024F000F31F819391932250310939832883D7CFD9
:102500002091430730914407232B41F42091070188
:10251000309108013093440720934307209105012F
:10252000309106012115310541F42DB73EB7409198
:10253000090150910A01241B350BE0914307F091EA
:102540004407E217F307A0F42E1B3F0B28173907A7
:1025500078F0AC014E5F5F4F2417350748F04E0FFF
:102560005F1F5093440740934307819391939FCFFC
:10257000F0E0E0E09CCFCF93DF930097E9F0FC011F
:10258000329713821282A0914507B0914607ED0160
:1025900030E020E01097A1F420813181820F931F59
:1025A00020914307309144072817390709F061C08B
:1025B000F0934407E0934307DF91CF910895EA0138
:1025C000CE17DF07E8F54A815B819E014115510571
:1025D000B1F7E901FB83EA8349915991C40FD51FF3
:1025E000EC17FD0761F4808191810296840F951F9D
:1025F000E90199838883828193819B838A83F0E0B8
:10260000E0E012968D919C9113970097B9F52D916A
:102610003C911197CD010296820F931F20914307A1
:10262000309144072817390739F6309751F5109241
:10263000460710924507B0934407A0934307BCCFC9
:10264000D383C28340815181840F951FC817D90756
:1026500061F44E5F5F4F88819981480F591F518304
:1026600040838A819B81938382832115310509F000
:10267000B0CFF0934607E09345079ECFFD01DC0104
:10268000C0CF13821282D7CFB0E0A0E0EAE4F3E13A
:102690000C9499108C01009751F4CB010E941F12E9
:1026A0008C01C801CDB7DEB7E0E10C94B510FC0198
:1026B000E60FF71F9C0122503109E217F30708F4D7
:1026C0009DC0D901CD91DC911197C617D70798F01D
:1026D000C530D10530F3CE0104978617970708F36C
:1026E000C61BD70B2297C193D1936D937C93CF01D7
:1026F0000E94BB12D6CF5B01AC1ABD0A4C018C0EF6
:102700009D1EA0914507B0914607512C412CF12CFC
:10271000E12C109731F5809143079091440788157B
:10272000990509F05CC04616570608F058C080911C
:10273000050190910601009741F48DB79EB7409135
:10274000090150910A01841B950BE817F90708F05D
:1027500055C0F0934407E0934307F9017183608308
:10276000A0CF8D919C91119712966C901297139611
:102770007C901397A815B90559F56C0142E0C40E79
:10278000D11CCA14DB0420F1AC014A195B09DA013F
:102790001296159780F06282738251834083D9012B
:1027A0006D937C93E114F10471F0D7011396FC93BF
:1027B000EE93129776CF22968C0F9D1FF90191838D
:1027C0008083F301EFCFF0934607E093450769CF8D
:1027D0004816590608F42C017D01D3019ACFCB018C
:1027E0000E941F127C01009749F0AE01B8010E94BF
:1027F0000114C8010E94BB12870153CF10E000E012
:1028000050CFFB01DC0102C001900D9241505040BD
:10281000D8F70895FB01DC0101900D920020E1F74B
:10282000089510E0CDE5D0E004C0FE010E940B1138
:0C2830002196CE35D107C9F7F894FFCFF0
:10283C009004FF03FF0000470780000000400014D5
:10284C00005400040E1504040404000404040415CC
:10285C000E040002060E1E0E06020002040A140AE2
:10286C00040200040E1F001F0E0400040A150015BC
:10287C000A0400010203012424240A0A1010100384
:10288C003C3C3C2814010101000C0C0C0000000025
:10289C0000007E02DE010B02E4023C021A022E0250
:1028AC00000000005E0460038D04360359034603E8
:1028BC003703000000001A04DE018D040403536387
:1028CC00616E31362F36310046617461725363612B
:1028DC006E312D36310046617461725363616E3214
:1028EC0000437573746F6D0055707065722043688A
:1028FC00616E6E656C004C6F776572204368616E1B
:10290C006E656C00506564616C204368616E6E6529
:10291C006C004B626420447269766572005570706D
:10292C0065722042617365004C6F7765722042615D
:10293C00736500506564616C204261736500566577
:10294C006C6F63697479204D696E2E0056656C6FDF
:10295C006369747920536C6F7065004661746172A1
:10296C005363616E4374726C00432E4D65796572CE
:06297C002032303236006B
:00000001FF
