:100000000C945E000C9486000C9486000C94860080
:100010000C9486000C9486000C9486000C94860048
:100020000C9486000C9486000C9486000C94860038
:100030000C9486000C94F6090C9486000C948600AF
:100040000C9429080C9486000C9499080C9473085D
:100050000C9486000C9486000C9486000C94860008
:100060000C94CB080C9486000000000025002800AA
:100070002B00040404040404040402020202020229
:1000800003030303030302020301020408102040D8
:100090008001020408102001020408102040804062
:1000A0000000000900030200000405080000000031
:1000B00000000000000000001D0A390F11241FBEBF
:1000C000CFEFD8E0DEBFCDBF27E0A6E4B2E001C0AD
:1000D0001D92AA34B207E1F712E0A0E0B1E0E2EC31
:1000E000F7E202C005900D92A634B107D9F710E0EF
:1000F000CDE5D0E004C02197FE010E94CE10CC35A2
:10010000D107C9F70E94EB0A0C94D4130C94000099
:10011000282F9091120681E0913208F042C0809120
:10012000EE058111FCCF8091110632E03093EE058F
:100130002093ED052FEF2093EC0521EF35E0309370
:10014000EB052093EA051092E9059093E8051092DB
:10015000E7059091E705880F892B8093E70580914B
:10016000E605813029F51092E6058091E705809338
:10017000BB008091BC0083FDF8CF85EC8093BC0070
:100180008091EE058230E1F38091EC058F3F91F094
:100190008091EC05803281F08091EC05803371F024
:1001A00084E01092F005109212061092EF05089567
:1001B00085EEE4CF80E0F5CF82E0F3CF83E0F1CFAE
:1001C00081E00C94880091E09093EF0580931106F4
:1001D0001092F00510921206089590E0FC01E0568E
:1001E000FF4F2491FC01E757FF4F3491FC01EE587B
:1001F000FF4FE491EE23C9F0222339F0243001F1BE
:10020000A8F4223069F1233079F1F0E0EE0FFF1FFE
:10021000E859FF4FA591B4918FB7F894EC91611113
:1002200026C030953E233C938FBF0895283071F04F
:10023000293091F0253049F7809180008F7D03C0EF
:10024000809180008F7780938000DFCF8091B00015
:100250008F778093B000D9CF8091B0008F7DF9CF98
:1002600084B58F7784BDD1CF84B58F7DFBCF3E2BF6
:10027000DACF8130910539F0880F991F880F991FC7
:1002800005970197F1F708953FB7F8948091C0055D
:100290009091C105A091C205B091C30526B5A89B58
:1002A00005C02F3F19F00196A11DB11D3FBFBA2F08
:1002B000A92F982F8827BC01CD01620F711D811DC8
:1002C000911D42E0660F771F881F991F4A95D1F74D
:1002D00008958F929F92AF92BF92CF92DF92EF924A
:1002E000FF924B015C010E9444016B017C010E9462
:1002F00044016C197D098E099F09683E7340810590
:100300009105A8F321E0821A9108A108B10888EEAE
:10031000C80E83E0D81EE11CF11C81149104A104D5
:10032000B10429F7FF90EF90DF90CF90BF90AF908E
:100330009F908F9008958091BA058F5F8093BA0542
:100340008091B0058F5F8093B0050895089508955A
:10035000AF92BF92CF92DF92EF92FF920F931F93D3
:10036000CF93DF936C017B018B01040F151FEB0111
:100370005E01AE18BF08C017D10759F06991D601C8
:10038000ED91FC910190F081E02DC6010995892B3A
:1003900079F7C501DF91CF911F910F91FF90EF90F9
:1003A000DF90CF90BF90AF900895FC01538D448DA6
:1003B000252F30E0842F90E0821B930B541710F010
:1003C000CF96089501970895FC01918D828D98171D
:1003D00061F0A28DAE0FBF2FB11D5D968C91928DF5
:1003E0009F5F9F73928F90E008958FEF9FEF089526
:1003F000FC01918D828D981731F0828DE80FF11DEF
:10040000858D90E008958FEF9FEF0895FC01918D09
:10041000228D892F90E0805C9F4F821B91098F7302
:100420009927089583E196E00E94060221E0892B36
:1004300009F420E0822F089580E090E0892B29F0D4
:100440000E94120281110C9400000895FC01A48DF9
:10045000A80FB92FB11DA35ABF4F2C91848D90E0E6
:1004600001968F739927848FA689B7892C93A089C9
:10047000B1898C91837080648C93938D848D981353
:1004800006C00288F389E02D80818F7D80830895E6
:10049000EF92FF920F931F93CF93DF93EC0181E0D4
:1004A000888F9B8D8C8D98131AC0E889F98980817B
:1004B00085FF15C09FB7F894EE89FF896083E889AE
:1004C000F98980818370806480839FBF81E090E0A0
:1004D000DF91CF911F910F91FF90EF900895F62E2D
:1004E0000B8D10E00F5F1F4F0F731127E02E8C8DC7
:1004F0008E110CC00FB607FCFACFE889F98980810C
:1005000085FFF5CFCE010E942602F1CFEB8DEC0FD7
:10051000FD2FF11DE35AFF4FF0829FB7F8940B8F28
:10052000EA89FB8980818062CFCFCF93CFEAC80F61
:1005300080910401C81739F06C2F83E196E00E9486
:100540004802C09304016BE783E196E00E944802F1
:1005500060E083E196E0CF910C944802CF93DF9363
:10056000EC01888D8823B9F0AA89BB89E889F989CB
:100570008C9185FD03C0808186FD0DC00FB607FC00
:10058000F7CF8C9185FFF2CF808185FFEDCFCE0133
:100590000E942602E9CFDF91CF910895089585ED5D
:1005A0008093BC008091BC0084FDFCCF1092EE05CE
:1005B000089520916C04260F3327331F2132310513
:1005C000ECF42091EE05FC0190E080E0243069F02D
:1005D00082E00895A0916C042191AC01445B5B4FD3
:1005E000A40FB52FB11D2C930196861798F3809117
:1005F0006C04680F60936C0480E0089581E00895B6
:100600000895E091C5058091C405E81730F4F0E045
:10061000EA53FA4F808190E008958FEF9FEF08959D
:100620009091C5058091C4052FEF3FEF981748F4CE
:10063000E92FF0E0EA53FA4F208130E09F5F90937A
:10064000C505C90108958091C4059091C505891B10
:10065000990B0895CF92DF92EF92FF920F931F9321
:10066000CF93DF937C01CB018A012091EF052223F8
:1006700089F0EB016B01C40ED51ECC15DD0569F0C8
:100680006991D701ED91FC910190F081E02DC701B6
:100690000995F3CF642F0E94D902C801DF91CF9151
:1006A0001F910F91FF90EF90DF90CF900895EF9200
:1006B000FF921F93CF93DF9300D000D0CDB7DEB76A
:1006C0007C01142F82E089836A834B83F70184A91C
:1006D0000E94E30043E050E0BE016F5F7F4F80EB7C
:1006E00096E00E942A030E94E00083E08983812F24
:1006F000896F8A83F70184A90E94E30042E050E0F9
:10070000BE016F5F7F4F80EB96E00E942A030E943C
:10071000E00085E090E00E943901186F1A83F7012C
:1007200084A90E94E30042E050E0BE016F5F7F4F6A
:1007300080EB96E00E942A030E94E00082E390E0B2
:100740000E9439010F900F900F900F90DF91CF9181
:100750001F91FF90EF9008951F93CF93DF93CDB734
:10076000DEB728970FB6F894DEBF0FBECDBF182FA7
:1007700088E0EBE0F1E0DE01119601900D928A95A0
:10078000E1F780914207861708F46FEF70E0660F7B
:10079000771F81E090E08C0F9D1F680F791FFB0190
:1007A0006081610F606840E08AE097E00E94570333
:1007B0001093450728960FB6F894DEBF0FBECDBF45
:1007C000DF91CF911F910895CF93DF93EC0144E027
:1007D0000E9457038BAD8F5F8BAF81E090E0DF917C
:1007E000CF910895682F8AE097E00C94E403CF93AB
:1007F000C091450780914307C81738F460E28AE04A
:1008000097E00E94E403CF5FF5CF80934507CF9137
:1008100008950F931F93CF93DF938B0198E0899FE7
:10082000B0011124606440E08AE097E00E94570321
:10083000E801085F1F4F69918AE097E00E94E40396
:10084000C017D107C1F7DF91CF911F910F91089584
:10085000CF93DF931F92CDB7DEB769832091EF0569
:100860002223F9F020911206203258F021E030E0E6
:10087000FC013383228390E080E00F90DF91CF91E1
:1008800008958091F005E82FF0E0EF50FA4F99813C
:1008900090838F5F8093F0058093120681E090E053
:1008A000ECCF61E0CE0101960E94D902F7CF90E033
:1008B00080E00895089517B89CE098B98130B9F0A8
:1008C0008230E9F183E084B988E385B986E08AB9AA
:1008D0008EEF8BB9ECE2F5E0ACEAB4E098E080E1B1
:1008E00091938D9325E0EC36F207D1F712C087E0A3
:1008F00084B988E385B98EE38AB986E18BB9ECE2E5
:10090000F5E0ACEAB4E011921D9225E0E936F20779
:10091000D1F7ECECF3E0ACE4B3E029E034E08FEFA6
:1009200081938D932E173F07D9F7E3E9F4E08CEA22
:1009300094E020E221938E179F07E1F7089583E06A
:1009400084B988E385B986E38AB986E08BB9ECE29D
:10095000F5E0ACEAB4E011921D9285E0E936F807C3
:10096000D1F7D7CF3F924F925F926F927F928F9243
:100970009F92AF92BF92CF92DF92EF92FF920F932E
:100980001F93CF93DF9300D000D000D0CDB7DEB758
:10099000382E698360E082E00E94ED0029812111F8
:1009A00002C031E039834981642F70E090E080E03B
:1009B0000E94580F9B01AC0160E070E080E89FE36B
:1009C0000E9441114B015C010CE412E01E821D8269
:1009D0008FE790E0831991099C01990F440B550B07
:1009E00029833A834B835C834D815E81BA0190E019
:1009F00080E00E94580F20E030E04FE753E40E946F
:100A000041116B017C01AC019B01C501B4010E9445
:100A1000950F2B013C0120E030E040E85FE3C50189
:100A2000B4010E94D510A70196010E94D4109B0129
:100A3000AC01C301B2010E9441116B017C016981CB
:100A40007A818B819C810E945A0FA70196010E9496
:100A5000950F0E94B311630DF80161938F012D81F1
:100A60003E812F5F3F4F3E832D832115314009F09A
:100A7000BBCF61E082E026960FB6F894DEBF0FBED2
:100A8000CDBFDF91CF911F910F91FF90EF90DF903D
:100A9000CF90BF90AF909F908F907F906F905F901E
:100AA0004F903F900C94ED00CF93DF93D82FC0E090
:100AB00060E082E00E94ED0066E970E080E090E096
:100AC0000E94690161E082E00E94ED0066E970E049
:100AD00080E090E00E946901CF5FDC13E9CFDF91F5
:100AE000CF910895CF93DF93D62FCFE7C80F809192
:100AF00004018C1739F06C2F83E196E00E944802C4
:100B0000C09304016D2F83E196E00E94480260E4E7
:100B100083E196E0DF91CF910C944802CF93DF936D
:100B2000D62FCFE8C80F809104018C1739F06C2FB5
:100B300083E196E00E944802C09304016D2F83E197
:100B400096E00E94480260E483E196E0DF91CF9155
:100B50000C9448021F93CF93DF93162FCFE8C80F52
:100B6000E42FF0E0E45BFD4FD081809104018C170D
:100B700039F06C2F83E196E00E944802C093040193
:100B8000612F83E196E00E9448026D2F83E196E099
:100B9000DF91CF911F910C944802282F30E0D901AA
:100BA000A455BB4F9C91913091F028F0923081F187
:100BB000933091F10895411102C06623C9F1245B7D
:100BC0003C4F8FEFF901808381E08C930895662379
:100BD00069F092E09C93245B3C4F6091B605680FEE
:100BE000F90140818091B2050C94AA05442391F04B
:100BF000F901E45BFC4F9081992319F091509083A7
:100C0000089592E09C936091B605680F41E0EACFA9
:100C100061110EC083E0D9CF61110AC0411108C033
:100C20001C926091B605680F8091B2050C94720514
:100C30000895282F30E0D901A45DBA4F9C919130DE
:100C400091F028F0923081F1933091F108954111A3
:100C500002C06623C9F124533C4F8FEFF901808312
:100C600081E08C930895662369F092E09C9324536D
:100C70003C4F6091B505680FF90140818091B10545
:100C80000C94AA05442391F0F901E453FC4F9081A0
:100C9000992319F091509083089592E09C9360916C
:100CA000B505680F41E0EACF61110EC083E0D9CFEE
:100CB00061110AC0411108C01C926091B505680F0E
:100CC0008091B1050C94720508958F929F92AF9216
:100CD000BF92CF92DF92EF92FF92CF93DF93EC011E
:100CE0006A017B018FB7F8948090BC059090BD0598
:100CF000A090BE05B090BF058FBF83E196E00E9433
:100D00000602892BB1F42FB7F8948091BC0590911D
:100D1000BD05A091BE05B091BF052FBF88199909E7
:100D2000AA09BB098C159D05AE05BF0530F380E00F
:100D300006C083E196E00E94E401888381E0DF91B0
:100D4000CF91FF90EF90DF90CF90BF90AF909F90AA
:100D50008F90089580913E070E94E30061E080EB50
:100D600096E00E9428040E94E00080913E07909146
:100D7000EE059111FCCF91E09093EE059093ED0577
:100D80002FEF2093EC0526EC35E03093EB05209314
:100D9000EA051092E9051092E8059093E705909115
:100DA000E705880F892B8093E7058091E605813060
:100DB00039F51092E6058091E7058093BB0080919C
:100DC000BC0083FDF8CF85EC8093BC008091EE05DC
:100DD0008130E1F38091E905811114C08091E9052A
:100DE0001092C5058093C40580EB96E00E94100325
:100DF00023E0959587952A95E1F78095877008956A
:100E000085EEE2CF81E0ECCF8F929F92AF92BF92BE
:100E10000F931F93CF93DF93CDB7DEB7A1970FB694
:100E2000F894DEBF0FBECDBF19A2423008F44AE0ED
:100E30008E010F5D1F4F842E912CB12CA12CA5018A
:100E400094010E94AC10E62FB901CA01EA3044F5C2
:100E5000E05DD801EE938D01232B242B252B79F710
:100E600090E080E0109769F0FD0101900020E9F723
:100E70003197AF014A1B5B0BBD018AE097E00E94EE
:100E8000A801A1960FB6F894DEBF0FBECDBFDF91CB
:100E9000CF911F910F91BF90AF909F908F90089529
:100EA000E95CD7CFCF92DF92EF92FF920F931F931F
:100EB000CF93DF93F82EC82FD0E0FE01EF54FA4F06
:100EC000C08061E080E00E94AC030C2D0C2C000C73
:100ED000110B83E0F8122EC09C2D86E09802F001E1
:100EE0001124EE50F94F44815581608171818AE06F
:100EF00097E00E94A8010E94F70361E08DE00E9444
:100F0000AC0382E00E94F203CE0140960E9453108F
:100F10008017110659F161E08FE00E94AC038AE26C
:100F2000DF91CF911F910F91FF90EF90DF90CF90C5
:100F30000C94F2030C2C000CDD08EE08FF084AE0CC
:100F4000C701B601F7FE0BC08DE20E94F2036627CF
:100F50007727CB016C197D098E099F094AE00E9411
:100F600004070E94F70361E083E0C9CFDF91CF91CE
:100F70001F910F91FF90EF90DF90CF900895CF9346
:100F8000C82F60E080E00E94AC0386E0C89FF001BB
:100F90001124E454F94F44815581608171818AE0C4
:100FA00097E00E94A8010E94F70360E08FE00E9492
:100FB000AC0384E00E94F2038C2FCF910C94520773
:100FC000EF92FF920F931F93CF93DF93EC017B017E
:100FD000198218821B821A821D821C82FB010190D9
:100FE0000020E9F731978F01061B170BB8016F5FDF
:100FF0007F4F90E080E00E9407130097B9F099833B
:1010000088831B830A832C813D81232B11F4FC01EF
:1010100010821D830C83B70188819981DF91CF9164
:101020001F910F91FF90EF900C94CD1388819981BF
:10103000009711F00E947E12198218821D821C8274
:101040001B821A82DF91CF911F910F91FF90EF9039
:1010500008951F920F920FB60F9211242F933F9372
:101060008F939F93AF93BF938091BC059091BD05E3
:10107000A091BE05B091BF053091BB0523E0230FC1
:101080002D3768F126E8230F0296A11DB11D20938C
:10109000BB058093BC059093BD05A093BE05B0939E
:1010A000BF058091C0059091C105A091C205B09186
:1010B000C3050196A11DB11D8093C0059093C10584
:1010C000A093C205B093C305BF91AF919F918F913B
:1010D0003F912F910F900FBE0F901F901895019682
:1010E000A11DB11DD4CF1F920F920FB60F921124E4
:1010F0002F933F934F935F936F937F938F939F9320
:10110000AF93BF93EF93FF9383E196E00E94260293
:10111000FF91EF91BF91AF919F918F917F916F91CF
:101120005F914F913F912F910F900FBE0F901F90A5
:1011300018951F920F920FB60F9211242F938F9331
:101140009F93EF93FF93E0912306F0912406808113
:10115000E0912906F0912A0682FD1BC090818091C2
:101160002C068F5F8F7320912D06821741F0E0913E
:101170002C06F0E0ED5EF94F958F80932C06FF91E1
:10118000EF919F918F912F910F900FBE0F901F9015
:1011900018958081F4CF1F920F920FB60F921124F1
:1011A0002F933F934F935F936F937F938F939F936F
:1011B000AF93BF93EF93FF938091B900887F803600
:1011C00009F44AC0F0F5883209F4A7C018F5803157
:1011D00009F49BC0B8F4882309F405C1883009F4E8
:1011E00094C0FF91EF91BF91AF919F918F917F91AB
:1011F0006F915F914F913F912F910F900FBE0F9084
:101200001F901895883109F488C0803251F7809377
:10121000EC0514C0803409F4A5C040F48033B9F360
:101220008833F9F68093EC0585ECBCC0803509F471
:1012300089C0883509F49EC0883499F60E94CF028F
:10124000D0CF883909F494C038F5883729F050F4A4
:10125000883611F0803729F683E08093EE051092EE
:101260008E0457C0883809F483C0803919F080385B
:1012700009F0B7CF80918E04803208F079C0E091F8
:101280008E0481E08E0F80938E048091BB00F0E08D
:10129000E259FB4F80833DC0803B39F0E0F4803A57
:1012A00009F485C0883A09F09CCF84E08093EE056C
:1012B00010926D0410926C04E0919104F0919204EC
:1012C000099580916C0481110FC081E080936C04BA
:1012D00010924C0409C0803C09F4A6CF883C09F464
:1012E000A3CF883B09F07DCFE0916D0481E08E0FA4
:1012F00080936D04F0E0E45BFB4F80818093BB0042
:1013000090916D0480916C0431C08091E7058093C9
:10131000BB0085EC8093BC0064CF9091E90580917F
:10132000E8059817B8F58091EA059091EB05E091F2
:10133000E90521E02E0F2093E905E80FF92FF11DB3
:101340008081E5CF2091EA053091EB05E091E90538
:1013500081E08E0F8093E9058091BB00E20FF32FAF
:10136000F11D80839091E9058091E805981788F236
:1013700085E8D0CF2091EA053091EB05E091E905B1
:1013800081E08E0F8093E9058091BB00E20FF32F7F
:10139000F11D80838091ED05811150CF81E0809314
:1013A000E60584EA8093BC001092EE051ACF85EC26
:1013B0008093BC001092EE0580918E04803230F450
:1013C000E0918E04F0E0E259FB4F108260918E04B0
:1013D00070E0E0918F04F09190048EE694E009951E
:1013E00010928E04FECE1092EC0528CF1F920F9221
:1013F0000FB60F9211242F933F934F935F936F93E8
:101400007F938F939F93AF93BF93EF93FF93E0915D
:101410000001F09101010995FF91EF91BF91AF910A
:101420009F918F917F916F915F914F913F912F91FC
:101430000F900FBE0F901F901895CF93DF93E3E1AD
:10144000F6E01382128288EE93E0A0E0B0E084839D
:101450009583A683B78322E631E03183208325EC90
:1014600030E03587248724EC30E03787268720EC6E
:1014700030E0318B208B21EC30E0338B228B22EC5F
:1014800030E0358B248B26EC30E0378B268B118EA9
:10149000128E138E148EE0EBF6E013821282848398
:1014A0009583A683B78384E791E091838083CAE024
:1014B000D7E01B821A8286E891E09983888388E0CE
:1014C000E3E1F1E0AEE0B7E001900D928A95E1F73B
:1014D00088E0EBE1F1E0A6E1B7E001900D928A959A
:1014E000E1F788E0E3E2F1E0AEE1B7E001900D92D0
:1014F0008A95E1F788E0EBE2F1E0A6E2B7E001903F
:101500000D928A95E1F788E0E3E3F1E0AEE2B7E01F
:1015100001900D928A95E1F788E0EBE3F1E0A6E314
:10152000B7E001900D928A95E1F780E28CAB80E103
:1015300089AF82E08AAF6EE871E082EF96E00E94A8
:10154000E00768E971E088EF96E00E94E00766EA4C
:1015500071E08EEF96E00E94E00761EB71E084E0BD
:1015600097E00E94E00768EB71E08CEB96E00E9448
:10157000E00766EC71E082EC96E00E94E00764ED23
:1015800071E088EC96E00E94E00762EE71E08EEC7C
:1015900096E00E94E0076DEE71E084ED96E00E9417
:1015A000E00768EF71E08AED96E00E94E00763E0F3
:1015B00072E080EE96E00E94E0076EE072E086EE58
:1015C00096E00E94E0076CE172E08CEE96E0DF911D
:1015D000CF910C94E007CF93DF9300D000D000D0E0
:1015E0001F92CDB7DEB7789484B5836084BD85B58E
:1015F000836085BD80916E00816080936E0092E073
:10160000909381008091810081608093810080911E
:1016100080008160809380008091B100846080931D
:10162000B1008091B00081608093B00087E8809322
:101630007A001092C100E0912306F0912406908375
:10164000E0911F06F09120061082E0912106F091B2
:1016500022068FE3808310922B06E0912706F091FB
:10166000280686E08083E0912506F0912606808199
:1016700088698083E0912506F091260680818F7D20
:10168000808395E5892E91E0992E21EBA22E25E00D
:10169000B22E3CE4C32E31E0D32E43E4E42E41E0ED
:1016A000F42E00E110E0C8010E945310782E282F7C
:1016B00030E0D4018D914D01082E000C990B2817B4
:1016C000390744F0F6018081082E000C990B82172F
:1016D00093075CF4D7017C90C8010E9453107816E0
:1016E00021F0672DC8010E945B10F50171925F0126
:1016F0000F5F1F4FFFEFCF1ADF0A8FEFE81AF80ACC
:101700000931110581F68091B4050E945B0480E1E6
:10171000809381001092800020EA3FE030938700A0
:101720002093860081E1809381004BE951E0509342
:1017300001014093000191E090936F009091B405F6
:1017400019160CF0B0C13093870020938600809367
:1017500081006091B9058091B8050E94B204109291
:10176000C5051092C4051092F00510921206109251
:10177000EE0511E01093ED051092E60561E082E1BF
:101780000E94ED0061E083E10E94ED008091B900CC
:101790008E7F8093B9008091B9008D7F8093B900CE
:1017A00088E48093B80085E48093BC0086EA91E0E9
:1017B000909392048093910487EA91E0909390042F
:1017C00080938F048CE08093B80080E20E94E30055
:1017D00081E00E948800811169C11093AF0562E326
:1017E00070E080E090E00E94690188E180933F070B
:1017F00012E01093420786E089831A8280913E07A7
:101800000E94E30042E050E0BE016F5F7F4F80EB3B
:1018100096E00E942A030E94E00087E0898308EF97
:101820000A8380913E070E94E30042E050E0BE013F
:101830006F5F7F4F80EB96E00E942A030E94E000DA
:1018400019831A820B8380913E070E94E30043E0D4
:1018500050E0BE016F5F7F4F80EB96E00E942A034D
:101860000E94E00061E070E080E090E00E94690189
:1018700060913F07606240E08AE097E00E94570372
:1018800084E08093400740E06CE08AE097E00E94AB
:1018900057031093410740E066E08AE097E00E941A
:1018A000570340E061E08AE097E00E94570362E05E
:1018B00070E080E090E00E9469011092450740E0EE
:1018C00062E08AE097E00E94570362E070E080E007
:1018D00090E00E9469011092450760E080E00E945C
:1018E000AC034DE050E06BE272E08AE097E00E94CA
:1018F000A80161E080E00E94AC034CE050E069E3A5
:1019000072E08AE097E00E94A8016EE077E080E054
:101910000E94090466E177E081E00E9409046EE11B
:1019200077E082E00E94090466E277E083E00E94AB
:1019300009046EE277E084E00E94090466E377E040
:1019400085E00E94090483E00E9454058091AE0561
:101950000E94BF078091B1050E9495028091B20557
:101960000E9495028091B3050E94950210E4E12E39
:101970001FE1F12E00EAC02E0FE0D02E80E0A82E4D
:1019800080E0B82E66246394A2E07A2EB1E15B2E4B
:101990008091BA05882309F47AC11092BA0585B1FD
:1019A0008C7F982F9863492E282F2A63982F9B634A
:1019B0008963982E25B900000000000095B9000049
:1019C0000000000045B803E914E0812C93B1907247
:1019D000D8018D918D01981761F0FD0131979083A9
:1019E0006091B705680D8091B305911163C00E94A5
:1019F0008E0595B800000000000045B88394B9E159
:101A00008B12E4CF8091B405813009F456C0823046
:101A100009F4BAC081118EC085B18C7F982F98636C
:101A2000292E282F2A63982F9B638963482E25B976
:101A300000000000000095B900000000000025B87B
:101A40003CE2832E35E0932E0CEA14E044E2342E7F
:101A500093B19870D4018D914D01981751F0FD010B
:101A6000319790838091B105632D9111D8C00E9468
:101A70008E0593B19071F80181918F01981749F00B
:101A8000319790838091B205632D9111CBC00E9454
:101A90008E0545B800000000000025B83394F1E63B
:101AA0003F12D6CF47C020E43FE14DCE85E00E94F3
:101AB000540550CF0E9472059CCF0BB1077E902E2B
:101AC000689494F8292CE89424F8E22DE860EE83D9
:101AD00008619BB810E0812C85B1887F882985B981
:101AE00081E090E00E9439012BB8FE81FBB99BB8E0
:101AF000412C103408F0105469B189B18F830BB9AF
:101B00009BB8000049B139B040746074812F0E94C5
:101B10001906432D40786F816078812F0E94CD0592
:101B200088E0810F439498E049122AC0175F83949C
:101B30008912D2CF83E196E00E940602892B09F434
:101B4000A6C042E350E060E070E0CE0105960E943E
:101B500065066D8167FF13C1609302011092AD05A8
:101B6000603D08F062C0603C08F064C0603B28F44F
:101B7000603A18F4603808F471C07092AC055CC02B
:101B80000BB99BB8182FB5CF1BB11770A12FA0614F
:101B9000AE83912F906205B1087FB02FB160BF83F3
:101BA000802F82609BB985B9000000001BB905B980
:101BB000F8E08F2E312C81E090E00E943901E8E0BE
:101BC0004E2EEFE370EC972E930CE31508F0932C58
:101BD00069B139B043B129B0FF81F5B90000000007
:101BE00005B944706870892D0E941906422D407411
:101BF000632D6078892D0E94CD0568E0362E390C62
:101C00004A944110DECF8E818BB9000000001BB9D1
:101C100059E0352E390C8A948110CDCF8BCF0E949C
:101C2000720527CF0E94720534CF603F68F4603E92
:101C300008F0A3CF6092AC0583E196E00E944802D1
:101C40008D818093040123C0613F09F495C048F061
:101C5000623F09F48EC0633F09F48EC01092AC0558
:101C600016C08FEF898349E150E060E070E0CE015B
:101C700001960E9465069981973F11F08111F1CF7D
:101C80001092AC051092040197EF9093020180919D
:101C9000B005877009F061C08091AF05882309F411
:101CA0005CC086B190E095958795959587958370F2
:101CB00090910301891761F080930301911108C08D
:101CC000823009F481C04FEF5FEF813009F47EC0AC
:101CD0000E94AA06182F882309F43FC08091AE0500
:101CE0000E94BF0711FF0CC08091AE05882309F444
:101CF000B9C081508093AE058091AE050E94BF07A8
:101D000012FF0CC08091AE05883008F0AFC08F5F25
:101D10008093AE058091AE050E94BF0710FF19C0E9
:101D20000091AE0510E0F801EF54FA4F9080005F8B
:101D30001F4FC8010E945310981621F0692DC80149
:101D40000E945B108091AE050E94BF0781E00E9457
:101D500054050E94AA068111FCCFA114B10409F414
:101D600017CE0E941202882309F40ECE0E940000B2
:101D70000BCE7092AC058BCF6092AC0588CF909063
:101D8000AC05992009F483CF1091AD051F5F109326
:101D9000AD050091020180910401801739F0602F98
:101DA00083E196E00E944802009304016D8183E183
:101DB00096E00E944802812F692D0E94A010911187
:101DC00066CF1092AD0563CF41E050E08091AE0543
:101DD000282F30E0F901EF54FA4F9081BA01690FD2
:101DE000711D97FD7A95D901AB5ABE4F1C91A12F59
:101DF000012E000CBB0B6A177B070CF510830E94A9
:101E000052078091AE05833069F41091B405812F9B
:101E10000E945B0411160CF5D0928700C0928600D8
:101E2000509281008091AE058750823008F050CFEB
:101E30006091B9058091B8050E94B20449CF245B36
:101E40003E4FD9011C91212F012E000C330B261778
:101E50003707A4F2490F4083D2CFF0928700E09277
:101E60008600DECFB8E0B093AE0546CF1092AE0547
:101E700051CFCF93DF93C2EFD6E026978881998127
:101E8000009711F00E947E1286E0CC3BD807A9F79C
:101E9000CAE0D7E0269788819981009711F00E94C7
:101EA0007E1286E0C23FD807A9F7DF91CF9108954F
:101EB000E89409C097FB3EF49095809570956195E4
:101EC0007F4F8F4F9F4F9923A9F0F92F96E9BB279A
:101ED0009395F695879577956795B795F111F8CF16
:101EE000FAF4BB0F11F460FF1BC06F5F7F4F8F4F81
:101EF0009F4F16C0882311F096E911C0772321F077
:101F00009EE8872F762F05C0662371F096E8862F0E
:101F100070E060E02AF09A95660F771F881FDAF765
:101F2000880F9695879597F908950E94A80F0C94AD
:101F300019100E940B1038F00E94121020F0952307
:101F400011F00C9402100C94081011240C944D10F4
:101F50000E942A1070F3959FC1F3950F50E0551F12
:101F6000629FF001729FBB27F00DB11D639FAA27EE
:101F7000F00DB11DAA1F649F6627B00DA11D661F3D
:101F8000829F2227B00DA11D621F739FB00DA11D5E
:101F9000621F839FA00D611D221F749F3327A00D18
:101FA000611D231F849F600D211D822F762F6A2FB4
:101FB00011249F5750409AF0F1F088234AF0EE0F19
:101FC000FF1FBB1F661F771F881F91505040A9F746
:101FD0009E3F510580F00C9402100C944D105F3F11
:101FE000E4F3983ED4F3869577956795B795F79582
:101FF000E7959F5FC1F7FE2B880F911D96958795FA
:1020000097F9089597F99F6780E870E060E0089578
:102010009FEF80EC089500240A9416161706180600
:102020000906089500240A941216130614060506DC
:102030000895092E0394000C11F4882352F0BB0F6D
:1020400040F4BF2B11F460FF04C06F5F7F4F8F4FD0
:102050009F4F089557FD9058440F551F59F05F3F0B
:1020600071F04795880F97FB991F61F09F3F79F0BA
:1020700087950895121613061406551FF2CF46953C
:10208000F1DF08C0161617061806991FF1CF8695BE
:102090007105610508940895E894BB2766277727A2
:1020A000CB0197F90895F999FECF92BD81BDF89AB9
:1020B000992780B50895262FF999FECF1FBA92BDB2
:1020C00081BD20BD0FB6F894FA9AF99A0FBE019619
:1020D00008952F923F924F925F926F927F928F92CC
:1020E0009F92AF92BF92CF92DF92EF92FF920F93A7
:1020F0001F93CF93DF93CDB7DEB7CA1BDB0B0FB6B1
:10210000F894DEBF0FBECDBF09942A88398848886D
:102110005F846E847D848C849B84AA84B984C88403
:10212000DF80EE80FD800C811B81AA81B981CE0FFA
:10213000D11D0FB6F894DEBF0FBECDBFED010895DF
:10214000991B79E004C0991F961708F0961B881F09
:102150007A95C9F780950895A1E21A2EAA1BBB1B98
:10216000FD010DC0AA1FBB1FEE1FFF1FA217B30763
:10217000E407F50720F0A21BB30BE40BF50B661F79
:10218000771F881F991F1A9469F76095709580953D
:1021900090959B01AC01BD01CF010895EE0FFF1F8B
:1021A0000590F491E02D09945058BB27AA270E946E
:1021B000EC100C9419100E940B1038F00E941210B1
:1021C00020F039F49F3F19F426F40C9408100EF413
:1021D000E095E7FB0C940210E92F0E942A1058F3B7
:1021E000BA17620773078407950720F079F4A6F5FC
:1021F0000C944C100EF4E0950B2EBA2FA02D0B0171
:10220000B90190010C01CA01A0011124FF27591B3B
:1022100099F0593F50F4503E68F11A16F040A22F41
:10222000232F342F4427585FF3CF469537952795B2
:10223000A795F0405395C9F77EF41F16BA0B620BB1
:10224000730B840BBAF09150A1F0FF0FBB1F661FF8
:10225000771F881FC2F70EC0BA0F621F731F841F3B
:1022600048F4879577956795B795F7959E3F08F061
:10227000B0CF9395880F08F09927EE0F9795879523
:1022800008950E9455110C9419100E94121058F0D4
:102290000E940B1040F029F45F3F29F00C940210CB
:1022A00051110C944D100C9408100E942A1068F3E0
:1022B0009923B1F3552391F3951B550BBB27AA27FF
:1022C00062177307840738F09F5F5F4F220F331F39
:1022D000441FAA1FA9F335D00E2E3AF0E0E832D001
:1022E00091505040E695001CCAF72BD0FE2F29D004
:1022F000660F771F881FBB1F261737074807AB07D6
:10230000B0E809F0BB0B802DBF01FF2793585F4F4A
:102310003AF09E3F510578F00C9402100C944D1049
:102320005F3FE4F3983ED4F3869577956795B7952C
:10233000F7959F5FC9F7880F911D9695879597F937
:102340000895E1E0660F771F881FBB1F62177307B0
:102350008407BA0720F0621B730B840BBA0BEE1FC5
:1023600088F7E09508950E94321088F09F5798F002
:10237000B92F9927B751B0F0E1F0660F771F881F8A
:10238000991F1AF0BA95C9F714C0B13091F00E94A4
:102390004C10B1E008950C944C10672F782F8827CB
:1023A000B85F39F0B93FCCF3869577956795B395CB
:1023B000D9F73EF490958095709561957F4F8F4F3A
:1023C0009F4F08950F931F93CF93DF938230910512
:1023D00010F482E090E0E0914807F091490730E086
:1023E00020E0B0E0A0E0309799F42115310509F420
:1023F0004AC0281B390B24303105D8F58A819B81CE
:102400006115710589F1FB0193838283FE0111C07F
:10241000408151810281138148175907E0F0481724
:10242000590799F4109761F012960C93129713962E
:102430001C933296CF01DF91CF911F910F91089598
:102440000093480710934907F4CF2115310551F047
:102450004217530738F0A901DB019A01BD01DF01E2
:10246000F801C1CFEF01F9CF909349078093480756
:10247000CDCFFE01E20FF31F8193919322503109DA
:1024800039832883D7CF2091460730914707232BE4
:1024900041F42091070130910801309347072093C0
:1024A000460720910501309106012115310541F4BF
:1024B0002DB73EB74091090150910A01241B350BFD
:1024C000E0914607F0914707E217F307A0F42E1BAF
:1024D0003F0B2817390778F0AC014E5F5F4F241788
:1024E000350748F04E0F5F1F50934707409346074C
:1024F000819391939FCFF0E0E0E09CCFCF93DF9367
:102500000097E9F0FC01329713821282A0914807EC
:10251000B0914907ED0130E020E01097A1F420814F
:102520003181820F931F209146073091470728176A
:10253000390709F061C0F0934707E0934607DF9140
:10254000CF910895EA01CE17DF07E8F54A815B8154
:102550009E0141155105B1F7E901FB83EA834991D9
:102560005991C40FD51FEC17FD0761F4808191814B
:102570000296840F951FE901998388838281938154
:102580009B838A83F0E0E0E012968D919C911397F3
:102590000097B9F52D913C911197CD010296820FCC
:1025A000931F20914607309147072817390739F6BE
:1025B000309751F51092490710924807B09347079A
:1025C000A0934607BCCFD383C28340815181840F3F
:1025D000951FC817D90761F44E5F5F4F88819981B5
:1025E000480F591F518340838A819B819383828343
:1025F0002115310509F0B0CFF0934907E093480762
:102600009ECFFD01DC01C0CF13821282D7CFB0E094
:10261000A0E0EDE0F3E10C946B108C01009751F415
:10262000CB010E94E2118C01C801CDB7DEB7E0E119
:102630000C948710FC01E60FF71F9C012250310912
:10264000E217F30708F49DC0D901CD91DC911197F1
:10265000C617D70798F0C530D10530F3CE010497DF
:102660008617970708F3C61BD70B2297C193D19300
:102670006D937C93CF010E947E12D6CF5B01AC1A82
:10268000BD0A4C018C0E9D1EA0914807B0914907D0
:10269000512C412CF12CE12C109731F580914607FB
:1026A000909147078815990509F05CC046165706B2
:1026B00008F058C08091050190910601009741F4FF
:1026C0008DB79EB74091090150910A01841B950B6B
:1026D000E817F90708F055C0F0934707E09346075D
:1026E000F90171836083A0CF8D919C91119712960F
:1026F0006C90129713967C901397A815B90559F50D
:102700006C0142E0C40ED11CCA14DB0420F1AC0100
:102710004A195B09DA011296159780F0628273827A
:1027200051834083D9016D937C93E114F10471F0DE
:10273000D7011396FC93EE93129776CF22968C0FC7
:102740009D1FF90191838083F301EFCFF093490737
:10275000E093480769CF4816590608F42C017D011B
:10276000D3019ACFCB010E94E2117C01009749F07E
:10277000AE01B8010E94C413C8010E947E128701F5
:1027800053CF10E000E050CFFB01DC0102C001900C
:102790000D9241505040D8F70895FB01DC010190A3
:1027A0000D920020E1F7089510E0CDE5D0E004C0DF
:1027B000FE010E94CE102196CE35D107C9F7F894BC
:0227C000FFCF49
:1027C2005A04FF03FF00004A078000000040001483
:1027D200005400040E150404040400040404041547
:1027E2000E040002060E1E0E06020002040A140A5D
:1027F200040200040E1F001F0E0400040A15001537
:102802000A0400010203012424240A0A10101003FE
:102812003C3C3C2814010101000C0C0C000000009F
:1028220000004802A801D501AE020602E401F80147
:102832000000000028042A035704000323031003A6
:10284200010300000000E403A8015704CE02536311
:10285200616E31362F3631004661746172536361A5
:102862006E312D36310046617461725363616E328E
:1028720000437573746F6D00557070657220436804
:10288200616E6E656C004C6F776572204368616E95
:102892006E656C00506564616C204368616E6E65A4
:1028A2006C004B62642044726976657200557070E8
:1028B20065722042617365004C6F776572204261D8
:1028C200736500506564616C2042617365005665F2
:1028D2006C6F63697479204D696E2E0056656C6F5A
:1028E2006369747920536C6F70650046617461721C
:1028F2005363616E4374726C00432E4D6579657249
:06290200203230323600E5
:00000001FF
