:107E0000112494B714BE892F8D7011F0892FCBD017
:107E100082E08093C00088E18093C10086E0809377
:107E2000C20085E18093C4008EE0A7D0EE24FF2439
:107E3000B3E0AB2EBB24B394A5E0DA2EF1E1CF2E54
:107E400090D0813471F48DD0082F9DD0023811F478
:107E500082E005C0013811F486E001C083E079D0EA
:107E600075C0823411F484E103C0853419F485E0CF
:107E700092D06CC0853579F474D0E82EFF2471D08F
:107E8000082F10E0102F00270E291F29000F111FA7
:107E90007AD078015BC0863521F484E07CD080E024
:107EA000DECF843609F035C05CD05BD0182F59D0B6
:107EB000082FC0E0D1E055D089931C17E1F763D0BB
:107EC000053409F4FFCFF701A7BEE89507B600FC1B
:107ED000FDCFA701A0E0B1E02C9130E011968C918C
:107EE000119790E0982F8827822B932B1296FA01F6
:107EF0000C01B7BEE89511244E5F5F4F1A1761F76A
:107F0000F701D7BEE89507B600FCFDCFC7BEE895E0
:107F10001DC0843769F425D024D0082F22D033D057
:107F2000E701FE018591EF0114D00150D1F70EC099
:107F3000853739F428D08EE10CD085E90AD08FE05E
:107F40008ECF813511F488E018D01DD080E101D0AA
:107F500077CF982F8091C00085FFFCCF9093C6000B
:107F600008958091C00087FFFCCF8091C00084FD00
:107F700001C0A8958091C6000895E0E6F0E098E180
:107F8000908380830895EDDF803219F088E0F5DF7B
:107F9000FFCF84E1DECF1F93182FE3DF1150E9F705
:107FA000F2DF1F910895282E80E0E7DFEE27FF27FC
:027FB000099432
:027FFE00020679
:0400000300007E007B
:100000000C9463000C948B000C948B000C948B006C
:100010000C948B000C948B000C948B000C948B0034
:100020000C948B000C948B000C948B000C948B0024
:100030000C948B000C942A0A0C948B000C948B006B
:100040000C9465080C948B000C94CD080C94A708B4
:100050000C948B000C948B000C948B000C948B00F4
:100060000C94FF080C948B00000000002400270073
:100070002A0000000000250028002B0004040404CE
:100080000404040402020202020203030303030342
:10009000020203010204081020408001020408103B
:1000A00020010204081020408040000000090003E5
:1000B000020000040508000000000000000000002D
:1000C0000000510A9F0F11241FBECFEFD8E0DEBF02
:1000D000CDBF27E0A6E5B2E001C01D92A836B20769
:1000E000E1F712E0A0E0B1E0EAEBF8E202C005902F
:1000F0000D92A635B107D9F710E0C2E6D0E004C0F2
:100100002197FE010E944A11C136D107C9F70E940A
:10011000330B0C9450140C940000282F90911F0660
:1001200081E0913208F042C08091FB058111FCCF43
:1001300080911E0632E03093FB052093FA052FEFE5
:100140002093F9052EEF35E03093F8052093F7055D
:100150001092F6059093F5051092F4059091F40530
:10016000880F892B8093F4058091F305813029F560
:100170001092F3058091F4058093BB008091BC0040
:1001800083FDF8CF85EC8093BC008091FB05823025
:10019000E1F38091F9058F3F91F08091F90580326C
:1001A00081F08091F905803371F084E01092FD05B3
:1001B00010921F061092FC05089585EEE4CF80E0B2
:1001C000F5CF82E0F3CF83E0F1CF81E00C948D0096
:1001D00091E09093FC0580931E061092FD0510920D
:1001E0001F06089590E0FC01E655FF4F2491FC01A5
:1001F000ED56FF4F3491FC01E458FF4FE491EE239C
:10020000C9F0222339F0243001F1A8F4223069F139
:10021000233079F1F0E0EE0FFF1FEE58FF4FA5916C
:10022000B4918FB7F894EC91611126C030953E23BC
:100230003C938FBF0895283071F0293091F025301C
:1002400049F7809180008F7D03C0809180008F7777
:1002500080938000DFCF8091B0008F778093B000D3
:10026000D9CF8091B0008F7DF9CF84B58F7784BDD1
:10027000D1CF84B58F7DFBCF3E2BDACF00000000BD
:100280000000000000008130910551F09C01220F18
:10029000331F220F331F0797820F931F0197F1F728
:1002A0000895CF92DF92EF92FF926FB7F89480910A
:1002B000CD059091CE05A091CF05B091D00550917C
:1002C000CC0526B535B3432F417030FF04C041E063
:1002D0002F3F09F440E06FBF6C017D0137E0CC0C8B
:1002E000DD1CEE1CFF1C3A95D1F7C50ED11CE11C9C
:1002F000F11CC81AD90AEA0AFB0A880F991FAA1F1B
:10030000BB1FC81AD90AEA0AFB0A63E0CC0CDD1C41
:10031000EE1CFF1C6A95D1F730E0A3E3B3E00E9426
:100320000D11672F782F892F99276C0D7D1D8E1D3C
:100330009F1D442321F06D5C7C4F8F4F9F4FFF909A
:10034000EF90DF90CF9008958F929F92AF92BF92DF
:10035000CF92DF92EF92FF924B015C010E9451011C
:100360006B017C010E9451016C197D098E099F0966
:10037000683E734081059105A8F321E0821A910837
:10038000A108B10888EEC80E83E0D81EE11CF11C5C
:1003900081149104A104B10429F7FF90EF90DF903C
:1003A000CF90BF90AF909F908F9008958091CA0595
:1003B0008F5F8093CA058091C0058F5F8093C005D1
:1003C0008091C00587708093C005089508950895B1
:1003D000AF92BF92CF92DF92EF92FF920F931F9353
:1003E000CF93DF936C017B018B01040F151FEB0191
:1003F0005E01AE18BF08C017D10759F06991D60148
:10040000ED91FC910190F081E02DC6010995892BB9
:1004100079F7C501DF91CF911F910F91FF90EF9078
:10042000DF90CF90BF90AF900895FC01538D448D25
:10043000252F30E0842F90E0821B930B541710F08F
:10044000CF96089501970895FC01918D828D98179C
:1004500061F0A28DAE0FBF2FB11D5D968C91928D74
:100460009F5F9F73928F90E008958FEF9FEF0895A5
:10047000FC01918D828D981731F0828DE80FF11D6E
:10048000858D90E008958FEF9FEF0895FC01918D89
:10049000228D892F90E0805C9F4F821B91098F7382
:1004A0009927089580E296E00E94460221E0892B78
:1004B00009F420E0822F089580E090E0892B29F054
:1004C0000E94520281110C9400000895FC01A48D39
:1004D000A80FB92FB11DA35ABF4F2C91848D90E066
:1004E00001968F739927848FA689B7892C93A08949
:1004F000B1898C91837080648C93938D848D9813D3
:1005000006C00288F389E02D80818F7D8083089565
:10051000EF92FF920F931F93CF93DF93EC0181E053
:10052000888F9B8D8C8D98131AC0E889F9898081FA
:1005300085FF15C09FB7F894EE89FF896083E8892D
:10054000F98980818370806480839FBF81E090E01F
:10055000DF91CF911F910F91FF90EF900895F62EAC
:100560000B8D10E00F5F1F4F0F731127E02E8C8D46
:100570008E110CC00FB607FCFACFE889F98980818B
:1005800085FFF5CFCE010E946602F1CFEB8DEC0F17
:10059000FD2FF11DE35AFF4FF0829FB7F8940B8FA8
:1005A000EA89FB8980818062CFCFCF93CFEAC80FE1
:1005B00080910301C81739F06C2F80E296E00E9409
:1005C0008802C09303016BE780E296E00E948802F4
:1005D00060E080E296E0CF910C948802CF93DF93A5
:1005E000EC01888D8823B9F0AA89BB89E889F9894B
:1005F0008C9185FD03C0808186FD0DC00FB607FC80
:10060000F7CF8C9185FFF2CF808185FFEDCFCE01B2
:100610000E946602E9CFDF91CF910895089585ED9C
:100620008093BC008091BC0084FDFCCF1092FB0540
:10063000089520917C04260F3327331F2132310582
:10064000ECF42091FB05FC0190E080E0243069F09F
:1006500082E00895A0917C042191AC01445A5B4F43
:10066000A40FB52FB11D2C930196861798F3809196
:100670007C04680F60937C0480E0089581E0089515
:100680000895E091D2058091D105E81730F4F0E0AB
:10069000ED52FA4F808190E008958FEF9FEF08951B
:1006A0009091D2058091D1052FEF3FEF981748F434
:1006B000E92FF0E0ED52FA4F208130E09F5F9093F8
:1006C000D205C90108958091D1059091D205891B69
:1006D000990B0895CF92DF92EF92FF920F931F93A1
:1006E000CF93DF937C01CB018A012091FC0522236B
:1006F00089F0EB016B01C40ED51ECC15DD0569F048
:100700006991D701ED91FC910190F081E02DC70135
:100710000995F3CF642F0E941903C801DF91CF918F
:100720001F910F91FF90EF90DF90CF900895EF927F
:10073000FF921F93CF93DF9300D000D0CDB7DEB7E9
:100740007C01142F82E089836A834B83F70184A99B
:100750000E94E80043E050E0BE016F5F7F4F8DEBE9
:1007600096E00E946A030E94E50083E08983812F5E
:10077000896F8A83F70184A90E94E80042E050E073
:10078000BE016F5F7F4F8DEB96E00E946A030E946F
:10079000E50085E090E00E943E01186F1A83F701A2
:1007A00084A90E94E80042E050E0BE016F5F7F4FE5
:1007B0008DEB96E00E946A030E94E50082E390E0E0
:1007C0000E943E010F900F900F900F90DF91CF91FC
:1007D0001F91FF90EF9008951F93CF93DF93CDB7B4
:1007E000DEB728970FB6F894DEBF0FBECDBF182F27
:1007F00088E0EAE0F1E0DE01119601900D928A9521
:10080000E1F780915B07861708F46FEF70E0660FE1
:10081000771F81E090E08C0F9D1F680F791FFB010F
:100820006081610F606840E083E297E00E94970377
:1008300010935E0728960FB6F894DEBF0FBECDBFAB
:10084000DF91CF911F910895CF93DF93EC0144E0A6
:100850000E9497038BAD8F5F8BAF81E090E0DF91BB
:10086000CF910895682F83E297E00C942404CF93EE
:10087000C0915E0780915C07C81738F460E283E29C
:1008800097E00E942404CF5FF5CF80935E07CF915D
:1008900008950F931F93CF93DF938B0198E0899F67
:1008A000B0011124606440E083E297E00E94970366
:1008B000E801085F1F4F699183E297E00E942404DA
:1008C000C017D107C1F7DF91CF911F910F91089504
:1008D000CF93DF931F92CDB7DEB769832091FC05DC
:1008E0002223F9F020911F06203258F021E030E059
:1008F000FC013383228390E080E00F90DF91CF9161
:1009000008958091FD05E82FF0E0E250FA4F9981BB
:1009100090838F5F8093FD0580931F0681E090E0B8
:10092000ECCF61E0CE0101960E941903F7CF90E071
:1009300080E008950895CF93DF93D82FC0E060E062
:1009400082E00E94F20066E970E080E090E00E94A0
:10095000A40161E082E00E94F20066E970E080E0BC
:1009600090E00E94A401CF5FDC13E9CFDF91CF912B
:10097000089517B89CE098B98130B9F08230E9F158
:1009800083E084B988E385B986E08AB98EEF8BB9B4
:10099000ECE3F5E0ACEBB4E098E080E191938D936B
:1009A00025E0EC37F207D1F712C087E084B988E37D
:1009B00085B98EE38AB986E18BB9ECE3F5E0ACEB5F
:1009C000B4E011921D9225E0E937F207D1F7ECED82
:1009D000F3E0ACE5B3E029E134E08FEF81938D9350
:1009E0002E173F07D9F7E3EAF4E08CEB94E020E21E
:1009F00021938E179F07E1F7089583E084B988E378
:100A000085B986E38AB986E08BB9ECE3F5E0ACEB17
:100A1000B4E011921D9285E0E937F807D1F7D7CFFE
:100A2000CF93DF93D62FCFE7C80F809103018C17A8
:100A300039F06C2F80E296E00E948802C093030197
:100A40006D2F80E296E00E94880260E480E296E0EA
:100A5000DF91CF910C948802CF93DF93D62FCFE80C
:100A6000C80F809103018C1739F06C2F80E296E05B
:100A70000E948802C09303016D2F80E296E00E94DD
:100A8000880260E480E296E0DF91CF910C948802C6
:100A90001F93CF93DF93162FCFE8C80FE42FF0E01A
:100AA000E45AFD4FD081809103018C1739F06C2FEF
:100AB00080E296E00E948802C0930301612F80E2E9
:100AC00096E00E9488026D2F80E296E0DF91CF9140
:100AD0001F910C948802282F30E0D901A454BB4FF9
:100AE0009C91913091F028F0923081F1933091F106
:100AF0000895411102C06623C9F1245A3C4F8FEF7B
:100B0000F901808381E08C930895662369F092E077
:100B10009C93245A3C4F6091C605680FF9014081AF
:100B20008091C2050C944805442391F0F901E45AE0
:100B3000FC4F9081992319F091509083089592E091
:100B40009C936091C605680F41E0EACF61110EC029
:100B500083E0D9CF61110AC0411108C01C92609195
:100B6000C605680F8091C2050C9410050895282FC2
:100B700030E0D901A45CBA4F9C91913091F028F0FB
:100B8000923081F1933091F10895411102C06623B2
:100B9000C9F124523C4F8FEFF901808381E08C939F
:100BA0000895662369F092E09C9324523C4F609133
:100BB000C505680FF90140818091C1050C94480575
:100BC000442391F0F901E452FC4F9081992319F0EC
:100BD00091509083089592E09C936091C505680FB1
:100BE00041E0EACF61110EC083E0D9CF61110AC0A4
:100BF000411108C01C926091C505680F8091C10524
:100C00000C94100508958F929F92AF92BF92CF924D
:100C1000DF92EF92FF92CF93DF93EC016A017B01A9
:100C20008FB7F8948090CD059090CE05A090CF0519
:100C3000B090D0058FBF80E296E00E944602892BDB
:100C4000B1F42FB7F8948091CD059091CE05A09185
:100C5000CF05B091D0052FBF88199909AA09BB0902
:100C60008C159D05AE05BF0530F380E006C080E21F
:100C700096E00E942402888381E0DF91CF91FF906B
:100C8000EF90DF90CF90BF90AF909F908F9008959E
:100C90003F924F925F926F927F928F929F92AF920C
:100CA000BF92CF92DF92EF92FF920F931F93CF9359
:100CB000DF9300D000D000D0CDB7DEB7382E611161
:100CC00001C061E070E090E080E00E94C50F9B01F0
:100CD000AC0160E070E080E89FE30E94BD114B0131
:100CE0005C010CE512E01E821D828FE790E0831903
:100CF00091099C01990F440B550B29833A834B832F
:100D00005C834D815E81BA0190E080E00E94C50F56
:100D100020E030E04FE753E40E94BD116B017C01FD
:100D2000AC019B01C501B4010E9402102B013C01E2
:100D300020E030E040E85FE3C501B4010E945111BA
:100D4000A70196010E9450119B01AC01C301B201A1
:100D50000E94BD116B017C0169817A818B819C812C
:100D60000E94C70FA70196010E9402100E942F1235
:100D7000630DF80161938F012D813E812F5F3F4FFD
:100D80003E832D832115314009F0BBCF26960FB647
:100D9000F894DEBF0FBECDBFDF91CF911F910F91B1
:100DA000FF90EF90DF90CF90BF90AF909F908F908B
:100DB0007F906F905F904F903F900895809157077C
:100DC0000E94E80061E08DEB96E00E9468040E94BA
:100DD000E500809157079091FB059111FCCF91E0C0
:100DE0009093FB059093FA052FEF2093F90523EDDF
:100DF00035E03093F8052093F7051092F605109230
:100E0000F5059093F4059091F405880F892B809354
:100E1000F4058091F305813039F51092F305809146
:100E2000F4058093BB008091BC0083FDF8CF85EC76
:100E30008093BC008091FB058130E1F38091F60541
:100E4000811114C08091F6051092D2058093D105CE
:100E50008DEB96E00E94500323E0959587952A95A7
:100E6000E1F780958770089585EEE2CF81E0ECCFC1
:100E70008F929F92AF92BF920F931F93CF93DF9366
:100E8000CDB7DEB7A1970FB6F894DEBF0FBECDBFCA
:100E900019A2423008F44AE08E010F5D1F4F842EE4
:100EA000912CB12CA12CA50194010E942811E62FB0
:100EB000B901CA01EA3044F5E05DD801EE938D0135
:100EC000232B242B252B79F790E080E0109769F0F5
:100ED000FD0101900020E9F73197AF014A1B5B0B40
:100EE000BD0183E297E00E94E801A1960FB6F89455
:100EF000DEBF0FBECDBFDF91CF911F910F91BF908D
:100F0000AF909F908F900895E95CD7CFCF92DF92FA
:100F1000EF92FF920F931F93CF93DF93F82EC82F7A
:100F2000D0E0FE01EF53FA4FC08061E080E00E9404
:100F3000EC030C2D0C2C000C110B83E0F8122EC0CE
:100F40009C2D86E09802F0011124E150F94F448174
:100F500055816081718183E297E00E94E8010E94DF
:100F6000370461E08DE00E94EC0382E00E943204CD
:100F7000CE0140960E94C0108017110659F161E021
:100F80008FE00E94EC038AE2DF91CF911F910F91D5
:100F9000FF90EF90DF90CF900C9432040C2C000C5B
:100FA000DD08EE08FF084AE0C701B601F7FE0BC0F6
:100FB0008DE20E94320466277727CB016C197D09E8
:100FC0008E099F094AE00E9438070E94370461E0B9
:100FD00083E0C9CFDF91CF911F910F91FF90EF90E8
:100FE000DF90CF900895CF93C82F60E080E00E94FB
:100FF000EC0386E0C89FF0011124E753F94F4481C8
:1010000055816081718183E297E00E94E8010E942E
:10101000370460E08FE00E94EC0384E00E94320419
:101020008C2FCF910C948607FC01808191810097D1
:1010300011F00C94FA120895EF92FF920F931F9300
:10104000CF93DF93EC017B01198218821B821A82F5
:101050001D821C82FB0101900020E9F731978F016E
:10106000061B170BB8016F5F7F4F90E080E00E9476
:1010700083130097B9F0998388831B830A832C819B
:101080003D81232B11F4FC0110821D830C83B701D9
:1010900088819981DF91CF911F910F91FF90EF90FF
:1010A0000C94491488819981009711F00E94FA12DA
:1010B000198218821D821C821B821A82DF91CF91B5
:1010C0001F910F91FF90EF9008951F920F920FB60E
:1010D0000F9211244F935F936F937F938F939F93FE
:1010E0004091CD055091CE056091CF057091D0050E
:1010F0008091CC059091CB05943019F51092CB05D9
:101100009091CB0590FD21C08A598D3728F08D57DD
:101110004F5F5F4F6F4F7F4F8093CC054093CD055E
:101120005093CE056093CF057093D0059F918F911A
:101130007F916F915F914F910F900FBE0F901F9015
:1011400018959F5F9093CB05DBCF8959DECF1F9217
:101150000F920FB60F9211242F933F934F935F93EB
:101160006F937F938F939F93AF93BF93EF93FF936F
:1011700080E296E00E946602FF91EF91BF91AF91ED
:101180009F918F917F916F915F914F913F912F919F
:101190000F900FBE0F901F9018951F920F920FB6D1
:1011A0000F9211242F938F939F93EF93FF93E091CE
:1011B0003006F09131068081E0913606F0913706D5
:1011C00082FD1BC09081809139068F5F8F732091C3
:1011D0003A06821741F0E0913906F0E0E05EF94FFF
:1011E000958F80933906FF91EF919F918F912F9169
:1011F0000F900FBE0F901F9018958081F4CF1F9213
:101200000F920FB60F9211242F933F934F935F933A
:101210006F937F938F939F93AF93BF93EF93FF93BE
:101220008091B900887F803609F44AC0F0F5883291
:1012300009F4A7C018F5803109F49BC0B8F48823DD
:1012400009F405C1883009F494C0FF91EF91BF9172
:10125000AF919F918F917F916F915F914F913F914E
:101260002F910F900FBE0F901F901895883109F4A1
:1012700088C0803251F78093F90514C0803409F496
:10128000A5C040F48033B9F38833F9F68093F905AB
:1012900085ECBCC0803509F489C0883509F49EC04E
:1012A000883499F60E940F03D0CF883909F494C08E
:1012B00038F5883729F050F4883611F0803729F650
:1012C00083E08093FB0510929E0457C0883809F490
:1012D00083C0803919F0803809F0B7CF80919E041F
:1012E000803208F079C0E0919E0481E08E0F8093F7
:1012F0009E048091BB00F0E0E258FB4F80833DC02C
:10130000803B39F0E0F4803A09F485C0883A09F06E
:101310009CCF84E08093FB0510927D0410927C04A6
:10132000E091A104F091A204099580917C048111BF
:101330000FC081E080937C0410925C0409C0803C63
:1013400009F4A6CF883C09F4A3CF883B09F07DCFF0
:10135000E0917D0481E08E0F80937D04F0E0E45AFB
:10136000FB4F80818093BB0090917D0480917C0431
:1013700031C08091F4058093BB0085EC8093BC0064
:1013800064CF9091F6058091F5059817B8F5809196
:10139000F7059091F805E091F60521E02E0F2093D6
:1013A000F605E80FF92FF11D8081E5CF2091F705B3
:1013B0003091F805E091F60581E08E0F8093F605F7
:1013C0008091BB00E20FF32FF11D80839091F60511
:1013D0008091F505981788F285E8D0CF2091F70520
:1013E0003091F805E091F60581E08E0F8093F605C7
:1013F0008091BB00E20FF32FF11D80838091FA05ED
:10140000811150CF81E08093F30584EA8093BC0082
:101410001092FB051ACF85EC8093BC001092FB055F
:1014200080919E04803230F4E0919E04F0E0E25816
:10143000FB4F108260919E0470E0E0919F04F09158
:10144000A0048EE794E0099510929E04FECE1092BF
:10145000F90528CF1F920F920FB60F9211242F93E8
:101460003F934F935F936F937F938F939F93AF932C
:10147000BF93EF93FF93E0910001F0910101099573
:10148000FF91EF91BF91AF919F918F917F916F915C
:101490005F914F913F912F910F900FBE0F901F9032
:1014A0001895CF93DF93E0E2F6E01382128288EE84
:1014B00093E0A0E0B0E084839583A683B78321E620
:1014C00031E03183208325EC30E03587248724EC1C
:1014D00030E03787268720EC30E0318B208B21EC01
:1014E00030E0338B228B22EC30E0358B248B26ECE2
:1014F00030E0378B268B118E128E138E148EEDEB0F
:10150000F6E01382128284839583A683B78383E7F0
:1015100091E091838083C3E2D7E01B821A8285E841
:1015200091E09983888388E0E2E1F1E0A7E2B7E007
:1015300001900D928A95E1F788E0EAE1F1E0AFE2EF
:10154000B7E001900D928A95E1F788E0E2E2F1E0E0
:10155000A7E3B7E001900D928A95E1F788E0EAE20F
:10156000F1E0AFE3B7E001900D928A95E1F788E0F2
:10157000E2E3F1E0A7E4B7E001900D928A95E1F78C
:1015800088E0EAE3F1E0AFE4B7E001900D928A95DC
:10159000E1F783E08CAF1EAE1DAE10926307109290
:1015A000620780E28CAB80E189AF82E08AAF6DE8B0
:1015B00071E087E197E00E941C0866E971E08DE127
:1015C00097E00E941C086EE971E08FEF96E00E94A0
:1015D0001C0868EA71E085E097E00E941C0866EB51
:1015E00071E08BE097E00E941C0861EC71E081E102
:1015F00097E00E941C0868EC71E089EC96E00E947C
:101600001C0866ED71E08FEC96E00E941C0864EE09
:1016100071E085ED96E00E941C0862EF71E08BEDB1
:1016200096E00E941C086DEF71E081EE96E00E944A
:101630001C0868E072E087EE96E00E941C0863E1F7
:1016400072E08DEE96E00E941C086EE172E083EF7E
:1016500096E00E941C086CE272E089EF96E0DF9150
:10166000CF910C941C08CF93DF9300D000D01F9231
:10167000CDB7DEB7789484B5836084BD85B58360CB
:1016800085BD80916E00816080936E0092E09093A2
:101690008100809181008160809381008091800031
:1016A0008160809380008091B10084608093B1005C
:1016B0008091B00081608093B00087E880937A00C9
:1016C0001092C100E0913006F09131069083E091D4
:1016D0002C06F0912D061082E0912E06F0912F0637
:1016E0008FE4808310923806E0913406F09135063D
:1016F00086E08083E0913206F0913306808188692C
:101700008083E0913206F091330680818F7D808363
:10171000E5E9F0E02491EEE7F0E08491882399F088
:1017200090E0880F991FFC01E859FF4FA591B491F3
:10173000FC01EE58FF4F859194918FB7F894EC918E
:10174000E22BEC938FBF84E5882E81E0982E91ECFC
:10175000A92E95E0B92E2BE4C22E21E0D22E32E440
:10176000E32E31E0F32E00E110E0C8010E94C0102A
:10177000782E282F30E0D4018D914D01082E000CD9
:10178000990B2817390744F0F6018081082E000CC8
:10179000990B821793075CF4D7017C90C8010E94D3
:1017A000C010781621F0672DC8010E94C810F501FD
:1017B00071925F010F5F1F4FFFEFCF1ADF0A8FEFAC
:1017C000E81AF80A0931110581F68091C4050E94D2
:1017D000B9046091C9058091C8050E94480686ED4C
:1017E00091E0909301018093000181E080936F006C
:1017F0008091C40518160CF0BFC188E893E190935E
:1018000087008093860081E18093810080E180934E
:1018100081001092800088E893E190938700809384
:10182000860001E1009381008091C1050E94D502EC
:101830008091C2050E94D5028091C3050E94D50205
:101840001092D2051092D1051092FD0510921F063C
:101850001092FB0511E01093FA051092F30561E078
:1018600082E10E94F20061E083E10E94F200809137
:10187000B9008E7F8093B9008091B9008D7F8093ED
:10188000B9008CE58093B80085E48093BC0086EEB7
:1018900091E09093A2048093A10487EE91E090934D
:1018A000A00480939F040093B80080E20E94E800A7
:1018B00081E00E948D00811162C11093BF0562E337
:1018C00070E080E090E00E94A40188E180935807D6
:1018D00012E010935B0786E089831A828091570794
:1018E0000E94E80042E050E0BE016F5F7F4F8DEB49
:1018F00096E00E946A030E94E50087E0898308EF72
:101900000A83809157070E94E80042E050E0BE0140
:101910006F5F7F4F8DEB96E00E946A030E94E500A7
:1019200019831A820B83809157070E94E80043E0D5
:1019300050E0BE016F5F7F4F8DEB96E00E946A031F
:101940000E94E50061E070E080E090E00E94A40168
:1019500060915807606240E083E297E00E9497033D
:1019600084E08093590740E06CE083E297E00E94B6
:10197000970310935A0740E066E083E297E00E94E5
:10198000970340E061E083E297E00E94970362E002
:1019900070E080E090E00E94A40110925E0740E0B9
:1019A00062E083E297E00E94970362E070E080E0EB
:1019B00090E00E94A40110925E0764EF71E080E065
:1019C00090E00E94A40160E080E00E94EC034CE003
:1019D00050E06BE372E083E297E00E94E80161E08F
:1019E00080E00E94EC034CE050E068E472E083E2A7
:1019F00097E00E94E80167E277E080E00E944904F6
:101A00006FE277E081E00E94490467E377E082E0DB
:101A10000E9449046FE377E083E00E94490467E491
:101A200077E084E00E9449046FE477E085E00E945B
:101A3000490485E00E949B048091BE050E94F30743
:101A4000B0E1CB2EB7E2DB2E11E1812E08E8A02E0B
:101A500003E1B02E99249394A2E0FA2E8091CA0556
:101A6000882309F45FC28091CA0581508093CA051A
:101A700085B18C7F982F9863792E282F2A63982F11
:101A80009B638963E82E25B900000000000095B92A
:101A900000000000000075B803EA14E0612C93B167
:101AA0009072D8018D918D01981761F0FD013197E9
:101AB00090836091C705660D8091C305911163C045
:101AC0000E942C05E5B800000000000075B8639482
:101AD000B9E16B12E4CF8091C405813009F456C09E
:101AE000823009F4B8C081118CC085B18C7F982FE9
:101AF0009863492E282F2A63982F9B638963E82EC9
:101B000025B900000000000095B9000000000000A9
:101B100045B83CE3632E35E0732E0CEB14E044E251
:101B2000542E93B19870D3018D913D01981751F0C7
:101B3000FD01319790838091C105652D9111D4C02D
:101B40000E942C0593B19071F80181918F01981733
:101B500049F0319790838091C205652D9111C7C0DE
:101B60000E942C05E5B800000000000045B8539421
:101B7000F1E65F12D6CF45C080E197E240CE83E028
:101B80000E949B045DCF0E9410059CCF0BB1077E85
:101B9000E02E6894E4F83E2CE89434F8232C689402
:101BA00023F80861EBB810E0712C85B1887F872994
:101BB00085B981E090E00E943E013BB82BB8EBB8BC
:101BC000612C103408F0105469B159B00BB9EBB85E
:101BD000000049B149B040746074812F0E94B7057C
:101BE000442D4078652D6078812F0E946B0588E038
:101BF000810F6394E8E06E122AC0175F73947E121F
:101C0000D4CF80E296E00E944602892B09F4A4C05A
:101C100042E350E060E070E0CE0105960E940306CA
:101C20006D8167FF05C1609302011092BD05603DA3
:101C300008F060C0603C08F062C0603B28F4603A85
:101C400018F4603808F46FC0F092BC055AC00BB9A4
:101C5000EBB8182FB6CF1BB11770312E689434F83B
:101C6000912F906205B1087F202E689420F8802F74
:101C700082609BB985B9000000001BB905B9F8E086
:101C80007F2E512C81E090E00E943E01E8E06E2E14
:101C9000FFE370ECE72EE50CF51508F0E52C69B1D3
:101CA00059B043B149B025B80000000005B94470EF
:101CB00068708E2D0E94B705442D4074652D6078A4
:101CC0008E2D0E946B0568E0562E5E0C6A946110A2
:101CD000DFCF3BB8000000001BB959E0552E5E0C69
:101CE0007A947110CFCF8DCF0E9410052BCF0E9418
:101CF000100538CF603F68F4603E08F0A5CF9092A1
:101D0000BC0580E296E00E9488028D8180930301E9
:101D100023C0613F09F489C048F0623F09F482C0E2
:101D2000633F09F482C01092BC0516C08FEF89830F
:101D300049E150E060E070E0CE0101960E940306A8
:101D40009981973F11F08111F1CF1092BC0510924B
:101D5000030197EF909302018091C00581117ECE1F
:101D60008091BF05882309F479CE86B190E09595DE
:101D7000879595958795837090915F07891761F096
:101D800080935F07911108C0823009F476C04FEF4D
:101D90005FEF813009F473C00E94DE06182F88239C
:101DA00009F45CCE8091BE050E94F30711FF0CC0C0
:101DB0008091BE05882309F4AEC081508093BE0592
:101DC0008091BE050E94F30712FF0CC08091BE05F2
:101DD000883008F0A4C08F5F8093BE058091BE0557
:101DE0000E94F30710FF19C00091BE0510E0F80132
:101DF000EF53FA4FE080005F1F4FC8010E94C010F0
:101E0000E81621F06E2DC8010E94C8108091BE0511
:101E10000E94F30781E00E949B040E94DE0681116C
:101E2000FCCF1CCEF092BC0597CF9092BC0594CF0E
:101E3000E090BC05EE2009F48FCF1091BD051F5F27
:101E40001093BD050091020180910301801739F0C4
:101E5000602F80E296E00E948802009303016D816A
:101E600080E296E00E948802812F6E2D0E941C1154
:101E7000911172CF1092BD056FCF41E050E080917B
:101E8000BE05282F30E0F901EF53FA4F9081BA01D7
:101E9000690F711D97FD7A95D901AC5ABE4F1C91FF
:101EA000A12F012E000CBB0B6A177B070CF51083CA
:101EB0000E9486078091BE05833069F41091C405A5
:101EC000812F0E94B90411160CF5B0928700A092E0
:101ED0008600809281008091BE058750823008F094
:101EE0005BCF6091C9058091C8050E94480654CF18
:101EF000255B3E4FD9011C91212F012E000C330B85
:101F000026173707A4F2490F4083D2CFD09287001B
:101F1000C0928600DECFB8E0B093BE0551CF1092DC
:101F2000BE055CCF80E090E0892B09F493CD0E9440
:101F30005202882309F48ECD0E9400008BCDCF93EE
:101F4000DF93CFEFD6E02697CE010E94140886E0FB
:101F5000C93CD807C1F781E197E00E9414088BE0E3
:101F600097E00E94140885E097E00E9414088FEF24
:101F700096E00E9414088DE197E00E94140887E122
:101F800097E0DF91CF910C941408E89409C097FB77
:101F90003EF490958095709561957F4F8F4F9F4F40
:101FA0009923A9F0F92F96E9BB279395F695879584
:101FB00077956795B795F111F8CFFAF4BB0F11F447
:101FC00060FF1BC06F5F7F4F8F4F9F4F16C08823EE
:101FD00011F096E911C0772321F09EE8872F762F24
:101FE00005C0662371F096E8862F70E060E02AF065
:101FF0009A95660F771F881FDAF7880F9695879551
:1020000097F908950E9415100C9486100E9478107C
:1020100038F00E947F1020F0952311F00C946F107F
:102020000C94751011240C94BA100E94971070F340
:10203000959FC1F3950F50E0551F629FF001729F6D
:10204000BB27F00DB11D639FAA27F00DB11DAA1F7C
:10205000649F6627B00DA11D661F829F2227B00DC9
:10206000A11D621F739FB00DA11D621F839FA00D54
:10207000611D221F749F3327A00D611D231F849FA4
:10208000600D211D822F762F6A2F11249F575040FB
:102090009AF0F1F088234AF0EE0FFF1FBB1F661F76
:1020A000771F881F91505040A9F79E3F510580F03F
:1020B0000C946F100C94BA105F3FE4F3983ED4F385
:1020C000869577956795B795F795E7959F5FC1F7E3
:1020D000FE2B880F911D9695879597F9089597F98E
:1020E0009F6780E870E060E008959FEF80EC0895BE
:1020F00000240A94161617061806090608950024E7
:102100000A9412161306140605060895092E039460
:10211000000C11F4882352F0BB0F40F4BF2B11F4D4
:1021200060FF04C06F5F7F4F8F4F9F4F089557FD33
:102130009058440F551F59F05F3F71F04795880F35
:1021400097FB991F61F09F3F79F0879508951216CC
:1021500013061406551FF2CF4695F1DF08C0161678
:1021600017061806991FF1CF869571056105089429
:102170000895E894BB2766277727CB0197F9089540
:10218000F999FECF92BD81BDF89A992780B508953F
:10219000262FF999FECF1FBA92BD81BD20BD0FB683
:1021A000F894FA9AF99A0FBE019608952F923F92E9
:1021B0004F925F926F927F928F929F92AF92BF9257
:1021C000CF92DF92EF92FF920F931F93CF93DF9303
:1021D000CDB7DEB7CA1BDB0B0FB6F894DEBF0FBE60
:1021E000CDBF09942A88398848885F846E847D84AD
:1021F0008C849B84AA84B984C884DF80EE80FD80AF
:102200000C811B81AA81B981CE0FD11D0FB6F89424
:10221000DEBF0FBECDBFED010895A29FB001B39FF9
:10222000C001A39F700D811D1124911DB29F700DDF
:10223000811D1124911D0895991B79E004C0991FF7
:10224000961708F0961B881F7A95C9F78095089510
:10225000A1E21A2EAA1BBB1BFD010DC0AA1FBB1FAA
:10226000EE1FFF1FA217B307E407F50720F0A21B1C
:10227000B30BE40BF50B661F771F881F991F1A9489
:1022800069F760957095809590959B01AC01BD01B3
:10229000CF010895EE0FFF1F0590F491E02D0994F2
:1022A0005058BB27AA270E9468110C9486100E94E0
:1022B000781038F00E947F1020F039F49F3F19F415
:1022C00026F40C9475100EF4E095E7FB0C946F1057
:1022D000E92F0E94971058F3BA1762077307840713
:1022E000950720F079F4A6F50C94B9100EF4E0955A
:1022F0000B2EBA2FA02D0B01B90190010C01CA01C0
:10230000A0011124FF27591B99F0593F50F4503E6A
:1023100068F11A16F040A22F232F342F4427585F5C
:10232000F3CF469537952795A795F0405395C9F774
:102330007EF41F16BA0B620B730B840BBAF091502C
:10234000A1F0FF0FBB1F661F771F881FC2F70EC0CB
:10235000BA0F621F731F841F48F48795779567959E
:10236000B795F7959E3F08F0B0CF9395880F08F08A
:102370009927EE0F9795879508950E94D1110C9497
:1023800086100E947F1058F00E94781040F029F4C7
:102390005F3F29F00C946F1051110C94BA100C94FB
:1023A00075100E94971068F39923B1F3552391F3A8
:1023B000951B550BBB27AA2762177307840738F0B4
:1023C0009F5F5F4F220F331F441FAA1FA9F335D011
:1023D0000E2E3AF0E0E832D091505040E695001CC5
:1023E000CAF72BD0FE2F29D0660F771F881FBB1F7F
:1023F000261737074807AB07B0E809F0BB0B802D5D
:10240000BF01FF2793585F4F3AF09E3F510578F088
:102410000C946F100C94BA105F3FE4F3983ED4F321
:10242000869577956795B795F7959F5FC9F7880F5C
:10243000911D9695879597F90895E1E0660F771FAE
:10244000881FBB1F621773078407BA0720F0621B3F
:10245000730B840BBA0BEE1F88F7E09508950E946A
:102460009F1088F09F5798F0B92F9927B751B0F077
:10247000E1F0660F771F881F991F1AF0BA95C9F708
:1024800014C0B13091F00E94B910B1E008950C94DD
:10249000B910672F782F8827B85F39F0B93FCCF390
:1024A000869577956795B395D9F73EF49095809585
:1024B000709561957F4F8F4F9F4F08950F931F9396
:1024C000CF93DF938230910510F482E090E0E091A9
:1024D0006607F091670730E020E0B0E0A0E03097B9
:1024E00099F42115310509F44AC0281B390B243011
:1024F0003105D8F58A819B816115710589F1FB0150
:1025000093838283FE0111C0408151810281138136
:1025100048175907E0F04817590799F4109761F0E8
:1025200012960C93129713961C933296CF01DF915B
:10253000CF911F910F91089500936607109367073D
:10254000F4CF2115310551F04217530738F0A90196
:10255000DB019A01BD01DF01F801C1CFEF01F9CF25
:102560009093670780936607CDCFFE01E20FF31FBC
:10257000819391932250310939832883D7CF2091B9
:10258000640730916507232B41F4209106013091B7
:10259000070130936507209364072091040130916F
:1025A00005012115310541F42DB73EB740910801D1
:1025B00050910901241B350BE0916407F0916507E8
:1025C000E217F307A0F42E1B3F0B2817390778F00A
:1025D000AC014E5F5F4F2417350748F04E0F5F1F69
:1025E0005093650740936407819391939FCFF0E0E8
:1025F000E0E09CCFCF93DF930097E9F0FC013297A6
:1026000013821282A0916607B0916707ED0130E056
:1026100020E01097A1F420813181820F931F209137
:102620006407309165072817390709F061C0F093F6
:102630006507E0936407DF91CF910895EA01CE1713
:10264000DF07E8F54A815B819E0141155105B1F72D
:10265000E901FB83EA8349915991C40FD51FEC1717
:10266000FD0761F4808191810296840F951FE90135
:1026700099838883828193819B838A83F0E0E0E061
:1026800012968D919C9113970097B9F52D913C91DD
:102690001197CD010296820F931F2091640730910C
:1026A00065072817390739F6309751F510926707F3
:1026B00010926607B0936507A0936407BCCFD383DD
:1026C000C28340815181840F951FC817D90761F4D7
:1026D0004E5F5F4F88819981480F591F5183408316
:1026E0008A819B81938382832115310509F0B0CFC4
:1026F000F0936707E09366079ECFFD01DC01C0CF32
:1027000013821282D7CFB0E0A0E0E9E8F3E10C94A5
:10271000D8108C01009751F4CB010E945E128C01FD
:10272000C801CDB7DEB7E0E10C94F410FC01E60F70
:10273000F71F9C0122503109E217F30708F49DC0EE
:10274000D901CD91DC911197C617D70798F0C53004
:10275000D10530F3CE0104978617970708F3C61BFF
:10276000D70B2297C193D1936D937C93CF010E9495
:10277000FA12D6CF5B01AC1ABD0A4C018C0E9D1E1D
:10278000A0916607B0916707512C412CF12CE12CE8
:10279000109731F580916407909165078815990528
:1027A00009F05CC04616570608F058C08091040135
:1027B00090910501009741F48DB79EB740910801B3
:1027C00050910901841B950BE817F90708F055C0D3
:1027D000F0936507E0936407F90171836083A0CFEC
:1027E0008D919C91119712966C90129713967C90F4
:1027F0001397A815B90559F56C0142E0C40ED11C18
:10280000CA14DB0420F1AC014A195B09DA01129603
:10281000159780F06282738251834083D9016D9352
:102820007C93E114F10471F0D7011396FC93EE93BD
:10283000129776CF22968C0F9D1FF901918380838A
:10284000F301EFCFF0936707E093660769CF48166F
:10285000590608F42C017D01D3019ACFCB010E94C7
:102860005E127C01009749F0AE01B8010E9440144D
:10287000C8010E94FA12870153CF10E000E050CF48
:10288000FB01DC0102C001900D9241505040D8F78D
:102890000895FB01DC0101900D920020E1F70895FD
:1028A00010E0C2E6D0E004C0FE010E944A11219669
:0A28B000C336D107C9F7F894FFCF33
:1028BA009A04FFFF0000680780000000400014002F
:1028CA005400040E15040404040004040404150E40
:1028DA00040002060E1E0E06020002040A140A046E
:1028EA000200040E1F001F0E0400040A1500150A38
:1028FA000400010203012424240A0A101010033CD4
:10290A003C3C2814010101000C0C0C0000000000E2
:10291A00008802E8011502EE02460224023802008B
:10292A0000000068046A03970440036303500341EC
:10293A0003000000002404E80197040E0346434BF9
:10294A002054524D500046434B20414644005363A5
:10295A00616E31362F36310046617461725363619C
:10296A006E312D36310046617461725363616E3285
:10297A0000437573746F6D005570706572204368FB
:10298A00616E6E656C004C6F776572204368616E8C
:10299A006E656C00506564616C204368616E6E659B
:1029AA006C004B62642044726976657200557070DF
:1029BA0065722042617365004C6F776572204261CF
:1029CA00736500506564616C2042617365005665E9
:1029DA006C6F63697479204D696E2E0056656C6F51
:1029EA006369747920536C6F7065005363616E4339
:1029FA0074726C20302E3900432E4D657965722031
:062A0A00323032360000FC
:00000001FF
